{
  "contractName": "DMS",
  "abi": [
    {
      "inputs": [],
      "stateMutability": "nonpayable",
      "type": "constructor"
    },
    {
      "anonymous": false,
      "inputs": [
        {
          "indexed": true,
          "internalType": "address",
          "name": "owner",
          "type": "address"
        },
        {
          "indexed": true,
          "internalType": "address",
          "name": "approved",
          "type": "address"
        },
        {
          "indexed": true,
          "internalType": "uint256",
          "name": "tokenId",
          "type": "uint256"
        }
      ],
      "name": "Approval",
      "type": "event"
    },
    {
      "anonymous": false,
      "inputs": [
        {
          "indexed": true,
          "internalType": "address",
          "name": "owner",
          "type": "address"
        },
        {
          "indexed": true,
          "internalType": "address",
          "name": "operator",
          "type": "address"
        },
        {
          "indexed": false,
          "internalType": "bool",
          "name": "approved",
          "type": "bool"
        }
      ],
      "name": "ApprovalForAll",
      "type": "event"
    },
    {
      "anonymous": false,
      "inputs": [
        {
          "indexed": true,
          "internalType": "address",
          "name": "from",
          "type": "address"
        },
        {
          "indexed": true,
          "internalType": "address",
          "name": "to",
          "type": "address"
        },
        {
          "indexed": true,
          "internalType": "uint256",
          "name": "tokenId",
          "type": "uint256"
        }
      ],
      "name": "Transfer",
      "type": "event"
    },
    {
      "inputs": [
        {
          "internalType": "address",
          "name": "to",
          "type": "address"
        },
        {
          "internalType": "uint256",
          "name": "tokenId",
          "type": "uint256"
        }
      ],
      "name": "approve",
      "outputs": [],
      "stateMutability": "nonpayable",
      "type": "function"
    },
    {
      "inputs": [
        {
          "internalType": "address",
          "name": "owner",
          "type": "address"
        }
      ],
      "name": "balanceOf",
      "outputs": [
        {
          "internalType": "uint256",
          "name": "",
          "type": "uint256"
        }
      ],
      "stateMutability": "view",
      "type": "function"
    },
    {
      "inputs": [
        {
          "internalType": "uint256",
          "name": "",
          "type": "uint256"
        }
      ],
      "name": "docIdx",
      "outputs": [
        {
          "internalType": "uint256",
          "name": "",
          "type": "uint256"
        }
      ],
      "stateMutability": "view",
      "type": "function"
    },
    {
      "inputs": [
        {
          "internalType": "address",
          "name": "",
          "type": "address"
        },
        {
          "internalType": "uint256",
          "name": "",
          "type": "uint256"
        }
      ],
      "name": "docList",
      "outputs": [
        {
          "internalType": "uint256",
          "name": "",
          "type": "uint256"
        }
      ],
      "stateMutability": "view",
      "type": "function"
    },
    {
      "inputs": [
        {
          "internalType": "uint256",
          "name": "",
          "type": "uint256"
        },
        {
          "internalType": "uint256",
          "name": "",
          "type": "uint256"
        }
      ],
      "name": "docRv",
      "outputs": [
        {
          "internalType": "address",
          "name": "",
          "type": "address"
        }
      ],
      "stateMutability": "view",
      "type": "function"
    },
    {
      "inputs": [
        {
          "internalType": "uint256",
          "name": "",
          "type": "uint256"
        },
        {
          "internalType": "uint256",
          "name": "",
          "type": "uint256"
        }
      ],
      "name": "docSig",
      "outputs": [
        {
          "internalType": "address",
          "name": "",
          "type": "address"
        }
      ],
      "stateMutability": "view",
      "type": "function"
    },
    {
      "inputs": [
        {
          "internalType": "uint256",
          "name": "tokenId",
          "type": "uint256"
        }
      ],
      "name": "getApproved",
      "outputs": [
        {
          "internalType": "address",
          "name": "",
          "type": "address"
        }
      ],
      "stateMutability": "view",
      "type": "function"
    },
    {
      "inputs": [
        {
          "internalType": "address",
          "name": "owner",
          "type": "address"
        },
        {
          "internalType": "address",
          "name": "operator",
          "type": "address"
        }
      ],
      "name": "isApprovedForAll",
      "outputs": [
        {
          "internalType": "bool",
          "name": "",
          "type": "bool"
        }
      ],
      "stateMutability": "view",
      "type": "function"
    },
    {
      "inputs": [],
      "name": "name",
      "outputs": [
        {
          "internalType": "string",
          "name": "",
          "type": "string"
        }
      ],
      "stateMutability": "view",
      "type": "function"
    },
    {
      "inputs": [
        {
          "internalType": "address",
          "name": "",
          "type": "address"
        },
        {
          "internalType": "uint256",
          "name": "",
          "type": "uint256"
        }
      ],
      "name": "notSigIdx",
      "outputs": [
        {
          "internalType": "uint256",
          "name": "",
          "type": "uint256"
        }
      ],
      "stateMutability": "view",
      "type": "function"
    },
    {
      "inputs": [
        {
          "internalType": "uint256",
          "name": "tokenId",
          "type": "uint256"
        }
      ],
      "name": "ownerOf",
      "outputs": [
        {
          "internalType": "address",
          "name": "",
          "type": "address"
        }
      ],
      "stateMutability": "view",
      "type": "function"
    },
    {
      "inputs": [
        {
          "internalType": "address",
          "name": "",
          "type": "address"
        },
        {
          "internalType": "uint256",
          "name": "",
          "type": "uint256"
        }
      ],
      "name": "rejIdx",
      "outputs": [
        {
          "internalType": "uint256",
          "name": "",
          "type": "uint256"
        }
      ],
      "stateMutability": "view",
      "type": "function"
    },
    {
      "inputs": [
        {
          "internalType": "address",
          "name": "from",
          "type": "address"
        },
        {
          "internalType": "address",
          "name": "to",
          "type": "address"
        },
        {
          "internalType": "uint256",
          "name": "tokenId",
          "type": "uint256"
        }
      ],
      "name": "safeTransferFrom",
      "outputs": [],
      "stateMutability": "nonpayable",
      "type": "function"
    },
    {
      "inputs": [
        {
          "internalType": "address",
          "name": "from",
          "type": "address"
        },
        {
          "internalType": "address",
          "name": "to",
          "type": "address"
        },
        {
          "internalType": "uint256",
          "name": "tokenId",
          "type": "uint256"
        },
        {
          "internalType": "bytes",
          "name": "_data",
          "type": "bytes"
        }
      ],
      "name": "safeTransferFrom",
      "outputs": [],
      "stateMutability": "nonpayable",
      "type": "function"
    },
    {
      "inputs": [
        {
          "internalType": "address",
          "name": "operator",
          "type": "address"
        },
        {
          "internalType": "bool",
          "name": "approved",
          "type": "bool"
        }
      ],
      "name": "setApprovalForAll",
      "outputs": [],
      "stateMutability": "nonpayable",
      "type": "function"
    },
    {
      "inputs": [
        {
          "internalType": "address",
          "name": "",
          "type": "address"
        },
        {
          "internalType": "uint256",
          "name": "",
          "type": "uint256"
        }
      ],
      "name": "sigIdx",
      "outputs": [
        {
          "internalType": "uint256",
          "name": "",
          "type": "uint256"
        }
      ],
      "stateMutability": "view",
      "type": "function"
    },
    {
      "inputs": [
        {
          "internalType": "bytes4",
          "name": "interfaceId",
          "type": "bytes4"
        }
      ],
      "name": "supportsInterface",
      "outputs": [
        {
          "internalType": "bool",
          "name": "",
          "type": "bool"
        }
      ],
      "stateMutability": "view",
      "type": "function"
    },
    {
      "inputs": [],
      "name": "symbol",
      "outputs": [
        {
          "internalType": "string",
          "name": "",
          "type": "string"
        }
      ],
      "stateMutability": "view",
      "type": "function"
    },
    {
      "inputs": [
        {
          "internalType": "uint256",
          "name": "",
          "type": "uint256"
        }
      ],
      "name": "tkURI",
      "outputs": [
        {
          "internalType": "string",
          "name": "",
          "type": "string"
        }
      ],
      "stateMutability": "view",
      "type": "function"
    },
    {
      "inputs": [
        {
          "internalType": "uint256",
          "name": "tokenId",
          "type": "uint256"
        }
      ],
      "name": "tokenURI",
      "outputs": [
        {
          "internalType": "string",
          "name": "",
          "type": "string"
        }
      ],
      "stateMutability": "view",
      "type": "function"
    },
    {
      "inputs": [
        {
          "internalType": "address",
          "name": "from",
          "type": "address"
        },
        {
          "internalType": "address",
          "name": "to",
          "type": "address"
        },
        {
          "internalType": "uint256",
          "name": "tokenId",
          "type": "uint256"
        }
      ],
      "name": "transferFrom",
      "outputs": [],
      "stateMutability": "nonpayable",
      "type": "function"
    },
    {
      "inputs": [
        {
          "internalType": "address",
          "name": "",
          "type": "address"
        },
        {
          "internalType": "uint256",
          "name": "",
          "type": "uint256"
        }
      ],
      "name": "usNotSig",
      "outputs": [
        {
          "internalType": "uint256",
          "name": "",
          "type": "uint256"
        }
      ],
      "stateMutability": "view",
      "type": "function"
    },
    {
      "inputs": [
        {
          "internalType": "address",
          "name": "",
          "type": "address"
        },
        {
          "internalType": "uint256",
          "name": "",
          "type": "uint256"
        }
      ],
      "name": "usRej",
      "outputs": [
        {
          "internalType": "uint256",
          "name": "",
          "type": "uint256"
        }
      ],
      "stateMutability": "view",
      "type": "function"
    },
    {
      "inputs": [
        {
          "internalType": "address",
          "name": "",
          "type": "address"
        },
        {
          "internalType": "uint256",
          "name": "",
          "type": "uint256"
        }
      ],
      "name": "usRejDoc",
      "outputs": [
        {
          "internalType": "uint256",
          "name": "",
          "type": "uint256"
        }
      ],
      "stateMutability": "view",
      "type": "function"
    },
    {
      "inputs": [
        {
          "internalType": "uint256",
          "name": "",
          "type": "uint256"
        }
      ],
      "name": "usRejDocIdx",
      "outputs": [
        {
          "internalType": "uint256",
          "name": "",
          "type": "uint256"
        }
      ],
      "stateMutability": "view",
      "type": "function"
    },
    {
      "inputs": [
        {
          "internalType": "address",
          "name": "",
          "type": "address"
        },
        {
          "internalType": "uint256",
          "name": "",
          "type": "uint256"
        }
      ],
      "name": "usSig",
      "outputs": [
        {
          "internalType": "uint256",
          "name": "",
          "type": "uint256"
        }
      ],
      "stateMutability": "view",
      "type": "function"
    },
    {
      "inputs": [
        {
          "internalType": "address",
          "name": "",
          "type": "address"
        },
        {
          "internalType": "uint256",
          "name": "",
          "type": "uint256"
        }
      ],
      "name": "usSigDoc",
      "outputs": [
        {
          "internalType": "uint256",
          "name": "",
          "type": "uint256"
        }
      ],
      "stateMutability": "view",
      "type": "function"
    },
    {
      "inputs": [
        {
          "internalType": "uint256",
          "name": "",
          "type": "uint256"
        }
      ],
      "name": "usSigDocIdx",
      "outputs": [
        {
          "internalType": "uint256",
          "name": "",
          "type": "uint256"
        }
      ],
      "stateMutability": "view",
      "type": "function"
    },
    {
      "inputs": [],
      "name": "totalSupply",
      "outputs": [
        {
          "internalType": "uint256",
          "name": "",
          "type": "uint256"
        }
      ],
      "stateMutability": "view",
      "type": "function"
    },
    {
      "inputs": [
        {
          "internalType": "address",
          "name": "recipient",
          "type": "address"
        },
        {
          "internalType": "string",
          "name": "_tokenURI",
          "type": "string"
        },
        {
          "internalType": "address[]",
          "name": "reviewerList",
          "type": "address[]"
        },
        {
          "internalType": "address[]",
          "name": "signerList",
          "type": "address[]"
        }
      ],
      "name": "mintNFT",
      "outputs": [
        {
          "internalType": "uint256",
          "name": "",
          "type": "uint256"
        }
      ],
      "stateMutability": "nonpayable",
      "type": "function"
    },
    {
      "inputs": [
        {
          "internalType": "uint256",
          "name": "tokenId",
          "type": "uint256"
        },
        {
          "internalType": "uint256",
          "name": "status",
          "type": "uint256"
        }
      ],
      "name": "review",
      "outputs": [],
      "stateMutability": "nonpayable",
      "type": "function"
    },
    {
      "inputs": [
        {
          "internalType": "uint256",
          "name": "tokenId",
          "type": "uint256"
        },
        {
          "internalType": "uint256",
          "name": "status",
          "type": "uint256"
        }
      ],
      "name": "sign",
      "outputs": [],
      "stateMutability": "nonpayable",
      "type": "function"
    },
    {
      "inputs": [
        {
          "internalType": "address",
          "name": "user",
          "type": "address"
        }
      ],
      "name": "getUserCollectionList",
      "outputs": [
        {
          "internalType": "uint256[]",
          "name": "",
          "type": "uint256[]"
        }
      ],
      "stateMutability": "view",
      "type": "function"
    },
    {
      "inputs": [
        {
          "internalType": "uint256",
          "name": "tokenId",
          "type": "uint256"
        }
      ],
      "name": "checkuserDocIdx",
      "outputs": [
        {
          "internalType": "uint256",
          "name": "",
          "type": "uint256"
        }
      ],
      "stateMutability": "view",
      "type": "function"
    },
    {
      "inputs": [
        {
          "internalType": "uint256",
          "name": "tokenId",
          "type": "uint256"
        },
        {
          "internalType": "address",
          "name": "user",
          "type": "address"
        }
      ],
      "name": "checkUserSignedStatus",
      "outputs": [
        {
          "internalType": "uint256",
          "name": "",
          "type": "uint256"
        }
      ],
      "stateMutability": "view",
      "type": "function"
    },
    {
      "inputs": [
        {
          "internalType": "uint256",
          "name": "tokenId",
          "type": "uint256"
        },
        {
          "internalType": "address",
          "name": "user",
          "type": "address"
        }
      ],
      "name": "checkUserSignedTime",
      "outputs": [
        {
          "internalType": "uint256",
          "name": "",
          "type": "uint256"
        }
      ],
      "stateMutability": "view",
      "type": "function"
    },
    {
      "inputs": [],
      "name": "getCurrentId",
      "outputs": [
        {
          "internalType": "uint256",
          "name": "",
          "type": "uint256"
        }
      ],
      "stateMutability": "view",
      "type": "function"
    },
    {
      "inputs": [
        {
          "internalType": "uint256",
          "name": "tokenId",
          "type": "uint256"
        }
      ],
      "name": "getOwnerAdd",
      "outputs": [
        {
          "internalType": "address",
          "name": "",
          "type": "address"
        }
      ],
      "stateMutability": "view",
      "type": "function"
    },
    {
      "inputs": [
        {
          "internalType": "uint256",
          "name": "tokenId",
          "type": "uint256"
        }
      ],
      "name": "getDocInfo",
      "outputs": [
        {
          "internalType": "string",
          "name": "",
          "type": "string"
        },
        {
          "internalType": "address[]",
          "name": "",
          "type": "address[]"
        },
        {
          "internalType": "address[]",
          "name": "",
          "type": "address[]"
        }
      ],
      "stateMutability": "view",
      "type": "function"
    },
    {
      "inputs": [],
      "name": "getUserNotSignedList",
      "outputs": [
        {
          "internalType": "uint256[]",
          "name": "",
          "type": "uint256[]"
        }
      ],
      "stateMutability": "view",
      "type": "function"
    },
    {
      "inputs": [],
      "name": "getUserSignedList",
      "outputs": [
        {
          "internalType": "uint256[]",
          "name": "",
          "type": "uint256[]"
        }
      ],
      "stateMutability": "view",
      "type": "function"
    },
    {
      "inputs": [],
      "name": "getUserRejectedList",
      "outputs": [
        {
          "internalType": "uint256[]",
          "name": "",
          "type": "uint256[]"
        }
      ],
      "stateMutability": "view",
      "type": "function"
    },
    {
      "inputs": [],
      "name": "getUserSignedDoc",
      "outputs": [
        {
          "internalType": "uint256[]",
          "name": "",
          "type": "uint256[]"
        }
      ],
      "stateMutability": "view",
      "type": "function"
    },
    {
      "inputs": [],
      "name": "getUserRejectedDoc",
      "outputs": [
        {
          "internalType": "uint256[]",
          "name": "",
          "type": "uint256[]"
        }
      ],
      "stateMutability": "view",
      "type": "function"
    }
  ],
  "bytecode": "0x60806040523480156200001157600080fd5b506040518060400160405280600581526020017f47726f6f6f0000000000000000000000000000000000000000000000000000008152506040518060400160405280600381526020017f446f63000000000000000000000000000000000000000000000000000000000081525081600090816200008f919062000324565b508060019081620000a1919062000324565b5050506200040b565b600081519050919050565b7f4e487b7100000000000000000000000000000000000000000000000000000000600052604160045260246000fd5b7f4e487b7100000000000000000000000000000000000000000000000000000000600052602260045260246000fd5b600060028204905060018216806200012c57607f821691505b602082108103620001425762000141620000e4565b5b50919050565b60008190508160005260206000209050919050565b60006020601f8301049050919050565b600082821b905092915050565b600060088302620001ac7fffffffffffffffffffffffffffffffffffffffffffffffffffffffffffffffff826200016d565b620001b886836200016d565b95508019841693508086168417925050509392505050565b6000819050919050565b6000819050919050565b600062000205620001ff620001f984620001d0565b620001da565b620001d0565b9050919050565b6000819050919050565b6200022183620001e4565b6200023962000230826200020c565b8484546200017a565b825550505050565b600090565b6200025062000241565b6200025d81848462000216565b505050565b5b8181101562000285576200027960008262000246565b60018101905062000263565b5050565b601f821115620002d4576200029e8162000148565b620002a9846200015d565b81016020851015620002b9578190505b620002d1620002c8856200015d565b83018262000262565b50505b505050565b600082821c905092915050565b6000620002f960001984600802620002d9565b1980831691505092915050565b6000620003148383620002e6565b9150826002028217905092915050565b6200032f82620000aa565b67ffffffffffffffff8111156200034b576200034a620000b5565b5b62000357825462000113565b6200036482828562000289565b600060209050601f8311600181146200039c576000841562000387578287015190505b62000393858262000306565b86555062000403565b601f198416620003ac8662000148565b60005b82811015620003d657848901518255600182019150602085019450602081019050620003af565b86831015620003f65784890151620003f2601f891682620002e6565b8355505b6001600288020188555050505b505050505050565b615afe806200041b6000396000f3fe608060405234801561001057600080fd5b50600436106102735760003560e01c8063a1b0664111610151578063c87b56dd116100c3578063dc49661111610087578063dc49661114610892578063df15ae8d146108ae578063e985e9c5146108de578063eba4106c1461090e578063edb463541461093e578063f5c009481461095c57610273565b8063c87b56dd146107a2578063c8c98c9b146107d2578063cff71b4c14610802578063d3aa6e8a14610832578063d9a530301461086257610273565b8063b53003ca11610115578063b53003ca146106bc578063b584a7d4146106d8578063b82fe16414610708578063b88d4fde14610738578063bd9ced6114610754578063bf32dd9c1461078457610273565b8063a1b06641146105f2578063a1f2f52814610622578063a22cb46514610640578063a2f7b5fb1461065c578063b18cee101461068c57610273565b806353fa4539116101ea57806370a08231116101ae57806370a08231146104e45780637ca795ef14610514578063833e617e14610544578063844027b21461057457806390e2726c146105a457806395d89b41146105d457610273565b806353fa45391461040457806354fb8755146104345780636138fede146104645780636352211e146104965780636c143862146104c657610273565b80630970a8821161023c5780630970a8821461033057806318160ddd1461034e57806323b872dd1461036c5780632432d2781461038857806335e160a9146103b857806342842e0e146103e857610273565b80620257f11461027857806301ffc9a71461029657806306fdde03146102c6578063081812fc146102e4578063095ea7b314610314575b600080fd5b61028061098c565b60405161028d91906141b3565b60405180910390f35b6102b060048036038101906102ab9190614241565b610a21565b6040516102bd9190614289565b60405180910390f35b6102ce610b03565b6040516102db9190614334565b60405180910390f35b6102fe60048036038101906102f99190614382565b610b95565b60405161030b91906143f0565b60405180910390f35b61032e60048036038101906103299190614437565b610c1a565b005b610338610d31565b60405161034591906141b3565b60405180910390f35b610356610dc6565b6040516103639190614486565b60405180910390f35b610386600480360381019061038191906144a1565b610dd7565b005b6103a2600480360381019061039d9190614437565b610e37565b6040516103af9190614486565b60405180910390f35b6103d260048036038101906103cd9190614382565b610e68565b6040516103df9190614486565b60405180910390f35b61040260048036038101906103fd91906144a1565b610e80565b005b61041e600480360381019061041991906144f4565b610ea0565b60405161042b9190614486565b60405180910390f35b61044e60048036038101906104499190614437565b610efb565b60405161045b9190614486565b60405180910390f35b61047e60048036038101906104799190614382565b610f2c565b60405161048d939291906145f2565b60405180910390f35b6104b060048036038101906104ab9190614382565b611113565b6040516104bd91906143f0565b60405180910390f35b6104ce6111c4565b6040516104db9190614486565b60405180910390f35b6104fe60048036038101906104f9919061463e565b6111d5565b60405161050b9190614486565b60405180910390f35b61052e60048036038101906105299190614437565b61128c565b60405161053b9190614486565b60405180910390f35b61055e60048036038101906105599190614437565b6112bd565b60405161056b9190614486565b60405180910390f35b61058e60048036038101906105899190614437565b6112e2565b60405161059b9190614486565b60405180910390f35b6105be60048036038101906105b9919061466b565b611307565b6040516105cb91906143f0565b60405180910390f35b6105dc611355565b6040516105e99190614334565b60405180910390f35b61060c60048036038101906106079190614382565b6113e7565b6040516106199190614334565b60405180910390f35b61062a611487565b60405161063791906141b3565b60405180910390f35b61065a600480360381019061065591906146d7565b61151c565b005b61067660048036038101906106719190614437565b611532565b6040516106839190614486565b60405180910390f35b6106a660048036038101906106a19190614382565b611563565b6040516106b39190614486565b60405180910390f35b6106d660048036038101906106d1919061466b565b61157b565b005b6106f260048036038101906106ed9190614382565b611f01565b6040516106ff9190614486565b60405180910390f35b610722600480360381019061071d919061463e565b611f19565b60405161072f91906141b3565b60405180910390f35b610752600480360381019061074d919061484c565b611fb0565b005b61076e60048036038101906107699190614437565b612012565b60405161077b9190614486565b60405180910390f35b61078c612043565b60405161079991906141b3565b60405180910390f35b6107bc60048036038101906107b79190614382565b6120d8565b6040516107c99190614334565b60405180910390f35b6107ec60048036038101906107e79190614437565b612229565b6040516107f99190614486565b60405180910390f35b61081c600480360381019061081791906144f4565b61224e565b6040516108299190614486565b60405180910390f35b61084c60048036038101906108479190614437565b6122a9565b6040516108599190614486565b60405180910390f35b61087c60048036038101906108779190614382565b6122da565b60405161088991906143f0565b60405180910390f35b6108ac60048036038101906108a7919061466b565b612317565b005b6108c860048036038101906108c39190614a38565b612c9d565b6040516108d59190614486565b60405180910390f35b6108f860048036038101906108f39190614af3565b6133ee565b6040516109059190614289565b60405180910390f35b61092860048036038101906109239190614382565b613482565b6040516109359190614486565b60405180910390f35b61094661349f565b60405161095391906141b3565b60405180910390f35b6109766004803603810190610971919061466b565b613534565b60405161098391906143f0565b60405180910390f35b6060601b60003373ffffffffffffffffffffffffffffffffffffffff1673ffffffffffffffffffffffffffffffffffffffff168152602001908152602001600020805480602002602001604051908101604052809291908181526020018280548015610a1757602002820191906000526020600020905b815481526020019060010190808311610a03575b5050505050905090565b60007f80ac58cd000000000000000000000000000000000000000000000000000000007bffffffffffffffffffffffffffffffffffffffffffffffffffffffff1916827bffffffffffffffffffffffffffffffffffffffffffffffffffffffff19161480610aec57507f5b5e139f000000000000000000000000000000000000000000000000000000007bffffffffffffffffffffffffffffffffffffffffffffffffffffffff1916827bffffffffffffffffffffffffffffffffffffffffffffffffffffffff1916145b80610afc5750610afb82613582565b5b9050919050565b606060008054610b1290614b62565b80601f0160208091040260200160405190810160405280929190818152602001828054610b3e90614b62565b8015610b8b5780601f10610b6057610100808354040283529160200191610b8b565b820191906000526020600020905b815481529060010190602001808311610b6e57829003601f168201915b5050505050905090565b6000610ba0826135ec565b610bdf576040517f08c379a0000000000000000000000000000000000000000000000000000000008152600401610bd690614c05565b60405180910390fd5b6004600083815260200190815260200160002060009054906101000a900473ffffffffffffffffffffffffffffffffffffffff169050919050565b6000610c2582611113565b90508073ffffffffffffffffffffffffffffffffffffffff168373ffffffffffffffffffffffffffffffffffffffff1603610c95576040517f08c379a0000000000000000000000000000000000000000000000000000000008152600401610c8c90614c97565b60405180910390fd5b8073ffffffffffffffffffffffffffffffffffffffff16610cb4613658565b73ffffffffffffffffffffffffffffffffffffffff161480610ce35750610ce281610cdd613658565b6133ee565b5b610d22576040517f08c379a0000000000000000000000000000000000000000000000000000000008152600401610d1990614d29565b60405180910390fd5b610d2c8383613660565b505050565b6060601760003373ffffffffffffffffffffffffffffffffffffffff1673ffffffffffffffffffffffffffffffffffffffff168152602001908152602001600020805480602002602001604051908101604052809291908181526020018280548015610dbc57602002820191906000526020600020905b815481526020019060010190808311610da8575b5050505050905090565b6000610dd26007613719565b905090565b610de8610de2613658565b82613727565b610e27576040517f08c379a0000000000000000000000000000000000000000000000000000000008152600401610e1e90614dbb565b60405180910390fd5b610e32838383613805565b505050565b60196020528160005260406000208181548110610e5357600080fd5b90600052602060002001600091509150505481565b60146020528060005260406000206000915090505481565b610e9b83838360405180602001604052806000815250611fb0565b505050565b60006010600084815260200190815260200160002060008373ffffffffffffffffffffffffffffffffffffffff1673ffffffffffffffffffffffffffffffffffffffff16815260200190815260200160002054905092915050565b60116020528160005260406000208181548110610f1757600080fd5b90600052602060002001600091509150505481565b6060806060601f6000858152602001908152602001600020601e6000868152602001908152602001600020601d6000878152602001908152602001600020828054610f7690614b62565b80601f0160208091040260200160405190810160405280929190818152602001828054610fa290614b62565b8015610fef5780601f10610fc457610100808354040283529160200191610fef565b820191906000526020600020905b815481529060010190602001808311610fd257829003601f168201915b505050505092508180548060200260200160405190810160405280929190818152602001828054801561107757602002820191906000526020600020905b8160009054906101000a900473ffffffffffffffffffffffffffffffffffffffff1673ffffffffffffffffffffffffffffffffffffffff168152602001906001019080831161102d575b50505050509150808054806020026020016040519081016040528092919081815260200182805480156110ff57602002820191906000526020600020905b8160009054906101000a900473ffffffffffffffffffffffffffffffffffffffff1673ffffffffffffffffffffffffffffffffffffffff16815260200190600101908083116110b5575b505050505090509250925092509193909250565b6000806002600084815260200190815260200160002060009054906101000a900473ffffffffffffffffffffffffffffffffffffffff169050600073ffffffffffffffffffffffffffffffffffffffff168173ffffffffffffffffffffffffffffffffffffffff16036111bb576040517f08c379a00000000000000000000000000000000000000000000000000000000081526004016111b290614e4d565b60405180910390fd5b80915050919050565b60006111d06007613719565b905090565b60008073ffffffffffffffffffffffffffffffffffffffff168273ffffffffffffffffffffffffffffffffffffffff1603611245576040517f08c379a000000000000000000000000000000000000000000000000000000000815260040161123c90614edf565b60405180910390fd5b600360008373ffffffffffffffffffffffffffffffffffffffff1673ffffffffffffffffffffffffffffffffffffffff168152602001908152602001600020549050919050565b601360205281600052604060002081815481106112a857600080fd5b90600052602060002001600091509150505481565b601a602052816000526040600020602052806000526040600020600091509150505481565b601c602052816000526040600020602052806000526040600020600091509150505481565b601e602052816000526040600020818154811061132357600080fd5b906000526020600020016000915091509054906101000a900473ffffffffffffffffffffffffffffffffffffffff1681565b60606001805461136490614b62565b80601f016020809104026020016040519081016040528092919081815260200182805461139090614b62565b80156113dd5780601f106113b2576101008083540402835291602001916113dd565b820191906000526020600020905b8154815290600101906020018083116113c057829003601f168201915b5050505050905090565b601f602052806000526040600020600091509050805461140690614b62565b80601f016020809104026020016040519081016040528092919081815260200182805461143290614b62565b801561147f5780601f106114545761010080835404028352916020019161147f565b820191906000526020600020905b81548152906001019060200180831161146257829003601f168201915b505050505081565b6060601360003373ffffffffffffffffffffffffffffffffffffffff1673ffffffffffffffffffffffffffffffffffffffff16815260200190815260200160002080548060200260200160405190810160405280929190818152602001828054801561151257602002820191906000526020600020905b8154815260200190600101908083116114fe575b5050505050905090565b61152e611527613658565b838361384e565b5050565b601b602052816000526040600020818154811061154e57600080fd5b90600052602060002001600091509150505481565b60126020528060005260406000206000915090505481565b816001600a600083815260200190815260200160002060003373ffffffffffffffffffffffffffffffffffffffff1673ffffffffffffffffffffffffffffffffffffffff168152602001908152602001600020541461160f576040517f08c379a000000000000000000000000000000000000000000000000000000000815260040161160690614f4b565b60405180910390fd5b826000600f600083815260200190815260200160002060003373ffffffffffffffffffffffffffffffffffffffff1673ffffffffffffffffffffffffffffffffffffffff16815260200190815260200160002054146116a3576040517f08c379a000000000000000000000000000000000000000000000000000000000815260040161169a90614fb7565b60405180910390fd5b83336000600e600084815260200190815260200160002060008373ffffffffffffffffffffffffffffffffffffffff1673ffffffffffffffffffffffffffffffffffffffff168152602001908152602001600020549050600080820361170c57600190506117ec565b60008060005b848110156117e857600d6000888152602001908152602001600020600082815260200190815260200160002060009054906101000a900473ffffffffffffffffffffffffffffffffffffffff169250600f600088815260200190815260200160002060008473ffffffffffffffffffffffffffffffffffffffff1673ffffffffffffffffffffffffffffffffffffffff16815260200190815260200160002054915060008214806117c35750600382145b156117d157600093506117e8565b6001935080806117e090615006565b915050611712565b5050505b6001811461182f576040517f08c379a00000000000000000000000000000000000000000000000000000000081526004016118269061509a565b60405180910390fd5b42601060008a815260200190815260200160002060003373ffffffffffffffffffffffffffffffffffffffff1673ffffffffffffffffffffffffffffffffffffffff168152602001908152602001600020819055506000601860003373ffffffffffffffffffffffffffffffffffffffff1673ffffffffffffffffffffffffffffffffffffffff16815260200190815260200160002060008a81526020019081526020016000205490506000601760003373ffffffffffffffffffffffffffffffffffffffff1673ffffffffffffffffffffffffffffffffffffffff1681526020019081526020016000206001601760003373ffffffffffffffffffffffffffffffffffffffff1673ffffffffffffffffffffffffffffffffffffffff1681526020019081526020016000208054905061196991906150ba565b8154811061197a576119796150ee565b5b9060005260206000200154905080601760003373ffffffffffffffffffffffffffffffffffffffff1673ffffffffffffffffffffffffffffffffffffffff16815260200190815260200160002083815481106119d9576119d86150ee565b5b9060005260206000200181905550601760003373ffffffffffffffffffffffffffffffffffffffff1673ffffffffffffffffffffffffffffffffffffffff168152602001908152602001600020805480611a3657611a3561511d565b5b6001900381819060005260206000200160009055905581601860003373ffffffffffffffffffffffffffffffffffffffff1673ffffffffffffffffffffffffffffffffffffffff16815260200190815260200160002060008381526020019081526020016000208190555060008903611cd1576003600f60008c815260200190815260200160002060003373ffffffffffffffffffffffffffffffffffffffff1673ffffffffffffffffffffffffffffffffffffffff16815260200190815260200160002081905550601b60003373ffffffffffffffffffffffffffffffffffffffff1673ffffffffffffffffffffffffffffffffffffffff16815260200190815260200160002080549050601c60003373ffffffffffffffffffffffffffffffffffffffff1673ffffffffffffffffffffffffffffffffffffffff16815260200190815260200160002060008c815260200190815260200160002081905550601b60003373ffffffffffffffffffffffffffffffffffffffff1673ffffffffffffffffffffffffffffffffffffffff1681526020019081526020016000208a908060018154018082558091505060019003906000526020600020016000909190919091505560156000611c098c6122da565b73ffffffffffffffffffffffffffffffffffffffff1673ffffffffffffffffffffffffffffffffffffffff16815260200190815260200160002080549050601660008c81526020019081526020016000208190555060156000611c6b8c6122da565b73ffffffffffffffffffffffffffffffffffffffff1673ffffffffffffffffffffffffffffffffffffffff1681526020019081526020016000208a9080600181540180825580915050600190039060005260206000200160009091909190915055611ef5565b6002600f60008c815260200190815260200160002060003373ffffffffffffffffffffffffffffffffffffffff1673ffffffffffffffffffffffffffffffffffffffff16815260200190815260200160002081905550601960003373ffffffffffffffffffffffffffffffffffffffff1673ffffffffffffffffffffffffffffffffffffffff16815260200190815260200160002080549050601a60003373ffffffffffffffffffffffffffffffffffffffff1673ffffffffffffffffffffffffffffffffffffffff16815260200190815260200160002060008c815260200190815260200160002081905550601960003373ffffffffffffffffffffffffffffffffffffffff1673ffffffffffffffffffffffffffffffffffffffff1681526020019081526020016000208a908060018154018082558091505060019003906000526020600020016000909190919091505560136000611e318c6122da565b73ffffffffffffffffffffffffffffffffffffffff1673ffffffffffffffffffffffffffffffffffffffff16815260200190815260200160002080549050601460008c81526020019081526020016000208190555060136000611e938c6122da565b73ffffffffffffffffffffffffffffffffffffffff1673ffffffffffffffffffffffffffffffffffffffff1681526020019081526020016000208a90806001815401808255809150506001900390600052602060002001600090919091909150555b50505050505050505050565b60166020528060005260406000206000915090505481565b6060601160008373ffffffffffffffffffffffffffffffffffffffff1673ffffffffffffffffffffffffffffffffffffffff168152602001908152602001600020805480602002602001604051908101604052809291908181526020018280548015611fa457602002820191906000526020600020905b815481526020019060010190808311611f90575b50505050509050919050565b611fc1611fbb613658565b83613727565b612000576040517f08c379a0000000000000000000000000000000000000000000000000000000008152600401611ff790614dbb565b60405180910390fd5b61200c848484846139ba565b50505050565b6017602052816000526040600020818154811061202e57600080fd5b90600052602060002001600091509150505481565b6060601560003373ffffffffffffffffffffffffffffffffffffffff1673ffffffffffffffffffffffffffffffffffffffff1681526020019081526020016000208054806020026020016040519081016040528092919081815260200182805480156120ce57602002820191906000526020600020905b8154815260200190600101908083116120ba575b5050505050905090565b60606120e3826135ec565b612122576040517f08c379a0000000000000000000000000000000000000000000000000000000008152600401612119906151be565b60405180910390fd5b600060066000848152602001908152602001600020805461214290614b62565b80601f016020809104026020016040519081016040528092919081815260200182805461216e90614b62565b80156121bb5780601f10612190576101008083540402835291602001916121bb565b820191906000526020600020905b81548152906001019060200180831161219e57829003601f168201915b5050505050905060006121cc613a16565b905060008151036121e1578192505050612224565b6000825111156122165780826040516020016121fe92919061521a565b60405160208183030381529060405292505050612224565b61221f84613a2d565b925050505b919050565b6018602052816000526040600020602052806000526040600020600091509150505481565b6000600f600084815260200190815260200160002060008373ffffffffffffffffffffffffffffffffffffffff1673ffffffffffffffffffffffffffffffffffffffff16815260200190815260200160002054905092915050565b601560205281600052604060002081815481106122c557600080fd5b90600052602060002001600091509150505481565b60006008600083815260200190815260200160002060009054906101000a900473ffffffffffffffffffffffffffffffffffffffff169050919050565b8160016009600083815260200190815260200160002060003373ffffffffffffffffffffffffffffffffffffffff1673ffffffffffffffffffffffffffffffffffffffff16815260200190815260200160002054146123ab576040517f08c379a00000000000000000000000000000000000000000000000000000000081526004016123a29061528a565b60405180910390fd5b826000600f600083815260200190815260200160002060003373ffffffffffffffffffffffffffffffffffffffff1673ffffffffffffffffffffffffffffffffffffffff168152602001908152602001600020541461243f576040517f08c379a000000000000000000000000000000000000000000000000000000000815260040161243690614fb7565b60405180910390fd5b83336000600c600084815260200190815260200160002060008373ffffffffffffffffffffffffffffffffffffffff1673ffffffffffffffffffffffffffffffffffffffff16815260200190815260200160002054905060008082036124a85760019050612588565b60008060005b8481101561258457600b6000888152602001908152602001600020600082815260200190815260200160002060009054906101000a900473ffffffffffffffffffffffffffffffffffffffff169250600f600088815260200190815260200160002060008473ffffffffffffffffffffffffffffffffffffffff1673ffffffffffffffffffffffffffffffffffffffff168152602001908152602001600020549150600082148061255f5750600382145b1561256d5760009350612584565b60019350808061257c90615006565b9150506124ae565b5050505b600181146125cb576040517f08c379a00000000000000000000000000000000000000000000000000000000081526004016125c29061509a565b60405180910390fd5b42601060008a815260200190815260200160002060003373ffffffffffffffffffffffffffffffffffffffff1673ffffffffffffffffffffffffffffffffffffffff168152602001908152602001600020819055506000601860003373ffffffffffffffffffffffffffffffffffffffff1673ffffffffffffffffffffffffffffffffffffffff16815260200190815260200160002060008a81526020019081526020016000205490506000601760003373ffffffffffffffffffffffffffffffffffffffff1673ffffffffffffffffffffffffffffffffffffffff1681526020019081526020016000206001601760003373ffffffffffffffffffffffffffffffffffffffff1673ffffffffffffffffffffffffffffffffffffffff1681526020019081526020016000208054905061270591906150ba565b81548110612716576127156150ee565b5b9060005260206000200154905080601760003373ffffffffffffffffffffffffffffffffffffffff1673ffffffffffffffffffffffffffffffffffffffff1681526020019081526020016000208381548110612775576127746150ee565b5b9060005260206000200181905550601760003373ffffffffffffffffffffffffffffffffffffffff1673ffffffffffffffffffffffffffffffffffffffff1681526020019081526020016000208054806127d2576127d161511d565b5b6001900381819060005260206000200160009055905581601860003373ffffffffffffffffffffffffffffffffffffffff1673ffffffffffffffffffffffffffffffffffffffff16815260200190815260200160002060008381526020019081526020016000208190555060008903612a6d576003600f60008c815260200190815260200160002060003373ffffffffffffffffffffffffffffffffffffffff1673ffffffffffffffffffffffffffffffffffffffff16815260200190815260200160002081905550601b60003373ffffffffffffffffffffffffffffffffffffffff1673ffffffffffffffffffffffffffffffffffffffff16815260200190815260200160002080549050601c60003373ffffffffffffffffffffffffffffffffffffffff1673ffffffffffffffffffffffffffffffffffffffff16815260200190815260200160002060008c815260200190815260200160002081905550601b60003373ffffffffffffffffffffffffffffffffffffffff1673ffffffffffffffffffffffffffffffffffffffff1681526020019081526020016000208a9080600181540180825580915050600190039060005260206000200160009091909190915055601560006129a58c6122da565b73ffffffffffffffffffffffffffffffffffffffff1673ffffffffffffffffffffffffffffffffffffffff16815260200190815260200160002080549050601660008c81526020019081526020016000208190555060156000612a078c6122da565b73ffffffffffffffffffffffffffffffffffffffff1673ffffffffffffffffffffffffffffffffffffffff1681526020019081526020016000208a9080600181540180825580915050600190039060005260206000200160009091909190915055612c91565b6001600f60008c815260200190815260200160002060003373ffffffffffffffffffffffffffffffffffffffff1673ffffffffffffffffffffffffffffffffffffffff16815260200190815260200160002081905550601960003373ffffffffffffffffffffffffffffffffffffffff1673ffffffffffffffffffffffffffffffffffffffff16815260200190815260200160002080549050601a60003373ffffffffffffffffffffffffffffffffffffffff1673ffffffffffffffffffffffffffffffffffffffff16815260200190815260200160002060008c815260200190815260200160002081905550601960003373ffffffffffffffffffffffffffffffffffffffff1673ffffffffffffffffffffffffffffffffffffffff1681526020019081526020016000208a908060018154018082558091505060019003906000526020600020016000909190919091505560136000612bcd8c6122da565b73ffffffffffffffffffffffffffffffffffffffff1673ffffffffffffffffffffffffffffffffffffffff16815260200190815260200160002080549050601460008c81526020019081526020016000208190555060136000612c2f8c6122da565b73ffffffffffffffffffffffffffffffffffffffff1673ffffffffffffffffffffffffffffffffffffffff1681526020019081526020016000208a90806001815401808255809150506001900390600052602060002001600090919091909150555b50505050505050505050565b6000612ca96007613ad4565b6000612cb56007613719565b9050612cc18682613aea565b612ccb8186613cc3565b336008600083815260200190815260200160002060006101000a81548173ffffffffffffffffffffffffffffffffffffffff021916908373ffffffffffffffffffffffffffffffffffffffff1602179055506000601160008873ffffffffffffffffffffffffffffffffffffffff1673ffffffffffffffffffffffffffffffffffffffff168152602001908152602001600020805490509050806012600084815260200190815260200160002081905550601160008873ffffffffffffffffffffffffffffffffffffffff1673ffffffffffffffffffffffffffffffffffffffff16815260200190815260200160002082908060018154018082558091505060019003906000526020600020016000909190919091505585601f60008481526020019081526020016000209081612e029190615456565b5083601d60008481526020019081526020016000209080519060200190612e2a929190614044565b5084601e60008481526020019081526020016000209080519060200190612e52929190614044565b5060005b8551811015613119576001600960008581526020019081526020016000206000888481518110612e8957612e886150ee565b5b602002602001015173ffffffffffffffffffffffffffffffffffffffff1673ffffffffffffffffffffffffffffffffffffffff16815260200190815260200160002081905550858181518110612ee257612ee16150ee565b5b6020026020010151600b6000858152602001908152602001600020600083815260200190815260200160002060006101000a81548173ffffffffffffffffffffffffffffffffffffffff021916908373ffffffffffffffffffffffffffffffffffffffff16021790555080600c60008581526020019081526020016000206000888481518110612f7557612f746150ee565b5b602002602001015173ffffffffffffffffffffffffffffffffffffffff1673ffffffffffffffffffffffffffffffffffffffff1681526020019081526020016000208190555060176000878381518110612fd257612fd16150ee565b5b602002602001015173ffffffffffffffffffffffffffffffffffffffff1673ffffffffffffffffffffffffffffffffffffffff168152602001908152602001600020805490506018600088848151811061302f5761302e6150ee565b5b602002602001015173ffffffffffffffffffffffffffffffffffffffff1673ffffffffffffffffffffffffffffffffffffffff1681526020019081526020016000206000858152602001908152602001600020819055506017600087838151811061309d5761309c6150ee565b5b602002602001015173ffffffffffffffffffffffffffffffffffffffff1673ffffffffffffffffffffffffffffffffffffffff168152602001908152602001600020839080600181540180825580915050600190039060005260206000200160009091909190915055808061311190615006565b915050612e56565b5060005b84518110156133e0576001600a600085815260200190815260200160002060008784815181106131505761314f6150ee565b5b602002602001015173ffffffffffffffffffffffffffffffffffffffff1673ffffffffffffffffffffffffffffffffffffffff168152602001908152602001600020819055508481815181106131a9576131a86150ee565b5b6020026020010151600d6000858152602001908152602001600020600083815260200190815260200160002060006101000a81548173ffffffffffffffffffffffffffffffffffffffff021916908373ffffffffffffffffffffffffffffffffffffffff16021790555080600e6000858152602001908152602001600020600087848151811061323c5761323b6150ee565b5b602002602001015173ffffffffffffffffffffffffffffffffffffffff1673ffffffffffffffffffffffffffffffffffffffff1681526020019081526020016000208190555060176000868381518110613299576132986150ee565b5b602002602001015173ffffffffffffffffffffffffffffffffffffffff1673ffffffffffffffffffffffffffffffffffffffff16815260200190815260200160002080549050601860008784815181106132f6576132f56150ee565b5b602002602001015173ffffffffffffffffffffffffffffffffffffffff1673ffffffffffffffffffffffffffffffffffffffff16815260200190815260200160002060008581526020019081526020016000208190555060176000868381518110613364576133636150ee565b5b602002602001015173ffffffffffffffffffffffffffffffffffffffff1673ffffffffffffffffffffffffffffffffffffffff16815260200190815260200160002083908060018154018082558091505060019003906000526020600020016000909190919091505580806133d890615006565b91505061311d565b508192505050949350505050565b6000600560008473ffffffffffffffffffffffffffffffffffffffff1673ffffffffffffffffffffffffffffffffffffffff16815260200190815260200160002060008373ffffffffffffffffffffffffffffffffffffffff1673ffffffffffffffffffffffffffffffffffffffff16815260200190815260200160002060009054906101000a900460ff16905092915050565b600060126000838152602001908152602001600020549050919050565b6060601960003373ffffffffffffffffffffffffffffffffffffffff1673ffffffffffffffffffffffffffffffffffffffff16815260200190815260200160002080548060200260200160405190810160405280929190818152602001828054801561352a57602002820191906000526020600020905b815481526020019060010190808311613516575b5050505050905090565b601d602052816000526040600020818154811061355057600080fd5b906000526020600020016000915091509054906101000a900473ffffffffffffffffffffffffffffffffffffffff1681565b60007f01ffc9a7000000000000000000000000000000000000000000000000000000007bffffffffffffffffffffffffffffffffffffffffffffffffffffffff1916827bffffffffffffffffffffffffffffffffffffffffffffffffffffffff1916149050919050565b60008073ffffffffffffffffffffffffffffffffffffffff166002600084815260200190815260200160002060009054906101000a900473ffffffffffffffffffffffffffffffffffffffff1673ffffffffffffffffffffffffffffffffffffffff1614159050919050565b600033905090565b816004600083815260200190815260200160002060006101000a81548173ffffffffffffffffffffffffffffffffffffffff021916908373ffffffffffffffffffffffffffffffffffffffff160217905550808273ffffffffffffffffffffffffffffffffffffffff166136d383611113565b73ffffffffffffffffffffffffffffffffffffffff167f8c5be1e5ebec7d5bd14f71427d1e84f3dd0314c0f7b2291e5b200ac8c7c3b92560405160405180910390a45050565b600081600001549050919050565b6000613732826135ec565b613771576040517f08c379a00000000000000000000000000000000000000000000000000000000081526004016137689061559a565b60405180910390fd5b600061377c83611113565b90508073ffffffffffffffffffffffffffffffffffffffff168473ffffffffffffffffffffffffffffffffffffffff1614806137eb57508373ffffffffffffffffffffffffffffffffffffffff166137d384610b95565b73ffffffffffffffffffffffffffffffffffffffff16145b806137fc57506137fb81856133ee565b5b91505092915050565b6000600114613849576040517f08c379a000000000000000000000000000000000000000000000000000000000815260040161384090615606565b60405180910390fd5b505050565b8173ffffffffffffffffffffffffffffffffffffffff168373ffffffffffffffffffffffffffffffffffffffff16036138bc576040517f08c379a00000000000000000000000000000000000000000000000000000000081526004016138b390615672565b60405180910390fd5b80600560008573ffffffffffffffffffffffffffffffffffffffff1673ffffffffffffffffffffffffffffffffffffffff16815260200190815260200160002060008473ffffffffffffffffffffffffffffffffffffffff1673ffffffffffffffffffffffffffffffffffffffff16815260200190815260200160002060006101000a81548160ff0219169083151502179055508173ffffffffffffffffffffffffffffffffffffffff168373ffffffffffffffffffffffffffffffffffffffff167f17307eab39ab6107e8899845ad3d59bd9653f200f220920489ca2b5937696c31836040516139ad9190614289565b60405180910390a3505050565b6139c5848484613805565b6139d184848484613d30565b613a10576040517f08c379a0000000000000000000000000000000000000000000000000000000008152600401613a0790615704565b60405180910390fd5b50505050565b606060405180602001604052806000815250905090565b6060613a38826135ec565b613a77576040517f08c379a0000000000000000000000000000000000000000000000000000000008152600401613a6e90615796565b60405180910390fd5b6000613a81613a16565b90506000815111613aa15760405180602001604052806000815250613acc565b80613aab84613eb7565b604051602001613abc92919061521a565b6040516020818303038152906040525b915050919050565b6001816000016000828254019250508190555050565b600073ffffffffffffffffffffffffffffffffffffffff168273ffffffffffffffffffffffffffffffffffffffff1603613b59576040517f08c379a0000000000000000000000000000000000000000000000000000000008152600401613b5090615802565b60405180910390fd5b613b62816135ec565b15613ba2576040517f08c379a0000000000000000000000000000000000000000000000000000000008152600401613b999061586e565b60405180910390fd5b613bae60008383614017565b6001600360008473ffffffffffffffffffffffffffffffffffffffff1673ffffffffffffffffffffffffffffffffffffffff1681526020019081526020016000206000828254613bfe919061588e565b92505081905550816002600083815260200190815260200160002060006101000a81548173ffffffffffffffffffffffffffffffffffffffff021916908373ffffffffffffffffffffffffffffffffffffffff160217905550808273ffffffffffffffffffffffffffffffffffffffff16600073ffffffffffffffffffffffffffffffffffffffff167fddf252ad1be2c89b69c2b068fc378daa952ba7f163c4a11628f55a4df523b3ef60405160405180910390a4613cbf6000838361401c565b5050565b613ccc826135ec565b613d0b576040517f08c379a0000000000000000000000000000000000000000000000000000000008152600401613d0290615934565b60405180910390fd5b80600660008481526020019081526020016000209081613d2b9190615456565b505050565b6000613d518473ffffffffffffffffffffffffffffffffffffffff16614021565b15613eaa578373ffffffffffffffffffffffffffffffffffffffff1663150b7a02613d7a613658565b8786866040518563ffffffff1660e01b8152600401613d9c94939291906159a9565b6020604051808303816000875af1925050508015613dd857506040513d601f19601f82011682018060405250810190613dd59190615a0a565b60015b613e5a573d8060008114613e08576040519150601f19603f3d011682016040523d82523d6000602084013e613e0d565b606091505b506000815103613e52576040517f08c379a0000000000000000000000000000000000000000000000000000000008152600401613e4990615704565b60405180910390fd5b805181602001fd5b63150b7a0260e01b7bffffffffffffffffffffffffffffffffffffffffffffffffffffffff1916817bffffffffffffffffffffffffffffffffffffffffffffffffffffffff191614915050613eaf565b600190505b949350505050565b606060008203613efe576040518060400160405280600181526020017f30000000000000000000000000000000000000000000000000000000000000008152509050614012565b600082905060005b60008214613f30578080613f1990615006565b915050600a82613f299190615a66565b9150613f06565b60008167ffffffffffffffff811115613f4c57613f4b614721565b5b6040519080825280601f01601f191660200182016040528015613f7e5781602001600182028036833780820191505090505b5090505b6000851461400b57600182613f9791906150ba565b9150600a85613fa69190615a97565b6030613fb2919061588e565b60f81b818381518110613fc857613fc76150ee565b5b60200101907effffffffffffffffffffffffffffffffffffffffffffffffffffffffffffff1916908160001a905350600a856140049190615a66565b9450613f82565b8093505050505b919050565b505050565b505050565b6000808273ffffffffffffffffffffffffffffffffffffffff163b119050919050565b8280548282559060005260206000209081019282156140bd579160200282015b828111156140bc5782518260006101000a81548173ffffffffffffffffffffffffffffffffffffffff021916908373ffffffffffffffffffffffffffffffffffffffff16021790555091602001919060010190614064565b5b5090506140ca91906140ce565b5090565b5b808211156140e75760008160009055506001016140cf565b5090565b600081519050919050565b600082825260208201905092915050565b6000819050602082019050919050565b6000819050919050565b61412a81614117565b82525050565b600061413c8383614121565b60208301905092915050565b6000602082019050919050565b6000614160826140eb565b61416a81856140f6565b935061417583614107565b8060005b838110156141a657815161418d8882614130565b975061419883614148565b925050600181019050614179565b5085935050505092915050565b600060208201905081810360008301526141cd8184614155565b905092915050565b6000604051905090565b600080fd5b600080fd5b60007fffffffff0000000000000000000000000000000000000000000000000000000082169050919050565b61421e816141e9565b811461422957600080fd5b50565b60008135905061423b81614215565b92915050565b600060208284031215614257576142566141df565b5b60006142658482850161422c565b91505092915050565b60008115159050919050565b6142838161426e565b82525050565b600060208201905061429e600083018461427a565b92915050565b600081519050919050565b600082825260208201905092915050565b60005b838110156142de5780820151818401526020810190506142c3565b60008484015250505050565b6000601f19601f8301169050919050565b6000614306826142a4565b61431081856142af565b93506143208185602086016142c0565b614329816142ea565b840191505092915050565b6000602082019050818103600083015261434e81846142fb565b905092915050565b61435f81614117565b811461436a57600080fd5b50565b60008135905061437c81614356565b92915050565b600060208284031215614398576143976141df565b5b60006143a68482850161436d565b91505092915050565b600073ffffffffffffffffffffffffffffffffffffffff82169050919050565b60006143da826143af565b9050919050565b6143ea816143cf565b82525050565b600060208201905061440560008301846143e1565b92915050565b614414816143cf565b811461441f57600080fd5b50565b6000813590506144318161440b565b92915050565b6000806040838503121561444e5761444d6141df565b5b600061445c85828601614422565b925050602061446d8582860161436d565b9150509250929050565b61448081614117565b82525050565b600060208201905061449b6000830184614477565b92915050565b6000806000606084860312156144ba576144b96141df565b5b60006144c886828701614422565b93505060206144d986828701614422565b92505060406144ea8682870161436d565b9150509250925092565b6000806040838503121561450b5761450a6141df565b5b60006145198582860161436d565b925050602061452a85828601614422565b9150509250929050565b600081519050919050565b600082825260208201905092915050565b6000819050602082019050919050565b614569816143cf565b82525050565b600061457b8383614560565b60208301905092915050565b6000602082019050919050565b600061459f82614534565b6145a9818561453f565b93506145b483614550565b8060005b838110156145e55781516145cc888261456f565b97506145d783614587565b9250506001810190506145b8565b5085935050505092915050565b6000606082019050818103600083015261460c81866142fb565b905081810360208301526146208185614594565b905081810360408301526146348184614594565b9050949350505050565b600060208284031215614654576146536141df565b5b600061466284828501614422565b91505092915050565b60008060408385031215614682576146816141df565b5b60006146908582860161436d565b92505060206146a18582860161436d565b9150509250929050565b6146b48161426e565b81146146bf57600080fd5b50565b6000813590506146d1816146ab565b92915050565b600080604083850312156146ee576146ed6141df565b5b60006146fc85828601614422565b925050602061470d858286016146c2565b9150509250929050565b600080fd5b600080fd5b7f4e487b7100000000000000000000000000000000000000000000000000000000600052604160045260246000fd5b614759826142ea565b810181811067ffffffffffffffff8211171561477857614777614721565b5b80604052505050565b600061478b6141d5565b90506147978282614750565b919050565b600067ffffffffffffffff8211156147b7576147b6614721565b5b6147c0826142ea565b9050602081019050919050565b82818337600083830152505050565b60006147ef6147ea8461479c565b614781565b90508281526020810184848401111561480b5761480a61471c565b5b6148168482856147cd565b509392505050565b600082601f83011261483357614832614717565b5b81356148438482602086016147dc565b91505092915050565b60008060008060808587031215614866576148656141df565b5b600061487487828801614422565b945050602061488587828801614422565b93505060406148968782880161436d565b925050606085013567ffffffffffffffff8111156148b7576148b66141e4565b5b6148c38782880161481e565b91505092959194509250565b600067ffffffffffffffff8211156148ea576148e9614721565b5b6148f3826142ea565b9050602081019050919050565b600061491361490e846148cf565b614781565b90508281526020810184848401111561492f5761492e61471c565b5b61493a8482856147cd565b509392505050565b600082601f83011261495757614956614717565b5b8135614967848260208601614900565b91505092915050565b600067ffffffffffffffff82111561498b5761498a614721565b5b602082029050602081019050919050565b600080fd5b60006149b46149af84614970565b614781565b905080838252602082019050602084028301858111156149d7576149d661499c565b5b835b81811015614a0057806149ec8882614422565b8452602084019350506020810190506149d9565b5050509392505050565b600082601f830112614a1f57614a1e614717565b5b8135614a2f8482602086016149a1565b91505092915050565b60008060008060808587031215614a5257614a516141df565b5b6000614a6087828801614422565b945050602085013567ffffffffffffffff811115614a8157614a806141e4565b5b614a8d87828801614942565b935050604085013567ffffffffffffffff811115614aae57614aad6141e4565b5b614aba87828801614a0a565b925050606085013567ffffffffffffffff811115614adb57614ada6141e4565b5b614ae787828801614a0a565b91505092959194509250565b60008060408385031215614b0a57614b096141df565b5b6000614b1885828601614422565b9250506020614b2985828601614422565b9150509250929050565b7f4e487b7100000000000000000000000000000000000000000000000000000000600052602260045260246000fd5b60006002820490506001821680614b7a57607f821691505b602082108103614b8d57614b8c614b33565b5b50919050565b7f4552433732313a20617070726f76656420717565727920666f72206e6f6e657860008201527f697374656e7420746f6b656e0000000000000000000000000000000000000000602082015250565b6000614bef602c836142af565b9150614bfa82614b93565b604082019050919050565b60006020820190508181036000830152614c1e81614be2565b9050919050565b7f4552433732313a20617070726f76616c20746f2063757272656e74206f776e6560008201527f7200000000000000000000000000000000000000000000000000000000000000602082015250565b6000614c816021836142af565b9150614c8c82614c25565b604082019050919050565b60006020820190508181036000830152614cb081614c74565b9050919050565b7f4552433732313a20617070726f76652063616c6c6572206973206e6f74206f7760008201527f6e6572206e6f7220617070726f76656420666f7220616c6c0000000000000000602082015250565b6000614d136038836142af565b9150614d1e82614cb7565b604082019050919050565b60006020820190508181036000830152614d4281614d06565b9050919050565b7f4552433732313a207472616e736665722063616c6c6572206973206e6f74206f60008201527f776e6572206e6f7220617070726f766564000000000000000000000000000000602082015250565b6000614da56031836142af565b9150614db082614d49565b604082019050919050565b60006020820190508181036000830152614dd481614d98565b9050919050565b7f4552433732313a206f776e657220717565727920666f72206e6f6e657869737460008201527f656e7420746f6b656e0000000000000000000000000000000000000000000000602082015250565b6000614e376029836142af565b9150614e4282614ddb565b604082019050919050565b60006020820190508181036000830152614e6681614e2a565b9050919050565b7f4552433732313a2062616c616e636520717565727920666f7220746865207a6560008201527f726f206164647265737300000000000000000000000000000000000000000000602082015250565b6000614ec9602a836142af565b9150614ed482614e6d565b604082019050919050565b60006020820190508181036000830152614ef881614ebc565b9050919050565b7f4f6e6c795369676e657200000000000000000000000000000000000000000000600082015250565b6000614f35600a836142af565b9150614f4082614eff565b602082019050919050565b60006020820190508181036000830152614f6481614f28565b9050919050565b7f5369676e65642f52656a65637465642100000000000000000000000000000000600082015250565b6000614fa16010836142af565b9150614fac82614f6b565b602082019050919050565b60006020820190508181036000830152614fd081614f94565b9050919050565b7f4e487b7100000000000000000000000000000000000000000000000000000000600052601160045260246000fd5b600061501182614117565b91507fffffffffffffffffffffffffffffffffffffffffffffffffffffffffffffffff820361504357615042614fd7565b5b600182019050919050565b7f4e6f7420596f7572205475726e202f2042652052656a65637465640000000000600082015250565b6000615084601b836142af565b915061508f8261504e565b602082019050919050565b600060208201905081810360008301526150b381615077565b9050919050565b60006150c582614117565b91506150d083614117565b92508282039050818111156150e8576150e7614fd7565b5b92915050565b7f4e487b7100000000000000000000000000000000000000000000000000000000600052603260045260246000fd5b7f4e487b7100000000000000000000000000000000000000000000000000000000600052603160045260246000fd5b7f45524337323155524953746f726167653a2055524920717565727920666f722060008201527f6e6f6e6578697374656e7420746f6b656e000000000000000000000000000000602082015250565b60006151a86031836142af565b91506151b38261514c565b604082019050919050565b600060208201905081810360008301526151d78161519b565b9050919050565b600081905092915050565b60006151f4826142a4565b6151fe81856151de565b935061520e8185602086016142c0565b80840191505092915050565b600061522682856151e9565b915061523282846151e9565b91508190509392505050565b7f4f6e6c7952657669657765720000000000000000000000000000000000000000600082015250565b6000615274600c836142af565b915061527f8261523e565b602082019050919050565b600060208201905081810360008301526152a381615267565b9050919050565b60008190508160005260206000209050919050565b60006020601f8301049050919050565b600082821b905092915050565b60006008830261530c7fffffffffffffffffffffffffffffffffffffffffffffffffffffffffffffffff826152cf565b61531686836152cf565b95508019841693508086168417925050509392505050565b6000819050919050565b600061535361534e61534984614117565b61532e565b614117565b9050919050565b6000819050919050565b61536d83615338565b6153816153798261535a565b8484546152dc565b825550505050565b600090565b615396615389565b6153a1818484615364565b505050565b5b818110156153c5576153ba60008261538e565b6001810190506153a7565b5050565b601f82111561540a576153db816152aa565b6153e4846152bf565b810160208510156153f3578190505b6154076153ff856152bf565b8301826153a6565b50505b505050565b600082821c905092915050565b600061542d6000198460080261540f565b1980831691505092915050565b6000615446838361541c565b9150826002028217905092915050565b61545f826142a4565b67ffffffffffffffff81111561547857615477614721565b5b6154828254614b62565b61548d8282856153c9565b600060209050601f8311600181146154c057600084156154ae578287015190505b6154b8858261543a565b865550615520565b601f1984166154ce866152aa565b60005b828110156154f6578489015182556001820191506020850194506020810190506154d1565b86831015615513578489015161550f601f89168261541c565b8355505b6001600288020188555050505b505050505050565b7f4552433732313a206f70657261746f7220717565727920666f72206e6f6e657860008201527f697374656e7420746f6b656e0000000000000000000000000000000000000000602082015250565b6000615584602c836142af565b915061558f82615528565b604082019050919050565b600060208201905081810360008301526155b381615577565b9050919050565b7f43616e206e6f74207472616e7366657221000000000000000000000000000000600082015250565b60006155f06011836142af565b91506155fb826155ba565b602082019050919050565b6000602082019050818103600083015261561f816155e3565b9050919050565b7f4552433732313a20617070726f766520746f2063616c6c657200000000000000600082015250565b600061565c6019836142af565b915061566782615626565b602082019050919050565b6000602082019050818103600083015261568b8161564f565b9050919050565b7f4552433732313a207472616e7366657220746f206e6f6e20455243373231526560008201527f63656976657220696d706c656d656e7465720000000000000000000000000000602082015250565b60006156ee6032836142af565b91506156f982615692565b604082019050919050565b6000602082019050818103600083015261571d816156e1565b9050919050565b7f4552433732314d657461646174613a2055524920717565727920666f72206e6f60008201527f6e6578697374656e7420746f6b656e0000000000000000000000000000000000602082015250565b6000615780602f836142af565b915061578b82615724565b604082019050919050565b600060208201905081810360008301526157af81615773565b9050919050565b7f4552433732313a206d696e7420746f20746865207a65726f2061646472657373600082015250565b60006157ec6020836142af565b91506157f7826157b6565b602082019050919050565b6000602082019050818103600083015261581b816157df565b9050919050565b7f4552433732313a20746f6b656e20616c7265616479206d696e74656400000000600082015250565b6000615858601c836142af565b915061586382615822565b602082019050919050565b600060208201905081810360008301526158878161584b565b9050919050565b600061589982614117565b91506158a483614117565b92508282019050808211156158bc576158bb614fd7565b5b92915050565b7f45524337323155524953746f726167653a2055524920736574206f66206e6f6e60008201527f6578697374656e7420746f6b656e000000000000000000000000000000000000602082015250565b600061591e602e836142af565b9150615929826158c2565b604082019050919050565b6000602082019050818103600083015261594d81615911565b9050919050565b600081519050919050565b600082825260208201905092915050565b600061597b82615954565b615985818561595f565b93506159958185602086016142c0565b61599e816142ea565b840191505092915050565b60006080820190506159be60008301876143e1565b6159cb60208301866143e1565b6159d86040830185614477565b81810360608301526159ea8184615970565b905095945050505050565b600081519050615a0481614215565b92915050565b600060208284031215615a2057615a1f6141df565b5b6000615a2e848285016159f5565b91505092915050565b7f4e487b7100000000000000000000000000000000000000000000000000000000600052601260045260246000fd5b6000615a7182614117565b9150615a7c83614117565b925082615a8c57615a8b615a37565b5b828204905092915050565b6000615aa282614117565b9150615aad83614117565b925082615abd57615abc615a37565b5b82820690509291505056fea2646970667358221220ebd47593b6a21d45387c3fb18d4d99dac213a14e632195a3b7d2f0edd38bcebf64736f6c63430008110033",
  "immutableReferences": {},
  "source": "// SPDX-License-Identifier: MIT\r\npragma solidity ^0.8.0;\r\nimport \"@openzeppelin/contracts/utils/Counters.sol\";\r\nimport \"@openzeppelin/contracts/token/ERC721/extensions/ERC721URIStorage.sol\";\r\n\r\ncontract DMS is ERC721URIStorage{\r\n    using Counters for Counters.Counter;\r\n    Counters.Counter private _tokenIds;\r\n    mapping(uint256 => address) private own_add;\r\n    mapping(uint256 => mapping(address => uint256)) private rvList;\r\n    mapping(uint256 => mapping(address => uint256)) private sigList;\r\n    mapping(uint256 => mapping(uint256 => address)) private rvPrior;\r\n    mapping(uint256 => mapping(address => uint256)) private rvPriorIdx;\r\n    mapping(uint256 => mapping(uint256 => address)) private sigPrior;\r\n    mapping(uint256 => mapping(address => uint256)) private sigPriorIdx;\r\n    mapping(uint256 => mapping(address => uint256)) private sigSt;\r\n    mapping(uint256 => mapping(address => uint256)) private sigTime;\r\n    mapping(address =>  uint256[]) public docList;\r\n    mapping(uint256 => uint256) public docIdx;\r\n    mapping(address => uint256[]) public usSigDoc;\r\n    mapping(uint256 => uint256) public usSigDocIdx;\r\n    mapping(address => uint256[]) public usRejDoc;\r\n    mapping(uint256 => uint256) public usRejDocIdx;\r\n    mapping(address => uint256[]) public usNotSig;\r\n    mapping(address => mapping(uint256 => uint256)) public notSigIdx;\r\n    mapping(address => uint256[]) public usSig;\r\n    mapping(address => mapping(uint256 => uint256)) public sigIdx;\r\n    mapping(address => uint256[]) public usRej;\r\n    mapping(address => mapping(uint256 => uint256)) public rejIdx;\r\n    mapping(uint256 => address[]) public docSig;\r\n    mapping(uint256 => address[]) public docRv;\r\n    mapping(uint256 => string) public tkURI;\r\n\r\n    constructor() public ERC721(\"Grooo\", \"Doc\") {\r\n    }\r\n    modifier onlySigner( uint256 id) {\r\n        require(sigList[id][msg.sender] == 1, \"OnlySigner\");\r\n        _;\r\n    }\r\n\r\n    modifier onlyReviewer(uint256 id) {\r\n        require(rvList[id][msg.sender] == 1, \"OnlyReviewer\");\r\n        _;\r\n    }\r\n\r\n    modifier isNotSigned( uint256 tokenId) {\r\n        require(sigSt[tokenId][msg.sender] == 0, \"Signed/Rejected!\");\r\n        _;\r\n    }\r\n    modifier isYourRvTurn(uint256 tokenId, address user_add) {\r\n        uint256 idx = rvPriorIdx[tokenId][user_add];\r\n        uint256 rs = 0;\r\n        if (idx ==0){\r\n            rs = 1;\r\n        } else {\r\n            address user;\r\n            uint256 st;\r\n            for (uint256 i = 0; i < idx; i++) {\r\n                user = rvPrior[tokenId][i];\r\n                st = sigSt[tokenId][user];\r\n                if (st ==0 || st ==3){\r\n                    rs = 0;\r\n                    break;\r\n                } else {\r\n                    rs = 1;\r\n                }\r\n            }\r\n        }\r\n        require(rs == 1, \"Not Your Turn / Be Rejected\");\r\n        _;\r\n    }\r\n\r\n    modifier isYourSignTurn(uint256 tokenId, address user_add) {\r\n        uint256 idx = sigPriorIdx[tokenId][user_add];\r\n        uint256 rs = 0;\r\n        if (idx ==0){\r\n            rs = 1;\r\n        } else {\r\n            address user;\r\n            uint256 st;\r\n            for (uint256 i = 0; i < idx; i++) {\r\n                user = sigPrior[tokenId][i];\r\n                st = sigSt[tokenId][user];\r\n                if (st ==0 || st ==3){\r\n                    rs = 0;\r\n                    break;\r\n                } else {\r\n                    rs = 1;\r\n                }\r\n            }\r\n        }\r\n        require(rs == 1, \"Not Your Turn / Be Rejected\");\r\n        _;\r\n    }\r\n\r\n    function totalSupply() public view returns (uint256) {\r\n        return _tokenIds.current();\r\n    }\r\n\r\n    function mintNFT(\r\n        address recipient,\r\n        string memory _tokenURI,\r\n        address[] memory reviewerList,\r\n        address[] memory signerList\r\n    ) public returns (uint256) {\r\n        //Create new NFT\r\n        _tokenIds.increment();\r\n        uint256 newItemId = _tokenIds.current();\r\n        _mint(recipient, newItemId);\r\n        _setTokenURI(newItemId, _tokenURI);\r\n        own_add[newItemId] = msg.sender;\r\n\r\n        uint256 arrayLength = docList[recipient].length;\r\n        docIdx[newItemId] = arrayLength;\r\n        docList[recipient].push(newItemId);\r\n        tkURI[newItemId] =_tokenURI;\r\n\r\n        docSig[newItemId] = signerList;\r\n        \r\n        docRv[newItemId] = reviewerList;\r\n        //Reviewer Priority\r\n        for (uint256 i = 0; i < reviewerList.length; i++) {\r\n            rvList[newItemId][reviewerList[i]] = 1;\r\n            rvPrior[newItemId][i]= reviewerList[i];\r\n            rvPriorIdx[newItemId][reviewerList[i]]= i;\r\n            notSigIdx[reviewerList[i]][newItemId] = usNotSig[reviewerList[i]].length;\r\n            usNotSig[reviewerList[i]].push(newItemId);\r\n        }\r\n        //Signer Priority\r\n        for (uint256 i = 0; i < signerList.length; i++) {\r\n            sigList[newItemId][signerList[i]] = 1;\r\n            sigPrior[newItemId][i]= signerList[i];\r\n            sigPriorIdx[newItemId][signerList[i]]= i;\r\n            notSigIdx[signerList[i]][newItemId] = usNotSig[signerList[i]].length;\r\n            usNotSig[signerList[i]].push(newItemId);\r\n        }\r\n        return newItemId;\r\n    }\r\n\r\n    function review(uint256 tokenId, uint256 status)\r\n        public\r\n        onlyReviewer(tokenId)\r\n        isNotSigned(tokenId)\r\n        isYourRvTurn(tokenId, msg.sender)\r\n    {\r\n        sigTime[tokenId][msg.sender] = block.timestamp;\r\n        uint256 index = notSigIdx[msg.sender][tokenId];\r\n        uint256 pop = usNotSig[msg.sender][usNotSig[msg.sender].length - 1];\r\n        usNotSig[msg.sender][index] = pop;\r\n        usNotSig[msg.sender].pop();\r\n        notSigIdx[msg.sender][pop] = index;\r\n        if (status ==0) {\r\n            sigSt[tokenId][msg.sender] = 3;\r\n            \r\n            rejIdx[msg.sender][tokenId] = usRej[msg.sender].length;\r\n            usRej[msg.sender].push(tokenId);\r\n\r\n            usRejDocIdx[tokenId] = usRejDoc[getOwnerAdd(tokenId)].length;\r\n            usRejDoc[getOwnerAdd(tokenId)].push(tokenId);\r\n        } else {\r\n            sigSt[tokenId][msg.sender] = 1;\r\n\r\n            sigIdx[msg.sender][tokenId] = usSig[msg.sender].length;\r\n            usSig[msg.sender].push(tokenId);\r\n\r\n            usSigDocIdx[tokenId] = usSigDoc[getOwnerAdd(tokenId)].length;\r\n            usSigDoc[getOwnerAdd(tokenId)].push(tokenId);\r\n        }\r\n    }\r\n    \r\n    function sign(uint256 tokenId, uint256 status)\r\n        public\r\n        onlySigner(tokenId)\r\n        isNotSigned(tokenId)\r\n        isYourSignTurn(tokenId, msg.sender)\r\n\r\n    {\r\n        sigTime[tokenId][msg.sender] = block.timestamp;\r\n        uint256 index = notSigIdx[msg.sender][tokenId];\r\n        uint256 pop = usNotSig[msg.sender][usNotSig[msg.sender].length - 1];\r\n        usNotSig[msg.sender][index] = pop;\r\n        usNotSig[msg.sender].pop();\r\n        notSigIdx[msg.sender][pop] = index;\r\n        if (status ==0) {\r\n            sigSt[tokenId][msg.sender] = 3;\r\n\r\n            rejIdx[msg.sender][tokenId] = usRej[msg.sender].length;\r\n            usRej[msg.sender].push(tokenId);\r\n\r\n            usRejDocIdx[tokenId] = usRejDoc[getOwnerAdd(tokenId)].length;\r\n            usRejDoc[getOwnerAdd(tokenId)].push(tokenId);\r\n        } else {\r\n            sigSt[tokenId][msg.sender] = 2;\r\n    \r\n            sigIdx[msg.sender][tokenId] = usSig[msg.sender].length;\r\n            usSig[msg.sender].push(tokenId);\r\n\r\n            usSigDocIdx[tokenId] = usSigDoc[getOwnerAdd(tokenId)].length;\r\n            usSigDoc[getOwnerAdd(tokenId)].push(tokenId);\r\n        }\r\n    }\r\n\r\n    function getUserCollectionList(address user)\r\n        public\r\n        view\r\n        returns (uint256[] memory)\r\n    {\r\n        return docList[user];\r\n    }\r\n\r\n    function checkuserDocIdx(uint256 tokenId) public view returns (uint256) {\r\n        return docIdx[tokenId];\r\n    }\r\n\r\n    function checkUserSignedStatus ( uint256 tokenId, address user) public view returns (uint256) {        \r\n        return sigSt[tokenId][user];\r\n    }\r\n\r\n    function checkUserSignedTime ( uint256 tokenId, address user) public view returns (uint256) {        \r\n        return sigTime[tokenId][user];\r\n    }\r\n\r\n    function getCurrentId () external view returns (uint256){        \r\n        return _tokenIds.current();\r\n    }\r\n\r\n    function getOwnerAdd (uint256 tokenId) public view returns (address){        \r\n        return own_add[tokenId];\r\n    }\r\n    function getDocInfo (uint256 tokenId) public view returns (string memory, address[] memory, address[] memory) {        \r\n        return (tkURI[tokenId], docRv[tokenId], docSig[tokenId]);\r\n    }\r\n\r\n\r\n     function getUserNotSignedList() public view returns (uint256[] memory) {        \r\n        return usNotSig[msg.sender];\r\n    }    \r\n    function getUserSignedList() public view returns (uint256[] memory) {        \r\n        return usSig[msg.sender];\r\n    }\r\n\r\n    function getUserRejectedList() public view returns (uint256[] memory) {        \r\n        return usRej[msg.sender];\r\n    }\r\n\r\n    function getUserSignedDoc() public view returns (uint256[] memory) {        \r\n        return usSigDoc[msg.sender];\r\n    }\r\n\r\n    function getUserRejectedDoc() public view returns (uint256[] memory) {        \r\n        return usRejDoc[msg.sender];\r\n    }\r\n    function _transfer(\r\n        address from,\r\n        address to,\r\n        uint256 tokenId0\r\n    ) internal virtual override {\r\n        require(1 == 0, \"Can not transfer!\");\r\n    }\r\n}\r\n",
  "sourcePath": "C:\\Users\\ASROCK\\Desktop\\DMS_Contract\\src\\contracts\\DMS.sol",
  "compiler": {
    "name": "solc",
    "version": "0.8.17+commit.8df45f5f.Emscripten.clang"
  },
  "schemaVersion": "3.4.7",
  "updatedAt": "2022-12-06T08:55:23.210Z",
  "devdoc": {
    "kind": "dev",
    "methods": {
      "approve(address,uint256)": {
        "details": "See {IERC721-approve}."
      },
      "balanceOf(address)": {
        "details": "See {IERC721-balanceOf}."
      },
      "getApproved(uint256)": {
        "details": "See {IERC721-getApproved}."
      },
      "isApprovedForAll(address,address)": {
        "details": "See {IERC721-isApprovedForAll}."
      },
      "name()": {
        "details": "See {IERC721Metadata-name}."
      },
      "ownerOf(uint256)": {
        "details": "See {IERC721-ownerOf}."
      },
      "safeTransferFrom(address,address,uint256)": {
        "details": "See {IERC721-safeTransferFrom}."
      },
      "safeTransferFrom(address,address,uint256,bytes)": {
        "details": "See {IERC721-safeTransferFrom}."
      },
      "setApprovalForAll(address,bool)": {
        "details": "See {IERC721-setApprovalForAll}."
      },
      "supportsInterface(bytes4)": {
        "details": "See {IERC165-supportsInterface}."
      },
      "symbol()": {
        "details": "See {IERC721Metadata-symbol}."
      },
      "tokenURI(uint256)": {
        "details": "See {IERC721Metadata-tokenURI}."
      },
      "transferFrom(address,address,uint256)": {
        "details": "See {IERC721-transferFrom}."
      }
    },
    "version": 1
  },
  "userdoc": {
    "kind": "user",
    "methods": {},
    "version": 1
  }
}