{
  "contractName": "DMSSign",
  "abi": [
    {
      "inputs": [],
      "stateMutability": "nonpayable",
      "type": "constructor"
    },
    {
      "anonymous": false,
      "inputs": [
        {
          "indexed": false,
          "internalType": "address",
          "name": "account",
          "type": "address"
        }
      ],
      "name": "AdminAdded",
      "type": "event"
    },
    {
      "anonymous": false,
      "inputs": [
        {
          "indexed": false,
          "internalType": "address",
          "name": "account",
          "type": "address"
        }
      ],
      "name": "AdminRemoved",
      "type": "event"
    },
    {
      "anonymous": false,
      "inputs": [
        {
          "indexed": true,
          "internalType": "address",
          "name": "owner",
          "type": "address"
        },
        {
          "indexed": true,
          "internalType": "address",
          "name": "approved",
          "type": "address"
        },
        {
          "indexed": true,
          "internalType": "uint256",
          "name": "tokenId",
          "type": "uint256"
        }
      ],
      "name": "Approval",
      "type": "event"
    },
    {
      "anonymous": false,
      "inputs": [
        {
          "indexed": true,
          "internalType": "address",
          "name": "owner",
          "type": "address"
        },
        {
          "indexed": true,
          "internalType": "address",
          "name": "operator",
          "type": "address"
        },
        {
          "indexed": false,
          "internalType": "bool",
          "name": "approved",
          "type": "bool"
        }
      ],
      "name": "ApprovalForAll",
      "type": "event"
    },
    {
      "anonymous": false,
      "inputs": [
        {
          "indexed": false,
          "internalType": "address[]",
          "name": "accounts",
          "type": "address[]"
        }
      ],
      "name": "BatchAdminAdded",
      "type": "event"
    },
    {
      "anonymous": false,
      "inputs": [
        {
          "indexed": false,
          "internalType": "address[]",
          "name": "accounts",
          "type": "address[]"
        }
      ],
      "name": "BatchBlacklistAdded",
      "type": "event"
    },
    {
      "anonymous": false,
      "inputs": [
        {
          "indexed": false,
          "internalType": "address[]",
          "name": "accounts",
          "type": "address[]"
        }
      ],
      "name": "BatchSignerAdded",
      "type": "event"
    },
    {
      "anonymous": false,
      "inputs": [
        {
          "indexed": false,
          "internalType": "address",
          "name": "account",
          "type": "address"
        }
      ],
      "name": "BlacklistAdded",
      "type": "event"
    },
    {
      "anonymous": false,
      "inputs": [
        {
          "indexed": false,
          "internalType": "address",
          "name": "account",
          "type": "address"
        }
      ],
      "name": "BlacklistRemoved",
      "type": "event"
    },
    {
      "anonymous": false,
      "inputs": [
        {
          "indexed": false,
          "internalType": "address",
          "name": "user",
          "type": "address"
        },
        {
          "indexed": false,
          "internalType": "uint256",
          "name": "status",
          "type": "uint256"
        }
      ],
      "name": "EventStarted",
      "type": "event"
    },
    {
      "anonymous": false,
      "inputs": [
        {
          "indexed": false,
          "internalType": "address",
          "name": "user",
          "type": "address"
        },
        {
          "indexed": false,
          "internalType": "uint256",
          "name": "status",
          "type": "uint256"
        }
      ],
      "name": "EventStopped",
      "type": "event"
    },
    {
      "anonymous": false,
      "inputs": [
        {
          "indexed": false,
          "internalType": "address",
          "name": "user",
          "type": "address"
        },
        {
          "indexed": false,
          "internalType": "address",
          "name": "wallet",
          "type": "address"
        },
        {
          "indexed": false,
          "internalType": "uint256",
          "name": "tokenID",
          "type": "uint256"
        },
        {
          "indexed": false,
          "internalType": "uint256",
          "name": "numNFTtri",
          "type": "uint256"
        }
      ],
      "name": "NFTMinted",
      "type": "event"
    },
    {
      "anonymous": false,
      "inputs": [
        {
          "indexed": false,
          "internalType": "address",
          "name": "from",
          "type": "address"
        },
        {
          "indexed": false,
          "internalType": "address",
          "name": "to",
          "type": "address"
        },
        {
          "indexed": false,
          "internalType": "uint256",
          "name": "tokenID",
          "type": "uint256"
        }
      ],
      "name": "OwnerNFTChanged",
      "type": "event"
    },
    {
      "anonymous": false,
      "inputs": [
        {
          "indexed": true,
          "internalType": "address",
          "name": "previousOwner",
          "type": "address"
        },
        {
          "indexed": true,
          "internalType": "address",
          "name": "newOwner",
          "type": "address"
        }
      ],
      "name": "OwnershipTransferred",
      "type": "event"
    },
    {
      "anonymous": false,
      "inputs": [
        {
          "indexed": false,
          "internalType": "address",
          "name": "account",
          "type": "address"
        }
      ],
      "name": "SignerAdded",
      "type": "event"
    },
    {
      "anonymous": false,
      "inputs": [
        {
          "indexed": false,
          "internalType": "address",
          "name": "account",
          "type": "address"
        }
      ],
      "name": "SignerRemoved",
      "type": "event"
    },
    {
      "anonymous": false,
      "inputs": [
        {
          "indexed": true,
          "internalType": "address",
          "name": "from",
          "type": "address"
        },
        {
          "indexed": true,
          "internalType": "address",
          "name": "to",
          "type": "address"
        },
        {
          "indexed": true,
          "internalType": "uint256",
          "name": "tokenId",
          "type": "uint256"
        }
      ],
      "name": "Transfer",
      "type": "event"
    },
    {
      "anonymous": false,
      "inputs": [
        {
          "indexed": false,
          "internalType": "uint256",
          "name": "amount",
          "type": "uint256"
        }
      ],
      "name": "WithDraw",
      "type": "event"
    },
    {
      "inputs": [
        {
          "internalType": "uint256",
          "name": "",
          "type": "uint256"
        }
      ],
      "name": "TokenIndex",
      "outputs": [
        {
          "internalType": "uint256",
          "name": "",
          "type": "uint256"
        }
      ],
      "stateMutability": "view",
      "type": "function",
      "constant": true
    },
    {
      "inputs": [
        {
          "internalType": "address",
          "name": "to",
          "type": "address"
        },
        {
          "internalType": "uint256",
          "name": "tokenId",
          "type": "uint256"
        }
      ],
      "name": "approve",
      "outputs": [],
      "stateMutability": "nonpayable",
      "type": "function"
    },
    {
      "inputs": [
        {
          "internalType": "address",
          "name": "owner",
          "type": "address"
        }
      ],
      "name": "balanceOf",
      "outputs": [
        {
          "internalType": "uint256",
          "name": "",
          "type": "uint256"
        }
      ],
      "stateMutability": "view",
      "type": "function",
      "constant": true
    },
    {
      "inputs": [
        {
          "internalType": "address",
          "name": "",
          "type": "address"
        },
        {
          "internalType": "uint256",
          "name": "",
          "type": "uint256"
        }
      ],
      "name": "count",
      "outputs": [
        {
          "internalType": "uint256",
          "name": "",
          "type": "uint256"
        }
      ],
      "stateMutability": "view",
      "type": "function",
      "constant": true
    },
    {
      "inputs": [
        {
          "internalType": "uint256",
          "name": "",
          "type": "uint256"
        }
      ],
      "name": "docIndex",
      "outputs": [
        {
          "internalType": "uint256",
          "name": "",
          "type": "uint256"
        }
      ],
      "stateMutability": "view",
      "type": "function",
      "constant": true
    },
    {
      "inputs": [
        {
          "internalType": "uint256",
          "name": "tokenId",
          "type": "uint256"
        }
      ],
      "name": "getApproved",
      "outputs": [
        {
          "internalType": "address",
          "name": "",
          "type": "address"
        }
      ],
      "stateMutability": "view",
      "type": "function",
      "constant": true
    },
    {
      "inputs": [
        {
          "internalType": "address",
          "name": "owner",
          "type": "address"
        },
        {
          "internalType": "address",
          "name": "operator",
          "type": "address"
        }
      ],
      "name": "isApprovedForAll",
      "outputs": [
        {
          "internalType": "bool",
          "name": "",
          "type": "bool"
        }
      ],
      "stateMutability": "view",
      "type": "function",
      "constant": true
    },
    {
      "inputs": [],
      "name": "name",
      "outputs": [
        {
          "internalType": "string",
          "name": "",
          "type": "string"
        }
      ],
      "stateMutability": "view",
      "type": "function",
      "constant": true
    },
    {
      "inputs": [
        {
          "internalType": "address",
          "name": "",
          "type": "address"
        },
        {
          "internalType": "uint256",
          "name": "",
          "type": "uint256"
        }
      ],
      "name": "nftListByAddress",
      "outputs": [
        {
          "internalType": "uint256",
          "name": "",
          "type": "uint256"
        }
      ],
      "stateMutability": "view",
      "type": "function",
      "constant": true
    },
    {
      "inputs": [],
      "name": "owner",
      "outputs": [
        {
          "internalType": "address",
          "name": "",
          "type": "address"
        }
      ],
      "stateMutability": "view",
      "type": "function",
      "constant": true
    },
    {
      "inputs": [
        {
          "internalType": "uint256",
          "name": "tokenId",
          "type": "uint256"
        }
      ],
      "name": "ownerOf",
      "outputs": [
        {
          "internalType": "address",
          "name": "",
          "type": "address"
        }
      ],
      "stateMutability": "view",
      "type": "function",
      "constant": true
    },
    {
      "inputs": [],
      "name": "renounceOwnership",
      "outputs": [],
      "stateMutability": "nonpayable",
      "type": "function"
    },
    {
      "inputs": [
        {
          "internalType": "address",
          "name": "from",
          "type": "address"
        },
        {
          "internalType": "address",
          "name": "to",
          "type": "address"
        },
        {
          "internalType": "uint256",
          "name": "tokenId",
          "type": "uint256"
        }
      ],
      "name": "safeTransferFrom",
      "outputs": [],
      "stateMutability": "nonpayable",
      "type": "function"
    },
    {
      "inputs": [
        {
          "internalType": "address",
          "name": "from",
          "type": "address"
        },
        {
          "internalType": "address",
          "name": "to",
          "type": "address"
        },
        {
          "internalType": "uint256",
          "name": "tokenId",
          "type": "uint256"
        },
        {
          "internalType": "bytes",
          "name": "_data",
          "type": "bytes"
        }
      ],
      "name": "safeTransferFrom",
      "outputs": [],
      "stateMutability": "nonpayable",
      "type": "function"
    },
    {
      "inputs": [
        {
          "internalType": "address",
          "name": "operator",
          "type": "address"
        },
        {
          "internalType": "bool",
          "name": "approved",
          "type": "bool"
        }
      ],
      "name": "setApprovalForAll",
      "outputs": [],
      "stateMutability": "nonpayable",
      "type": "function"
    },
    {
      "inputs": [
        {
          "internalType": "address",
          "name": "",
          "type": "address"
        },
        {
          "internalType": "uint256",
          "name": "",
          "type": "uint256"
        },
        {
          "internalType": "uint256",
          "name": "",
          "type": "uint256"
        }
      ],
      "name": "signerListOfDoc",
      "outputs": [
        {
          "internalType": "address",
          "name": "",
          "type": "address"
        }
      ],
      "stateMutability": "view",
      "type": "function",
      "constant": true
    },
    {
      "inputs": [
        {
          "internalType": "bytes4",
          "name": "interfaceId",
          "type": "bytes4"
        }
      ],
      "name": "supportsInterface",
      "outputs": [
        {
          "internalType": "bool",
          "name": "",
          "type": "bool"
        }
      ],
      "stateMutability": "view",
      "type": "function",
      "constant": true
    },
    {
      "inputs": [],
      "name": "symbol",
      "outputs": [
        {
          "internalType": "string",
          "name": "",
          "type": "string"
        }
      ],
      "stateMutability": "view",
      "type": "function",
      "constant": true
    },
    {
      "inputs": [
        {
          "internalType": "uint256",
          "name": "tokenId",
          "type": "uint256"
        }
      ],
      "name": "tokenURI",
      "outputs": [
        {
          "internalType": "string",
          "name": "",
          "type": "string"
        }
      ],
      "stateMutability": "view",
      "type": "function",
      "constant": true
    },
    {
      "inputs": [
        {
          "internalType": "address",
          "name": "",
          "type": "address"
        },
        {
          "internalType": "uint256",
          "name": "",
          "type": "uint256"
        }
      ],
      "name": "tokenURI",
      "outputs": [
        {
          "internalType": "string",
          "name": "",
          "type": "string"
        }
      ],
      "stateMutability": "view",
      "type": "function",
      "constant": true
    },
    {
      "inputs": [
        {
          "internalType": "address",
          "name": "from",
          "type": "address"
        },
        {
          "internalType": "address",
          "name": "to",
          "type": "address"
        },
        {
          "internalType": "uint256",
          "name": "tokenId",
          "type": "uint256"
        }
      ],
      "name": "transferFrom",
      "outputs": [],
      "stateMutability": "nonpayable",
      "type": "function"
    },
    {
      "inputs": [
        {
          "internalType": "address",
          "name": "newOwner",
          "type": "address"
        }
      ],
      "name": "transferOwnership",
      "outputs": [],
      "stateMutability": "nonpayable",
      "type": "function"
    },
    {
      "inputs": [
        {
          "internalType": "address",
          "name": "",
          "type": "address"
        }
      ],
      "name": "userNumberNFT",
      "outputs": [
        {
          "internalType": "uint256",
          "name": "",
          "type": "uint256"
        }
      ],
      "stateMutability": "view",
      "type": "function",
      "constant": true
    },
    {
      "inputs": [],
      "name": "totalSupply",
      "outputs": [
        {
          "internalType": "uint256",
          "name": "",
          "type": "uint256"
        }
      ],
      "stateMutability": "view",
      "type": "function",
      "constant": true
    },
    {
      "inputs": [
        {
          "internalType": "address",
          "name": "account",
          "type": "address"
        }
      ],
      "name": "checkAdmin",
      "outputs": [
        {
          "internalType": "bool",
          "name": "",
          "type": "bool"
        }
      ],
      "stateMutability": "view",
      "type": "function",
      "constant": true
    },
    {
      "inputs": [
        {
          "internalType": "address",
          "name": "nft",
          "type": "address"
        },
        {
          "internalType": "uint256",
          "name": "id",
          "type": "uint256"
        },
        {
          "internalType": "address",
          "name": "account",
          "type": "address"
        }
      ],
      "name": "checkSigner",
      "outputs": [
        {
          "internalType": "bool",
          "name": "",
          "type": "bool"
        }
      ],
      "stateMutability": "view",
      "type": "function",
      "constant": true
    },
    {
      "inputs": [
        {
          "internalType": "address",
          "name": "account",
          "type": "address"
        }
      ],
      "name": "checkBlackList",
      "outputs": [
        {
          "internalType": "bool",
          "name": "",
          "type": "bool"
        }
      ],
      "stateMutability": "view",
      "type": "function",
      "constant": true
    },
    {
      "inputs": [
        {
          "internalType": "address",
          "name": "recipient",
          "type": "address"
        },
        {
          "internalType": "string",
          "name": "_tokenURI",
          "type": "string"
        },
        {
          "internalType": "address[]",
          "name": "signerList",
          "type": "address[]"
        }
      ],
      "name": "mintNFT",
      "outputs": [
        {
          "internalType": "uint256",
          "name": "",
          "type": "uint256"
        }
      ],
      "stateMutability": "nonpayable",
      "type": "function"
    },
    {
      "inputs": [
        {
          "internalType": "address",
          "name": "nft",
          "type": "address"
        },
        {
          "internalType": "uint256",
          "name": "tokenId",
          "type": "uint256"
        }
      ],
      "name": "sign",
      "outputs": [],
      "stateMutability": "nonpayable",
      "type": "function"
    },
    {
      "inputs": [],
      "name": "getUserCollectionList",
      "outputs": [
        {
          "internalType": "uint256[]",
          "name": "",
          "type": "uint256[]"
        }
      ],
      "stateMutability": "view",
      "type": "function",
      "constant": true
    },
    {
      "inputs": [],
      "name": "getDocList",
      "outputs": [
        {
          "internalType": "uint256[]",
          "name": "",
          "type": "uint256[]"
        }
      ],
      "stateMutability": "view",
      "type": "function",
      "constant": true
    },
    {
      "inputs": [
        {
          "internalType": "address",
          "name": "user",
          "type": "address"
        }
      ],
      "name": "getUserNumberNFT",
      "outputs": [
        {
          "internalType": "uint256",
          "name": "",
          "type": "uint256"
        }
      ],
      "stateMutability": "view",
      "type": "function",
      "constant": true
    },
    {
      "inputs": [],
      "name": "getUserSignList",
      "outputs": [
        {
          "internalType": "uint256[]",
          "name": "",
          "type": "uint256[]"
        }
      ],
      "stateMutability": "view",
      "type": "function",
      "constant": true
    },
    {
      "inputs": [],
      "name": "getUserSignedList",
      "outputs": [
        {
          "internalType": "uint256[]",
          "name": "",
          "type": "uint256[]"
        }
      ],
      "stateMutability": "view",
      "type": "function",
      "constant": true
    },
    {
      "inputs": [],
      "name": "startEvent",
      "outputs": [],
      "stateMutability": "nonpayable",
      "type": "function"
    },
    {
      "inputs": [],
      "name": "stopEvent",
      "outputs": [],
      "stateMutability": "nonpayable",
      "type": "function"
    },
    {
      "inputs": [
        {
          "internalType": "uint256",
          "name": "tokenId",
          "type": "uint256"
        }
      ],
      "name": "checkTokenIndex",
      "outputs": [
        {
          "internalType": "uint256",
          "name": "",
          "type": "uint256"
        }
      ],
      "stateMutability": "view",
      "type": "function",
      "constant": true
    },
    {
      "inputs": [
        {
          "internalType": "address",
          "name": "account",
          "type": "address"
        }
      ],
      "name": "addToAdminlist",
      "outputs": [],
      "stateMutability": "nonpayable",
      "type": "function"
    },
    {
      "inputs": [
        {
          "internalType": "address[]",
          "name": "accounts",
          "type": "address[]"
        }
      ],
      "name": "addBatchToAdminlist",
      "outputs": [],
      "stateMutability": "nonpayable",
      "type": "function"
    },
    {
      "inputs": [
        {
          "internalType": "address",
          "name": "account",
          "type": "address"
        }
      ],
      "name": "removeFromAdminlist",
      "outputs": [],
      "stateMutability": "nonpayable",
      "type": "function"
    },
    {
      "inputs": [
        {
          "internalType": "address",
          "name": "account",
          "type": "address"
        }
      ],
      "name": "addToBlacklist",
      "outputs": [],
      "stateMutability": "nonpayable",
      "type": "function"
    },
    {
      "inputs": [
        {
          "internalType": "address[]",
          "name": "accounts",
          "type": "address[]"
        }
      ],
      "name": "addBatchToBlacklist",
      "outputs": [],
      "stateMutability": "nonpayable",
      "type": "function"
    },
    {
      "inputs": [
        {
          "internalType": "address",
          "name": "account",
          "type": "address"
        }
      ],
      "name": "removeFromBlacklist",
      "outputs": [],
      "stateMutability": "nonpayable",
      "type": "function"
    },
    {
      "inputs": [
        {
          "internalType": "address",
          "name": "nft",
          "type": "address"
        },
        {
          "internalType": "uint256",
          "name": "id",
          "type": "uint256"
        },
        {
          "internalType": "address",
          "name": "account",
          "type": "address"
        }
      ],
      "name": "addToSignerlist",
      "outputs": [],
      "stateMutability": "nonpayable",
      "type": "function"
    },
    {
      "inputs": [
        {
          "internalType": "address",
          "name": "nft",
          "type": "address"
        },
        {
          "internalType": "uint256",
          "name": "id",
          "type": "uint256"
        },
        {
          "internalType": "address[]",
          "name": "accounts",
          "type": "address[]"
        }
      ],
      "name": "addBatchToSignerlist",
      "outputs": [],
      "stateMutability": "nonpayable",
      "type": "function"
    },
    {
      "inputs": [
        {
          "internalType": "address",
          "name": "nft",
          "type": "address"
        },
        {
          "internalType": "uint256",
          "name": "id",
          "type": "uint256"
        },
        {
          "internalType": "address",
          "name": "account",
          "type": "address"
        }
      ],
      "name": "removeFromSignerlist",
      "outputs": [],
      "stateMutability": "nonpayable",
      "type": "function"
    },
    {
      "inputs": [
        {
          "internalType": "uint256",
          "name": "tokenId",
          "type": "uint256"
        }
      ],
      "name": "getDocInfo",
      "outputs": [
        {
          "internalType": "string",
          "name": "",
          "type": "string"
        },
        {
          "internalType": "address[]",
          "name": "",
          "type": "address[]"
        }
      ],
      "stateMutability": "view",
      "type": "function",
      "constant": true
    },
    {
      "inputs": [
        {
          "internalType": "uint256",
          "name": "tokenId",
          "type": "uint256"
        },
        {
          "internalType": "address",
          "name": "user",
          "type": "address"
        }
      ],
      "name": "checkUserSignedStatus",
      "outputs": [
        {
          "internalType": "uint256",
          "name": "",
          "type": "uint256"
        }
      ],
      "stateMutability": "view",
      "type": "function",
      "constant": true
    },
    {
      "inputs": [
        {
          "internalType": "uint256",
          "name": "tokenId",
          "type": "uint256"
        },
        {
          "internalType": "address",
          "name": "user",
          "type": "address"
        }
      ],
      "name": "checkUserSignedTime",
      "outputs": [
        {
          "internalType": "uint256",
          "name": "",
          "type": "uint256"
        }
      ],
      "stateMutability": "view",
      "type": "function",
      "constant": true
    },
    {
      "inputs": [
        {
          "internalType": "uint256",
          "name": "tokenId",
          "type": "uint256"
        }
      ],
      "name": "checkPublicStatus",
      "outputs": [
        {
          "internalType": "uint256",
          "name": "",
          "type": "uint256"
        }
      ],
      "stateMutability": "view",
      "type": "function",
      "constant": true
    },
    {
      "inputs": [],
      "name": "getCurrentId",
      "outputs": [
        {
          "internalType": "uint256",
          "name": "",
          "type": "uint256"
        }
      ],
      "stateMutability": "view",
      "type": "function",
      "constant": true
    }
  ],
  "bytecode": "0x60806040526000601a553480156200001657600080fd5b506040518060400160405280600581526020017f47726f6f6f0000000000000000000000000000000000000000000000000000008152506040518060400160405280600381526020017f446f63000000000000000000000000000000000000000000000000000000000081525081600090816200009491906200045c565b508060019081620000a691906200045c565b505050620000c9620000bd6200011460201b60201c565b6200011c60201b60201c565b6001600960003373ffffffffffffffffffffffffffffffffffffffff1673ffffffffffffffffffffffffffffffffffffffff1681526020019081526020016000208190555062000543565b600033905090565b6000600760009054906101000a900473ffffffffffffffffffffffffffffffffffffffff16905081600760006101000a81548173ffffffffffffffffffffffffffffffffffffffff021916908373ffffffffffffffffffffffffffffffffffffffff1602179055508173ffffffffffffffffffffffffffffffffffffffff168173ffffffffffffffffffffffffffffffffffffffff167f8be0079c531659141344cd1fd0a4f28419497f9722a3daafe3b4186f6b6457e060405160405180910390a35050565b600081519050919050565b7f4e487b7100000000000000000000000000000000000000000000000000000000600052604160045260246000fd5b7f4e487b7100000000000000000000000000000000000000000000000000000000600052602260045260246000fd5b600060028204905060018216806200026457607f821691505b6020821081036200027a57620002796200021c565b5b50919050565b60008190508160005260206000209050919050565b60006020601f8301049050919050565b600082821b905092915050565b600060088302620002e47fffffffffffffffffffffffffffffffffffffffffffffffffffffffffffffffff82620002a5565b620002f08683620002a5565b95508019841693508086168417925050509392505050565b6000819050919050565b6000819050919050565b60006200033d62000337620003318462000308565b62000312565b62000308565b9050919050565b6000819050919050565b62000359836200031c565b62000371620003688262000344565b848454620002b2565b825550505050565b600090565b6200038862000379565b620003958184846200034e565b505050565b5b81811015620003bd57620003b16000826200037e565b6001810190506200039b565b5050565b601f8211156200040c57620003d68162000280565b620003e18462000295565b81016020851015620003f1578190505b62000409620004008562000295565b8301826200039a565b50505b505050565b600082821c905092915050565b6000620004316000198460080262000411565b1980831691505092915050565b60006200044c83836200041e565b9150826002028217905092915050565b6200046782620001e2565b67ffffffffffffffff811115620004835762000482620001ed565b5b6200048f82546200024b565b6200049c828285620003c1565b600060209050601f831160018114620004d45760008415620004bf578287015190505b620004cb85826200043e565b8655506200053b565b601f198416620004e48662000280565b60005b828110156200050e57848901518255600182019150602085019450602081019050620004e7565b868310156200052e57848901516200052a601f8916826200041e565b8355505b6001600288020188555050505b505050505050565b615c0a80620005536000396000f3fe608060405234801561001057600080fd5b50600436106102f15760003560e01c8063715018a61161019d578063c3779c7a116100e9578063e985e9c5116100a2578063f2351f601161007c578063f2351f60146109ad578063f2fde38b146109dd578063f74be98a146109f9578063fcaef65114610a15576102f1565b8063e985e9c51461092f578063e9dc63751461095f578063edb463541461098f576102f1565b8063c3779c7a14610849578063c87b56dd14610865578063cd291c3f14610895578063cff71b4c146108c5578063e2fd38e9146108f5578063e4f282ad146108ff576102f1565b8063930428c81161015657806395d89b411161013057806395d89b41146107c3578063a0ee75dc146107e1578063a22cb46514610811578063b88d4fde1461082d576102f1565b8063930428c81461074757806393beeac31461076357806394c621db14610793576102f1565b8063715018a61461067357806374b4ce1d1461067d57806378532901146106ad5780637cfb384d146106dd5780638da5cb5b146106f95780639026dee814610717576102f1565b806344337ea11161025c57806360ba77911161021557806365a739f6116101ef57806365a739f6146105c55780636c143862146105f55780636e1ed32f1461061357806370a0823114610643576102f1565b806360ba77911461055a5780636138fede146105645780636352211e14610595576102f1565b806344337ea11461048a578063471e9c2b146104a657806349207256146104c2578063537df3b6146104f257806353fa45391461050e5780635ff64f6d1461053e576102f1565b806323b872dd116102ae57806323b872dd146103ca5780632a6bd018146103e65780632cba84c2146104045780633a548c64146104225780633c98e2971461045257806342842e0e1461046e576102f1565b806301ffc9a7146102f657806306fdde0314610326578063081812fc14610344578063095ea7b31461037457806318160ddd1461039057806322f44e1a146103ae575b600080fd5b610310600480360381019061030b9190614068565b610a33565b60405161031d91906140b0565b60405180910390f35b61032e610b15565b60405161033b919061415b565b60405180910390f35b61035e600480360381019061035991906141b3565b610ba7565b60405161036b9190614221565b60405180910390f35b61038e60048036038101906103899190614268565b610c2c565b005b610398610d43565b6040516103a591906142b7565b60405180910390f35b6103c860048036038101906103c391906142d2565b610d54565b005b6103e460048036038101906103df91906142ff565b610e4f565b005b6103ee610eaf565b6040516103fb9190614410565b60405180910390f35b61040c610f4a565b6040516104199190614410565b60405180910390f35b61043c60048036038101906104379190614432565b610fa2565b6040516104499190614221565b60405180910390f35b61046c60048036038101906104679190614485565b610ffd565b005b610488600480360381019061048391906142ff565b611148565b005b6104a4600480360381019061049f91906142d2565b611168565b005b6104c060048036038101906104bb9190614620565b611263565b005b6104dc60048036038101906104d79190614268565b611398565b6040516104e991906142b7565b60405180910390f35b61050c600480360381019061050791906142d2565b6113bd565b005b61052860048036038101906105239190614669565b6114b8565b60405161053591906142b7565b60405180910390f35b61055860048036038101906105539190614268565b611550565b005b610562611b6b565b005b61057e600480360381019061057991906141b3565b611c32565b60405161058c929190614767565b60405180910390f35b6105af60048036038101906105aa91906141b3565b611df8565b6040516105bc9190614221565b60405180910390f35b6105df60048036038101906105da9190614268565b611ea9565b6040516105ec91906142b7565b60405180910390f35b6105fd611eda565b60405161060a91906142b7565b60405180910390f35b61062d60048036038101906106289190614485565b611ef0565b60405161063a91906140b0565b60405180910390f35b61065d600480360381019061065891906142d2565b611f8b565b60405161066a91906142b7565b60405180910390f35b61067b612042565b005b610697600480360381019061069291906141b3565b6120ca565b6040516106a491906142b7565b60405180910390f35b6106c760048036038101906106c291906141b3565b6120e7565b6040516106d491906142b7565b60405180910390f35b6106f760048036038101906106f29190614620565b6120ff565b005b610701612234565b60405161070e9190614221565b60405180910390f35b610731600480360381019061072c91906142d2565b61225e565b60405161073e91906140b0565b60405180910390f35b610761600480360381019061075c919061479e565b6122a9565b005b61077d600480360381019061077891906148c2565b61242e565b60405161078a91906142b7565b60405180910390f35b6107ad60048036038101906107a891906142d2565b6128d6565b6040516107ba91906142b7565b60405180910390f35b6107cb6128ee565b6040516107d8919061415b565b60405180910390f35b6107fb60048036038101906107f691906141b3565b612980565b60405161080891906142b7565b60405180910390f35b61082b60048036038101906108269190614979565b612998565b005b61084760048036038101906108429190614a5a565b6129ae565b005b610863600480360381019061085e9190614485565b612a10565b005b61087f600480360381019061087a91906141b3565b612b5b565b60405161088c919061415b565b60405180910390f35b6108af60048036038101906108aa91906141b3565b612cac565b6040516108bc91906142b7565b60405180910390f35b6108df60048036038101906108da9190614669565b612d71565b6040516108ec91906142b7565b60405180910390f35b6108fd612e09565b005b610919600480360381019061091491906142d2565b612ed0565b60405161092691906140b0565b60405180910390f35b61094960048036038101906109449190614add565b612f1b565b60405161095691906140b0565b60405180910390f35b61097960048036038101906109749190614268565b612faf565b604051610986919061415b565b60405180910390f35b61099761305c565b6040516109a49190614410565b60405180910390f35b6109c760048036038101906109c291906142d2565b6130f7565b6040516109d491906142b7565b60405180910390f35b6109f760048036038101906109f291906142d2565b613140565b005b610a136004803603810190610a0e91906142d2565b613237565b005b610a1d613332565b604051610a2a9190614410565b60405180910390f35b60007f80ac58cd000000000000000000000000000000000000000000000000000000007bffffffffffffffffffffffffffffffffffffffffffffffffffffffff1916827bffffffffffffffffffffffffffffffffffffffffffffffffffffffff19161480610afe57507f5b5e139f000000000000000000000000000000000000000000000000000000007bffffffffffffffffffffffffffffffffffffffffffffffffffffffff1916827bffffffffffffffffffffffffffffffffffffffffffffffffffffffff1916145b80610b0e5750610b0d826133cd565b5b9050919050565b606060008054610b2490614b4c565b80601f0160208091040260200160405190810160405280929190818152602001828054610b5090614b4c565b8015610b9d5780601f10610b7257610100808354040283529160200191610b9d565b820191906000526020600020905b815481529060010190602001808311610b8057829003601f168201915b5050505050905090565b6000610bb282613437565b610bf1576040517f08c379a0000000000000000000000000000000000000000000000000000000008152600401610be890614bef565b60405180910390fd5b6004600083815260200190815260200160002060009054906101000a900473ffffffffffffffffffffffffffffffffffffffff169050919050565b6000610c3782611df8565b90508073ffffffffffffffffffffffffffffffffffffffff168373ffffffffffffffffffffffffffffffffffffffff1603610ca7576040517f08c379a0000000000000000000000000000000000000000000000000000000008152600401610c9e90614c81565b60405180910390fd5b8073ffffffffffffffffffffffffffffffffffffffff16610cc66134a3565b73ffffffffffffffffffffffffffffffffffffffff161480610cf55750610cf481610cef6134a3565b612f1b565b5b610d34576040517f08c379a0000000000000000000000000000000000000000000000000000000008152600401610d2b90614d13565b60405180910390fd5b610d3e83836134ab565b505050565b6000610d4f6008613564565b905090565b610d5c6134a3565b73ffffffffffffffffffffffffffffffffffffffff16610d7a612234565b73ffffffffffffffffffffffffffffffffffffffff1614610dd0576040517f08c379a0000000000000000000000000000000000000000000000000000000008152600401610dc790614d7f565b60405180910390fd5b6000600960008373ffffffffffffffffffffffffffffffffffffffff1673ffffffffffffffffffffffffffffffffffffffff168152602001908152602001600020819055507fa3b62bc36326052d97ea62d63c3d60308ed4c3ea8ac079dd8499f1e9c4f80c0f81604051610e449190614221565b60405180910390a150565b610e60610e5a6134a3565b82613572565b610e9f576040517f08c379a0000000000000000000000000000000000000000000000000000000008152600401610e9690614e11565b60405180910390fd5b610eaa838383613650565b505050565b60606000339050601260008273ffffffffffffffffffffffffffffffffffffffff1673ffffffffffffffffffffffffffffffffffffffff168152602001908152602001600020805480602002602001604051908101604052809291908181526020018280548015610f3f57602002820191906000526020600020905b815481526020019060010190808311610f2b575b505050505091505090565b60606019805480602002602001604051908101604052809291908181526020018280548015610f9857602002820191906000526020600020905b815481526020019060010190808311610f84575b5050505050905090565b60166020528260005260406000206020528160005260406000208181548110610fca57600080fd5b90600052602060002001600092509250509054906101000a900473ffffffffffffffffffffffffffffffffffffffff1681565b6110056134a3565b73ffffffffffffffffffffffffffffffffffffffff16611023612234565b73ffffffffffffffffffffffffffffffffffffffff1614611079576040517f08c379a000000000000000000000000000000000000000000000000000000000815260040161107090614d7f565b60405180910390fd5b6001601160008573ffffffffffffffffffffffffffffffffffffffff1673ffffffffffffffffffffffffffffffffffffffff168152602001908152602001600020600084815260200190815260200160002060008373ffffffffffffffffffffffffffffffffffffffff1673ffffffffffffffffffffffffffffffffffffffff168152602001908152602001600020819055507f47d1c22a25bb3a5d4e481b9b1e6944c2eade3181a0a20b495ed61d35b5323f248160405161113b9190614221565b60405180910390a1505050565b611163838383604051806020016040528060008152506129ae565b505050565b6111706134a3565b73ffffffffffffffffffffffffffffffffffffffff1661118e612234565b73ffffffffffffffffffffffffffffffffffffffff16146111e4576040517f08c379a00000000000000000000000000000000000000000000000000000000081526004016111db90614d7f565b60405180910390fd5b6001600a60008373ffffffffffffffffffffffffffffffffffffffff1673ffffffffffffffffffffffffffffffffffffffff168152602001908152602001600020819055507f44d5fe68b00f68950fb9c1ff0a61ef7f747b1a36359a7e3a7f3324db4b878967816040516112589190614221565b60405180910390a150565b61126b6134a3565b73ffffffffffffffffffffffffffffffffffffffff16611289612234565b73ffffffffffffffffffffffffffffffffffffffff16146112df576040517f08c379a00000000000000000000000000000000000000000000000000000000081526004016112d690614d7f565b60405180910390fd5b60005b815181101561135d5760016009600084848151811061130457611303614e31565b5b602002602001015173ffffffffffffffffffffffffffffffffffffffff1673ffffffffffffffffffffffffffffffffffffffff16815260200190815260200160002081905550808061135590614e8f565b9150506112e2565b507f235b145bf4f48bbc7b4322a065c36df2e606a2482ac3c78cd62c86925be24dd18160405161138d9190614ed7565b60405180910390a150565b6017602052816000526040600020602052806000526040600020600091509150505481565b6113c56134a3565b73ffffffffffffffffffffffffffffffffffffffff166113e3612234565b73ffffffffffffffffffffffffffffffffffffffff1614611439576040517f08c379a000000000000000000000000000000000000000000000000000000000815260040161143090614d7f565b60405180910390fd5b6000600a60008373ffffffffffffffffffffffffffffffffffffffff1673ffffffffffffffffffffffffffffffffffffffff168152602001908152602001600020819055507f1747ca720b1a174a464b6513ace29b1d3190b5f632b9f34147017c81425bfde8816040516114ad9190614221565b60405180910390a150565b6000600c60003073ffffffffffffffffffffffffffffffffffffffff1673ffffffffffffffffffffffffffffffffffffffff168152602001908152602001600020600084815260200190815260200160002060008373ffffffffffffffffffffffffffffffffffffffff1673ffffffffffffffffffffffffffffffffffffffff16815260200190815260200160002054905092915050565b81816001601160008473ffffffffffffffffffffffffffffffffffffffff1673ffffffffffffffffffffffffffffffffffffffff168152602001908152602001600020600083815260200190815260200160002060003373ffffffffffffffffffffffffffffffffffffffff1673ffffffffffffffffffffffffffffffffffffffff1681526020019081526020016000205414611622576040517f08c379a000000000000000000000000000000000000000000000000000000000815260040161161990614f45565b60405180910390fd5b83836000600b60008473ffffffffffffffffffffffffffffffffffffffff1673ffffffffffffffffffffffffffffffffffffffff168152602001908152602001600020600083815260200190815260200160002060003373ffffffffffffffffffffffffffffffffffffffff1673ffffffffffffffffffffffffffffffffffffffff16815260200190815260200160002054146116f4576040517f08c379a00000000000000000000000000000000000000000000000000000000081526004016116eb90614fb1565b60405180910390fd5b601760008773ffffffffffffffffffffffffffffffffffffffff1673ffffffffffffffffffffffffffffffffffffffff1681526020019081526020016000206000868152602001908152602001600020600081548092919061175590614e8f565b91905055506001600b60008873ffffffffffffffffffffffffffffffffffffffff1673ffffffffffffffffffffffffffffffffffffffff168152602001908152602001600020600087815260200190815260200160002060003373ffffffffffffffffffffffffffffffffffffffff1673ffffffffffffffffffffffffffffffffffffffff1681526020019081526020016000208190555042600c60008873ffffffffffffffffffffffffffffffffffffffff1673ffffffffffffffffffffffffffffffffffffffff168152602001908152602001600020600087815260200190815260200160002060003373ffffffffffffffffffffffffffffffffffffffff1673ffffffffffffffffffffffffffffffffffffffff168152602001908152602001600020819055506000600e60008781526020019081526020016000205490506000600d60003373ffffffffffffffffffffffffffffffffffffffff1673ffffffffffffffffffffffffffffffffffffffff1681526020019081526020016000208054905090506001810361195057600d60003373ffffffffffffffffffffffffffffffffffffffff1673ffffffffffffffffffffffffffffffffffffffff16815260200190815260200160002080548061193557611934614fd1565b5b60019003818190600052602060002001600090559055611a9b565b6000600d60003373ffffffffffffffffffffffffffffffffffffffff1673ffffffffffffffffffffffffffffffffffffffff16815260200190815260200160002060018361199e9190615000565b815481106119af576119ae614e31565b5b9060005260206000200154905080600d60003373ffffffffffffffffffffffffffffffffffffffff1673ffffffffffffffffffffffffffffffffffffffff1681526020019081526020016000208481548110611a0e57611a0d614e31565b5b9060005260206000200181905550600d60003373ffffffffffffffffffffffffffffffffffffffff1673ffffffffffffffffffffffffffffffffffffffff168152602001908152602001600020805480611a6b57611a6a614fd1565b5b6001900381819060005260206000200160009055905582600e600083815260200190815260200160002081905550505b6000600f60003373ffffffffffffffffffffffffffffffffffffffff1673ffffffffffffffffffffffffffffffffffffffff16815260200190815260200160002080549050905080601060008a815260200190815260200160002081905550600f60003373ffffffffffffffffffffffffffffffffffffffff1673ffffffffffffffffffffffffffffffffffffffff168152602001908152602001600020889080600181540180825580915050600190039060005260206000200160009091909190915055505050505050505050565b6001600960003373ffffffffffffffffffffffffffffffffffffffff1673ffffffffffffffffffffffffffffffffffffffff1681526020019081526020016000205414611bed576040517f08c379a0000000000000000000000000000000000000000000000000000000008152600401611be490615080565b60405180910390fd5b6000601a819055507ffd814014cf3d46723efdb93e6c7df3769f54f451c3287d796629379f9366969633601a54604051611c289291906150a0565b60405180910390a1565b6060806000601560003073ffffffffffffffffffffffffffffffffffffffff1673ffffffffffffffffffffffffffffffffffffffff16815260200190815260200160002060008581526020019081526020016000208054611c9290614b4c565b80601f0160208091040260200160405190810160405280929190818152602001828054611cbe90614b4c565b8015611d0b5780601f10611ce057610100808354040283529160200191611d0b565b820191906000526020600020905b815481529060010190602001808311611cee57829003601f168201915b505050505090506000601660003073ffffffffffffffffffffffffffffffffffffffff1673ffffffffffffffffffffffffffffffffffffffff1681526020019081526020016000206000868152602001908152602001600020805480602002602001604051908101604052809291908181526020018280548015611de457602002820191906000526020600020905b8160009054906101000a900473ffffffffffffffffffffffffffffffffffffffff1673ffffffffffffffffffffffffffffffffffffffff1681526020019060010190808311611d9a575b505050505090508181935093505050915091565b6000806002600084815260200190815260200160002060009054906101000a900473ffffffffffffffffffffffffffffffffffffffff169050600073ffffffffffffffffffffffffffffffffffffffff168173ffffffffffffffffffffffffffffffffffffffff1603611ea0576040517f08c379a0000000000000000000000000000000000000000000000000000000008152600401611e979061513b565b60405180910390fd5b80915050919050565b60126020528160005260406000208181548110611ec557600080fd5b90600052602060002001600091509150505481565b600080611ee76008613564565b90508091505090565b600080601160008673ffffffffffffffffffffffffffffffffffffffff1673ffffffffffffffffffffffffffffffffffffffff168152602001908152602001600020600085815260200190815260200160002060008473ffffffffffffffffffffffffffffffffffffffff1673ffffffffffffffffffffffffffffffffffffffff168152602001908152602001600020541190509392505050565b60008073ffffffffffffffffffffffffffffffffffffffff168273ffffffffffffffffffffffffffffffffffffffff1603611ffb576040517f08c379a0000000000000000000000000000000000000000000000000000000008152600401611ff2906151cd565b60405180910390fd5b600360008373ffffffffffffffffffffffffffffffffffffffff1673ffffffffffffffffffffffffffffffffffffffff168152602001908152602001600020549050919050565b61204a6134a3565b73ffffffffffffffffffffffffffffffffffffffff16612068612234565b73ffffffffffffffffffffffffffffffffffffffff16146120be576040517f08c379a00000000000000000000000000000000000000000000000000000000081526004016120b590614d7f565b60405180910390fd5b6120c86000613699565b565b600060136000838152602001908152602001600020549050919050565b60186020528060005260406000206000915090505481565b6121076134a3565b73ffffffffffffffffffffffffffffffffffffffff16612125612234565b73ffffffffffffffffffffffffffffffffffffffff161461217b576040517f08c379a000000000000000000000000000000000000000000000000000000000815260040161217290614d7f565b60405180910390fd5b60005b81518110156121f9576001600a60008484815181106121a05761219f614e31565b5b602002602001015173ffffffffffffffffffffffffffffffffffffffff1673ffffffffffffffffffffffffffffffffffffffff1681526020019081526020016000208190555080806121f190614e8f565b91505061217e565b507f9622c77e2fe3960bb8dbf5411d63397238876a7280df69b4a7f18644dd328cd6816040516122299190614ed7565b60405180910390a150565b6000600760009054906101000a900473ffffffffffffffffffffffffffffffffffffffff16905090565b600080600960008473ffffffffffffffffffffffffffffffffffffffff1673ffffffffffffffffffffffffffffffffffffffff16815260200190815260200160002054119050919050565b6122b16134a3565b73ffffffffffffffffffffffffffffffffffffffff166122cf612234565b73ffffffffffffffffffffffffffffffffffffffff1614612325576040517f08c379a000000000000000000000000000000000000000000000000000000000815260040161231c90614d7f565b60405180910390fd5b60005b81518110156123f1576001601160008673ffffffffffffffffffffffffffffffffffffffff1673ffffffffffffffffffffffffffffffffffffffff1681526020019081526020016000206000858152602001908152602001600020600084848151811061239857612397614e31565b5b602002602001015173ffffffffffffffffffffffffffffffffffffffff1673ffffffffffffffffffffffffffffffffffffffff1681526020019081526020016000208190555080806123e990614e8f565b915050612328565b507f95baf82e9445df1a4e43dbdc7793254c6ad49c8332104f251d016257c0d1496d816040516124219190614ed7565b60405180910390a1505050565b600061243a600861375f565b60006124466008613564565b90506124528582613775565b61245c818561394e565b6000601260008773ffffffffffffffffffffffffffffffffffffffff1673ffffffffffffffffffffffffffffffffffffffff168152602001908152602001600020805490509050806013600084815260200190815260200160002081905550601260008773ffffffffffffffffffffffffffffffffffffffff1673ffffffffffffffffffffffffffffffffffffffff1681526020019081526020016000208290806001815401808255809150506001900390600052602060002001600090919091909150556001601460008873ffffffffffffffffffffffffffffffffffffffff1673ffffffffffffffffffffffffffffffffffffffff168152602001908152602001600020600082825461257191906151ed565b9250508190555084601560003073ffffffffffffffffffffffffffffffffffffffff1673ffffffffffffffffffffffffffffffffffffffff168152602001908152602001600020600084815260200190815260200160002090816125d591906153cd565b5083601660003073ffffffffffffffffffffffffffffffffffffffff1673ffffffffffffffffffffffffffffffffffffffff1681526020019081526020016000206000848152602001908152602001600020908051906020019061263a929190613f55565b5060006019805490509050806018600085815260200190815260200160002081905550601983908060018154018082558091505060019003906000526020600020016000909190919091505560005b855181101561284c576001601160003073ffffffffffffffffffffffffffffffffffffffff1673ffffffffffffffffffffffffffffffffffffffff168152602001908152602001600020600086815260200190815260200160002060008884815181106126f9576126f8614e31565b5b602002602001015173ffffffffffffffffffffffffffffffffffffffff1673ffffffffffffffffffffffffffffffffffffffff168152602001908152602001600020819055506000600d600088848151811061275857612757614e31565b5b602002602001015173ffffffffffffffffffffffffffffffffffffffff1673ffffffffffffffffffffffffffffffffffffffff16815260200190815260200160002080549050905080600e600087815260200190815260200160002081905550600d60008884815181106127cf576127ce614e31565b5b602002602001015173ffffffffffffffffffffffffffffffffffffffff1673ffffffffffffffffffffffffffffffffffffffff16815260200190815260200160002085908060018154018082558091505060019003906000526020600020016000909190919091505550808061284490614e8f565b915050612689565b507f9e8a709a89b83b7026f9ebab1f1b5b04c5edf5339369ea5ae302868f443aead7338885601460008c73ffffffffffffffffffffffffffffffffffffffff1673ffffffffffffffffffffffffffffffffffffffff168152602001908152602001600020546040516128c1949392919061549f565b60405180910390a18293505050509392505050565b60146020528060005260406000206000915090505481565b6060600180546128fd90614b4c565b80601f016020809104026020016040519081016040528092919081815260200182805461292990614b4c565b80156129765780601f1061294b57610100808354040283529160200191612976565b820191906000526020600020905b81548152906001019060200180831161295957829003601f168201915b5050505050905090565b60136020528060005260406000206000915090505481565b6129aa6129a36134a3565b83836139bb565b5050565b6129bf6129b96134a3565b83613572565b6129fe576040517f08c379a00000000000000000000000000000000000000000000000000000000081526004016129f590614e11565b60405180910390fd5b612a0a84848484613b27565b50505050565b612a186134a3565b73ffffffffffffffffffffffffffffffffffffffff16612a36612234565b73ffffffffffffffffffffffffffffffffffffffff1614612a8c576040517f08c379a0000000000000000000000000000000000000000000000000000000008152600401612a8390614d7f565b60405180910390fd5b6000601160008573ffffffffffffffffffffffffffffffffffffffff1673ffffffffffffffffffffffffffffffffffffffff168152602001908152602001600020600084815260200190815260200160002060008373ffffffffffffffffffffffffffffffffffffffff1673ffffffffffffffffffffffffffffffffffffffff168152602001908152602001600020819055507f3525e22824a8a7df2c9a6029941c824cf95b6447f1e13d5128fd3826d35afe8b81604051612b4e9190614221565b60405180910390a1505050565b6060612b6682613437565b612ba5576040517f08c379a0000000000000000000000000000000000000000000000000000000008152600401612b9c90615556565b60405180910390fd5b6000600660008481526020019081526020016000208054612bc590614b4c565b80601f0160208091040260200160405190810160405280929190818152602001828054612bf190614b4c565b8015612c3e5780601f10612c1357610100808354040283529160200191612c3e565b820191906000526020600020905b815481529060010190602001808311612c2157829003601f168201915b505050505090506000612c4f613b83565b90506000815103612c64578192505050612ca7565b600082511115612c99578082604051602001612c819291906155b2565b60405160208183030381529060405292505050612ca7565b612ca284613b9a565b925050505b919050565b600080601660003073ffffffffffffffffffffffffffffffffffffffff1673ffffffffffffffffffffffffffffffffffffffff168152602001908152602001600020600084815260200190815260200160002080549050905080601760003073ffffffffffffffffffffffffffffffffffffffff1673ffffffffffffffffffffffffffffffffffffffff16815260200190815260200160002060008581526020019081526020016000205403612d66576001915050612d6c565b60009150505b919050565b6000600b60003073ffffffffffffffffffffffffffffffffffffffff1673ffffffffffffffffffffffffffffffffffffffff168152602001908152602001600020600084815260200190815260200160002060008373ffffffffffffffffffffffffffffffffffffffff1673ffffffffffffffffffffffffffffffffffffffff16815260200190815260200160002054905092915050565b6001600960003373ffffffffffffffffffffffffffffffffffffffff1673ffffffffffffffffffffffffffffffffffffffff1681526020019081526020016000205414612e8b576040517f08c379a0000000000000000000000000000000000000000000000000000000008152600401612e8290615080565b60405180910390fd5b6001601a819055507ff77c6f27499b698205f54058c2914a340e1300c2bc0d9a819e7aebfbaabbbb9333601a54604051612ec69291906150a0565b60405180910390a1565b600080600a60008473ffffffffffffffffffffffffffffffffffffffff1673ffffffffffffffffffffffffffffffffffffffff16815260200190815260200160002054119050919050565b6000600560008473ffffffffffffffffffffffffffffffffffffffff1673ffffffffffffffffffffffffffffffffffffffff16815260200190815260200160002060008373ffffffffffffffffffffffffffffffffffffffff1673ffffffffffffffffffffffffffffffffffffffff16815260200190815260200160002060009054906101000a900460ff16905092915050565b6015602052816000526040600020602052806000526040600020600091509150508054612fdb90614b4c565b80601f016020809104026020016040519081016040528092919081815260200182805461300790614b4c565b80156130545780601f1061302957610100808354040283529160200191613054565b820191906000526020600020905b81548152906001019060200180831161303757829003601f168201915b505050505081565b60606000339050600f60008273ffffffffffffffffffffffffffffffffffffffff1673ffffffffffffffffffffffffffffffffffffffff1681526020019081526020016000208054806020026020016040519081016040528092919081815260200182805480156130ec57602002820191906000526020600020905b8154815260200190600101908083116130d8575b505050505091505090565b6000601460008373ffffffffffffffffffffffffffffffffffffffff1673ffffffffffffffffffffffffffffffffffffffff168152602001908152602001600020549050919050565b6131486134a3565b73ffffffffffffffffffffffffffffffffffffffff16613166612234565b73ffffffffffffffffffffffffffffffffffffffff16146131bc576040517f08c379a00000000000000000000000000000000000000000000000000000000081526004016131b390614d7f565b60405180910390fd5b600073ffffffffffffffffffffffffffffffffffffffff168173ffffffffffffffffffffffffffffffffffffffff160361322b576040517f08c379a000000000000000000000000000000000000000000000000000000000815260040161322290615648565b60405180910390fd5b61323481613699565b50565b61323f6134a3565b73ffffffffffffffffffffffffffffffffffffffff1661325d612234565b73ffffffffffffffffffffffffffffffffffffffff16146132b3576040517f08c379a00000000000000000000000000000000000000000000000000000000081526004016132aa90614d7f565b60405180910390fd5b6001600960008373ffffffffffffffffffffffffffffffffffffffff1673ffffffffffffffffffffffffffffffffffffffff168152602001908152602001600020819055507f44d6d25963f097ad14f29f06854a01f575648a1ef82f30e562ccd3889717e339816040516133279190614221565b60405180910390a150565b60606000339050600d60008273ffffffffffffffffffffffffffffffffffffffff1673ffffffffffffffffffffffffffffffffffffffff1681526020019081526020016000208054806020026020016040519081016040528092919081815260200182805480156133c257602002820191906000526020600020905b8154815260200190600101908083116133ae575b505050505091505090565b60007f01ffc9a7000000000000000000000000000000000000000000000000000000007bffffffffffffffffffffffffffffffffffffffffffffffffffffffff1916827bffffffffffffffffffffffffffffffffffffffffffffffffffffffff1916149050919050565b60008073ffffffffffffffffffffffffffffffffffffffff166002600084815260200190815260200160002060009054906101000a900473ffffffffffffffffffffffffffffffffffffffff1673ffffffffffffffffffffffffffffffffffffffff1614159050919050565b600033905090565b816004600083815260200190815260200160002060006101000a81548173ffffffffffffffffffffffffffffffffffffffff021916908373ffffffffffffffffffffffffffffffffffffffff160217905550808273ffffffffffffffffffffffffffffffffffffffff1661351e83611df8565b73ffffffffffffffffffffffffffffffffffffffff167f8c5be1e5ebec7d5bd14f71427d1e84f3dd0314c0f7b2291e5b200ac8c7c3b92560405160405180910390a45050565b600081600001549050919050565b600061357d82613437565b6135bc576040517f08c379a00000000000000000000000000000000000000000000000000000000081526004016135b3906156da565b60405180910390fd5b60006135c783611df8565b90508073ffffffffffffffffffffffffffffffffffffffff168473ffffffffffffffffffffffffffffffffffffffff16148061363657508373ffffffffffffffffffffffffffffffffffffffff1661361e84610ba7565b73ffffffffffffffffffffffffffffffffffffffff16145b8061364757506136468185612f1b565b5b91505092915050565b6000600114613694576040517f08c379a000000000000000000000000000000000000000000000000000000000815260040161368b90615746565b60405180910390fd5b505050565b6000600760009054906101000a900473ffffffffffffffffffffffffffffffffffffffff16905081600760006101000a81548173ffffffffffffffffffffffffffffffffffffffff021916908373ffffffffffffffffffffffffffffffffffffffff1602179055508173ffffffffffffffffffffffffffffffffffffffff168173ffffffffffffffffffffffffffffffffffffffff167f8be0079c531659141344cd1fd0a4f28419497f9722a3daafe3b4186f6b6457e060405160405180910390a35050565b6001816000016000828254019250508190555050565b600073ffffffffffffffffffffffffffffffffffffffff168273ffffffffffffffffffffffffffffffffffffffff16036137e4576040517f08c379a00000000000000000000000000000000000000000000000000000000081526004016137db906157b2565b60405180910390fd5b6137ed81613437565b1561382d576040517f08c379a00000000000000000000000000000000000000000000000000000000081526004016138249061581e565b60405180910390fd5b61383960008383613c41565b6001600360008473ffffffffffffffffffffffffffffffffffffffff1673ffffffffffffffffffffffffffffffffffffffff168152602001908152602001600020600082825461388991906151ed565b92505081905550816002600083815260200190815260200160002060006101000a81548173ffffffffffffffffffffffffffffffffffffffff021916908373ffffffffffffffffffffffffffffffffffffffff160217905550808273ffffffffffffffffffffffffffffffffffffffff16600073ffffffffffffffffffffffffffffffffffffffff167fddf252ad1be2c89b69c2b068fc378daa952ba7f163c4a11628f55a4df523b3ef60405160405180910390a461394a60008383613c46565b5050565b61395782613437565b613996576040517f08c379a000000000000000000000000000000000000000000000000000000000815260040161398d906158b0565b60405180910390fd5b806006600084815260200190815260200160002090816139b691906153cd565b505050565b8173ffffffffffffffffffffffffffffffffffffffff168373ffffffffffffffffffffffffffffffffffffffff1603613a29576040517f08c379a0000000000000000000000000000000000000000000000000000000008152600401613a209061591c565b60405180910390fd5b80600560008573ffffffffffffffffffffffffffffffffffffffff1673ffffffffffffffffffffffffffffffffffffffff16815260200190815260200160002060008473ffffffffffffffffffffffffffffffffffffffff1673ffffffffffffffffffffffffffffffffffffffff16815260200190815260200160002060006101000a81548160ff0219169083151502179055508173ffffffffffffffffffffffffffffffffffffffff168373ffffffffffffffffffffffffffffffffffffffff167f17307eab39ab6107e8899845ad3d59bd9653f200f220920489ca2b5937696c3183604051613b1a91906140b0565b60405180910390a3505050565b613b32848484613650565b613b3e84848484613c4b565b613b7d576040517f08c379a0000000000000000000000000000000000000000000000000000000008152600401613b74906159ae565b60405180910390fd5b50505050565b606060405180602001604052806000815250905090565b6060613ba582613437565b613be4576040517f08c379a0000000000000000000000000000000000000000000000000000000008152600401613bdb90615a40565b60405180910390fd5b6000613bee613b83565b90506000815111613c0e5760405180602001604052806000815250613c39565b80613c1884613dd2565b604051602001613c299291906155b2565b6040516020818303038152906040525b915050919050565b505050565b505050565b6000613c6c8473ffffffffffffffffffffffffffffffffffffffff16613f32565b15613dc5578373ffffffffffffffffffffffffffffffffffffffff1663150b7a02613c956134a3565b8786866040518563ffffffff1660e01b8152600401613cb79493929190615ab5565b6020604051808303816000875af1925050508015613cf357506040513d601f19601f82011682018060405250810190613cf09190615b16565b60015b613d75573d8060008114613d23576040519150601f19603f3d011682016040523d82523d6000602084013e613d28565b606091505b506000815103613d6d576040517f08c379a0000000000000000000000000000000000000000000000000000000008152600401613d64906159ae565b60405180910390fd5b805181602001fd5b63150b7a0260e01b7bffffffffffffffffffffffffffffffffffffffffffffffffffffffff1916817bffffffffffffffffffffffffffffffffffffffffffffffffffffffff191614915050613dca565b600190505b949350505050565b606060008203613e19576040518060400160405280600181526020017f30000000000000000000000000000000000000000000000000000000000000008152509050613f2d565b600082905060005b60008214613e4b578080613e3490614e8f565b915050600a82613e449190615b72565b9150613e21565b60008167ffffffffffffffff811115613e6757613e666144dd565b5b6040519080825280601f01601f191660200182016040528015613e995781602001600182028036833780820191505090505b5090505b60008514613f2657600182613eb29190615000565b9150600a85613ec19190615ba3565b6030613ecd91906151ed565b60f81b818381518110613ee357613ee2614e31565b5b60200101907effffffffffffffffffffffffffffffffffffffffffffffffffffffffffffff1916908160001a905350600a85613f1f9190615b72565b9450613e9d565b8093505050505b919050565b6000808273ffffffffffffffffffffffffffffffffffffffff163b119050919050565b828054828255906000526020600020908101928215613fce579160200282015b82811115613fcd5782518260006101000a81548173ffffffffffffffffffffffffffffffffffffffff021916908373ffffffffffffffffffffffffffffffffffffffff16021790555091602001919060010190613f75565b5b509050613fdb9190613fdf565b5090565b5b80821115613ff8576000816000905550600101613fe0565b5090565b6000604051905090565b600080fd5b600080fd5b60007fffffffff0000000000000000000000000000000000000000000000000000000082169050919050565b61404581614010565b811461405057600080fd5b50565b6000813590506140628161403c565b92915050565b60006020828403121561407e5761407d614006565b5b600061408c84828501614053565b91505092915050565b60008115159050919050565b6140aa81614095565b82525050565b60006020820190506140c560008301846140a1565b92915050565b600081519050919050565b600082825260208201905092915050565b60005b838110156141055780820151818401526020810190506140ea565b60008484015250505050565b6000601f19601f8301169050919050565b600061412d826140cb565b61413781856140d6565b93506141478185602086016140e7565b61415081614111565b840191505092915050565b600060208201905081810360008301526141758184614122565b905092915050565b6000819050919050565b6141908161417d565b811461419b57600080fd5b50565b6000813590506141ad81614187565b92915050565b6000602082840312156141c9576141c8614006565b5b60006141d78482850161419e565b91505092915050565b600073ffffffffffffffffffffffffffffffffffffffff82169050919050565b600061420b826141e0565b9050919050565b61421b81614200565b82525050565b60006020820190506142366000830184614212565b92915050565b61424581614200565b811461425057600080fd5b50565b6000813590506142628161423c565b92915050565b6000806040838503121561427f5761427e614006565b5b600061428d85828601614253565b925050602061429e8582860161419e565b9150509250929050565b6142b18161417d565b82525050565b60006020820190506142cc60008301846142a8565b92915050565b6000602082840312156142e8576142e7614006565b5b60006142f684828501614253565b91505092915050565b60008060006060848603121561431857614317614006565b5b600061432686828701614253565b935050602061433786828701614253565b92505060406143488682870161419e565b9150509250925092565b600081519050919050565b600082825260208201905092915050565b6000819050602082019050919050565b6143878161417d565b82525050565b6000614399838361437e565b60208301905092915050565b6000602082019050919050565b60006143bd82614352565b6143c7818561435d565b93506143d28361436e565b8060005b838110156144035781516143ea888261438d565b97506143f5836143a5565b9250506001810190506143d6565b5085935050505092915050565b6000602082019050818103600083015261442a81846143b2565b905092915050565b60008060006060848603121561444b5761444a614006565b5b600061445986828701614253565b935050602061446a8682870161419e565b925050604061447b8682870161419e565b9150509250925092565b60008060006060848603121561449e5761449d614006565b5b60006144ac86828701614253565b93505060206144bd8682870161419e565b92505060406144ce86828701614253565b9150509250925092565b600080fd5b7f4e487b7100000000000000000000000000000000000000000000000000000000600052604160045260246000fd5b61451582614111565b810181811067ffffffffffffffff82111715614534576145336144dd565b5b80604052505050565b6000614547613ffc565b9050614553828261450c565b919050565b600067ffffffffffffffff821115614573576145726144dd565b5b602082029050602081019050919050565b600080fd5b600061459c61459784614558565b61453d565b905080838252602082019050602084028301858111156145bf576145be614584565b5b835b818110156145e857806145d48882614253565b8452602084019350506020810190506145c1565b5050509392505050565b600082601f830112614607576146066144d8565b5b8135614617848260208601614589565b91505092915050565b60006020828403121561463657614635614006565b5b600082013567ffffffffffffffff8111156146545761465361400b565b5b614660848285016145f2565b91505092915050565b600080604083850312156146805761467f614006565b5b600061468e8582860161419e565b925050602061469f85828601614253565b9150509250929050565b600081519050919050565b600082825260208201905092915050565b6000819050602082019050919050565b6146de81614200565b82525050565b60006146f083836146d5565b60208301905092915050565b6000602082019050919050565b6000614714826146a9565b61471e81856146b4565b9350614729836146c5565b8060005b8381101561475a57815161474188826146e4565b975061474c836146fc565b92505060018101905061472d565b5085935050505092915050565b600060408201905081810360008301526147818185614122565b905081810360208301526147958184614709565b90509392505050565b6000806000606084860312156147b7576147b6614006565b5b60006147c586828701614253565b93505060206147d68682870161419e565b925050604084013567ffffffffffffffff8111156147f7576147f661400b565b5b614803868287016145f2565b9150509250925092565b600080fd5b600067ffffffffffffffff82111561482d5761482c6144dd565b5b61483682614111565b9050602081019050919050565b82818337600083830152505050565b600061486561486084614812565b61453d565b9050828152602081018484840111156148815761488061480d565b5b61488c848285614843565b509392505050565b600082601f8301126148a9576148a86144d8565b5b81356148b9848260208601614852565b91505092915050565b6000806000606084860312156148db576148da614006565b5b60006148e986828701614253565b935050602084013567ffffffffffffffff81111561490a5761490961400b565b5b61491686828701614894565b925050604084013567ffffffffffffffff8111156149375761493661400b565b5b614943868287016145f2565b9150509250925092565b61495681614095565b811461496157600080fd5b50565b6000813590506149738161494d565b92915050565b600080604083850312156149905761498f614006565b5b600061499e85828601614253565b92505060206149af85828601614964565b9150509250929050565b600067ffffffffffffffff8211156149d4576149d36144dd565b5b6149dd82614111565b9050602081019050919050565b60006149fd6149f8846149b9565b61453d565b905082815260208101848484011115614a1957614a1861480d565b5b614a24848285614843565b509392505050565b600082601f830112614a4157614a406144d8565b5b8135614a518482602086016149ea565b91505092915050565b60008060008060808587031215614a7457614a73614006565b5b6000614a8287828801614253565b9450506020614a9387828801614253565b9350506040614aa48782880161419e565b925050606085013567ffffffffffffffff811115614ac557614ac461400b565b5b614ad187828801614a2c565b91505092959194509250565b60008060408385031215614af457614af3614006565b5b6000614b0285828601614253565b9250506020614b1385828601614253565b9150509250929050565b7f4e487b7100000000000000000000000000000000000000000000000000000000600052602260045260246000fd5b60006002820490506001821680614b6457607f821691505b602082108103614b7757614b76614b1d565b5b50919050565b7f4552433732313a20617070726f76656420717565727920666f72206e6f6e657860008201527f697374656e7420746f6b656e0000000000000000000000000000000000000000602082015250565b6000614bd9602c836140d6565b9150614be482614b7d565b604082019050919050565b60006020820190508181036000830152614c0881614bcc565b9050919050565b7f4552433732313a20617070726f76616c20746f2063757272656e74206f776e6560008201527f7200000000000000000000000000000000000000000000000000000000000000602082015250565b6000614c6b6021836140d6565b9150614c7682614c0f565b604082019050919050565b60006020820190508181036000830152614c9a81614c5e565b9050919050565b7f4552433732313a20617070726f76652063616c6c6572206973206e6f74206f7760008201527f6e6572206e6f7220617070726f76656420666f7220616c6c0000000000000000602082015250565b6000614cfd6038836140d6565b9150614d0882614ca1565b604082019050919050565b60006020820190508181036000830152614d2c81614cf0565b9050919050565b7f4f776e61626c653a2063616c6c6572206973206e6f7420746865206f776e6572600082015250565b6000614d696020836140d6565b9150614d7482614d33565b602082019050919050565b60006020820190508181036000830152614d9881614d5c565b9050919050565b7f4552433732313a207472616e736665722063616c6c6572206973206e6f74206f60008201527f776e6572206e6f7220617070726f766564000000000000000000000000000000602082015250565b6000614dfb6031836140d6565b9150614e0682614d9f565b604082019050919050565b60006020820190508181036000830152614e2a81614dee565b9050919050565b7f4e487b7100000000000000000000000000000000000000000000000000000000600052603260045260246000fd5b7f4e487b7100000000000000000000000000000000000000000000000000000000600052601160045260246000fd5b6000614e9a8261417d565b91507fffffffffffffffffffffffffffffffffffffffffffffffffffffffffffffffff8203614ecc57614ecb614e60565b5b600182019050919050565b60006020820190508181036000830152614ef18184614709565b905092915050565b7f4f6e6c795369676e657200000000000000000000000000000000000000000000600082015250565b6000614f2f600a836140d6565b9150614f3a82614ef9565b602082019050919050565b60006020820190508181036000830152614f5e81614f22565b9050919050565b7f49734e6f745369676e6564000000000000000000000000000000000000000000600082015250565b6000614f9b600b836140d6565b9150614fa682614f65565b602082019050919050565b60006020820190508181036000830152614fca81614f8e565b9050919050565b7f4e487b7100000000000000000000000000000000000000000000000000000000600052603160045260246000fd5b600061500b8261417d565b91506150168361417d565b925082820390508181111561502e5761502d614e60565b5b92915050565b7f4f6e6c7941646d696e0000000000000000000000000000000000000000000000600082015250565b600061506a6009836140d6565b915061507582615034565b602082019050919050565b600060208201905081810360008301526150998161505d565b9050919050565b60006040820190506150b56000830185614212565b6150c260208301846142a8565b9392505050565b7f4552433732313a206f776e657220717565727920666f72206e6f6e657869737460008201527f656e7420746f6b656e0000000000000000000000000000000000000000000000602082015250565b60006151256029836140d6565b9150615130826150c9565b604082019050919050565b6000602082019050818103600083015261515481615118565b9050919050565b7f4552433732313a2062616c616e636520717565727920666f7220746865207a6560008201527f726f206164647265737300000000000000000000000000000000000000000000602082015250565b60006151b7602a836140d6565b91506151c28261515b565b604082019050919050565b600060208201905081810360008301526151e6816151aa565b9050919050565b60006151f88261417d565b91506152038361417d565b925082820190508082111561521b5761521a614e60565b5b92915050565b60008190508160005260206000209050919050565b60006020601f8301049050919050565b600082821b905092915050565b6000600883026152837fffffffffffffffffffffffffffffffffffffffffffffffffffffffffffffffff82615246565b61528d8683615246565b95508019841693508086168417925050509392505050565b6000819050919050565b60006152ca6152c56152c08461417d565b6152a5565b61417d565b9050919050565b6000819050919050565b6152e4836152af565b6152f86152f0826152d1565b848454615253565b825550505050565b600090565b61530d615300565b6153188184846152db565b505050565b5b8181101561533c57615331600082615305565b60018101905061531e565b5050565b601f8211156153815761535281615221565b61535b84615236565b8101602085101561536a578190505b61537e61537685615236565b83018261531d565b50505b505050565b600082821c905092915050565b60006153a460001984600802615386565b1980831691505092915050565b60006153bd8383615393565b9150826002028217905092915050565b6153d6826140cb565b67ffffffffffffffff8111156153ef576153ee6144dd565b5b6153f98254614b4c565b615404828285615340565b600060209050601f8311600181146154375760008415615425578287015190505b61542f85826153b1565b865550615497565b601f19841661544586615221565b60005b8281101561546d57848901518255600182019150602085019450602081019050615448565b8683101561548a5784890151615486601f891682615393565b8355505b6001600288020188555050505b505050505050565b60006080820190506154b46000830187614212565b6154c16020830186614212565b6154ce60408301856142a8565b6154db60608301846142a8565b95945050505050565b7f45524337323155524953746f726167653a2055524920717565727920666f722060008201527f6e6f6e6578697374656e7420746f6b656e000000000000000000000000000000602082015250565b60006155406031836140d6565b915061554b826154e4565b604082019050919050565b6000602082019050818103600083015261556f81615533565b9050919050565b600081905092915050565b600061558c826140cb565b6155968185615576565b93506155a68185602086016140e7565b80840191505092915050565b60006155be8285615581565b91506155ca8284615581565b91508190509392505050565b7f4f776e61626c653a206e6577206f776e657220697320746865207a65726f206160008201527f6464726573730000000000000000000000000000000000000000000000000000602082015250565b60006156326026836140d6565b915061563d826155d6565b604082019050919050565b6000602082019050818103600083015261566181615625565b9050919050565b7f4552433732313a206f70657261746f7220717565727920666f72206e6f6e657860008201527f697374656e7420746f6b656e0000000000000000000000000000000000000000602082015250565b60006156c4602c836140d6565b91506156cf82615668565b604082019050919050565b600060208201905081810360008301526156f3816156b7565b9050919050565b7f43616e206e6f74207472616e7366657221000000000000000000000000000000600082015250565b60006157306011836140d6565b915061573b826156fa565b602082019050919050565b6000602082019050818103600083015261575f81615723565b9050919050565b7f4552433732313a206d696e7420746f20746865207a65726f2061646472657373600082015250565b600061579c6020836140d6565b91506157a782615766565b602082019050919050565b600060208201905081810360008301526157cb8161578f565b9050919050565b7f4552433732313a20746f6b656e20616c7265616479206d696e74656400000000600082015250565b6000615808601c836140d6565b9150615813826157d2565b602082019050919050565b60006020820190508181036000830152615837816157fb565b9050919050565b7f45524337323155524953746f726167653a2055524920736574206f66206e6f6e60008201527f6578697374656e7420746f6b656e000000000000000000000000000000000000602082015250565b600061589a602e836140d6565b91506158a58261583e565b604082019050919050565b600060208201905081810360008301526158c98161588d565b9050919050565b7f4552433732313a20617070726f766520746f2063616c6c657200000000000000600082015250565b60006159066019836140d6565b9150615911826158d0565b602082019050919050565b60006020820190508181036000830152615935816158f9565b9050919050565b7f4552433732313a207472616e7366657220746f206e6f6e20455243373231526560008201527f63656976657220696d706c656d656e7465720000000000000000000000000000602082015250565b60006159986032836140d6565b91506159a38261593c565b604082019050919050565b600060208201905081810360008301526159c78161598b565b9050919050565b7f4552433732314d657461646174613a2055524920717565727920666f72206e6f60008201527f6e6578697374656e7420746f6b656e0000000000000000000000000000000000602082015250565b6000615a2a602f836140d6565b9150615a35826159ce565b604082019050919050565b60006020820190508181036000830152615a5981615a1d565b9050919050565b600081519050919050565b600082825260208201905092915050565b6000615a8782615a60565b615a918185615a6b565b9350615aa18185602086016140e7565b615aaa81614111565b840191505092915050565b6000608082019050615aca6000830187614212565b615ad76020830186614212565b615ae460408301856142a8565b8181036060830152615af68184615a7c565b905095945050505050565b600081519050615b108161403c565b92915050565b600060208284031215615b2c57615b2b614006565b5b6000615b3a84828501615b01565b91505092915050565b7f4e487b7100000000000000000000000000000000000000000000000000000000600052601260045260246000fd5b6000615b7d8261417d565b9150615b888361417d565b925082615b9857615b97615b43565b5b828204905092915050565b6000615bae8261417d565b9150615bb98361417d565b925082615bc957615bc8615b43565b5b82820690509291505056fea26469706673582212200340b9a843c1cd4f8bfa8112ac43720dd65857f2dfb50d4ed18380efae19875c64736f6c63430008100033",
  "immutableReferences": {},
  "source": "//Contract based on [https://docs.openzeppelin.com/contracts/3.x/erc721](https://docs.openzeppelin.com/contracts/3.x/erc721)\r\n// SPDX-License-Identifier: MIT\r\npragma solidity ^0.8.0;\r\n\r\nimport \"@openzeppelin/contracts/token/ERC721/ERC721.sol\";\r\nimport \"@openzeppelin/contracts/utils/Counters.sol\";\r\nimport \"@openzeppelin/contracts/access/Ownable.sol\";\r\nimport \"@openzeppelin/contracts/token/ERC721/extensions/ERC721URIStorage.sol\";\r\n\r\ncontract DMSSign is ERC721URIStorage,Ownable{\r\n    using Counters for Counters.Counter;\r\n    Counters.Counter private _tokenIds;\r\n\r\n    mapping(address => uint256) private adminlist;\r\n    mapping(address => uint256) private blacklist;\r\n\r\n    mapping(address => mapping(uint256 => mapping(address => uint256))) private userSignedStatus;\r\n    mapping(address => mapping(uint256 => mapping(address => uint256))) private userSignedTime;\r\n    mapping(address => uint256 []) private userSignList;\r\n    mapping(uint256 => uint256) private signListIdx;\r\n    mapping(address => uint256 []) private userSignedList;\r\n    mapping(uint256 => uint256) private signedListIdx;\r\n    mapping(address => mapping(uint256 => mapping(address => uint256)))\r\n        private _signerList;\r\n\r\n    mapping(address => uint256[]) public nftListByAddress;\r\n    mapping(uint256 => uint256) public TokenIndex;\r\n    mapping(address => uint256) public userNumberNFT;\r\n    mapping(address => mapping(uint256 => string)) public tokenURI;\r\n    mapping(address => mapping(uint256 => address[])) public signerListOfDoc;\r\n    mapping(address => mapping(uint256 => uint256)) public count;\r\n\r\n    mapping(uint256 => uint256) public docIndex;\r\n    uint256 [] docList;\r\n\r\n    uint256 status = 0;\r\n\r\n    constructor() public ERC721(\"Grooo\", \"Doc\") {\r\n        adminlist[msg.sender] = 1;\r\n    }\r\n\r\n    /* \r\n================================================================\r\n                        LIST OF MODIFIERS\r\n================================================================\r\n */\r\n    modifier onlyAdmin() {\r\n        require(adminlist[msg.sender] == 1, \"OnlyAdmin\");\r\n        _;\r\n    }\r\n\r\n    modifier onlySigner(address nft, uint256 id) {\r\n        require(_signerList[nft][id][msg.sender] == 1, \"OnlySigner\");\r\n        _;\r\n    }\r\n\r\n    modifier isNotSigned(address nft, uint256 id) {\r\n        require(userSignedStatus[nft][id][msg.sender] == 0, \"IsNotSigned\");\r\n        _;\r\n    }\r\n\r\n    modifier isNotInBlackList(address account) {\r\n        require(!checkBlackList(account), \"Revert blacklist\");\r\n        _;\r\n    }\r\n    modifier eventGoingOn() {\r\n        require(status == 1, \"This feature has been stopped!\");\r\n        _;\r\n    }\r\n    modifier isNotAddressZero(address account) {\r\n        require(account != address(0), \"ERC20: transfer from the zero address\");\r\n        _;\r\n    }\r\n\r\n    function totalSupply() public view returns (uint256) {\r\n        return _tokenIds.current();\r\n    }\r\n\r\n    /* \r\n================================================================\r\n                        CHECK FUNCTION\r\n================================================================\r\n */\r\n\r\n    function checkAdmin(address account) public view returns (bool) {\r\n        return adminlist[account] > 0;\r\n    }\r\n\r\n    function checkSigner(\r\n        address nft,\r\n        uint256 id,\r\n        address account\r\n    ) public view returns (bool) {\r\n        return _signerList[nft][id][account] > 0;\r\n    }\r\n\r\n    function checkBlackList(address account) public view returns (bool) {\r\n        return blacklist[account] > 0;\r\n    }\r\n\r\n    /* \r\n================================================================\r\n                        MINT NFT\r\n================================================================\r\n */\r\n    function mintNFT(\r\n        address recipient,\r\n        string memory _tokenURI,\r\n        address[] memory signerList\r\n    ) public returns (uint256) {\r\n        _tokenIds.increment();\r\n        uint256 newItemId = _tokenIds.current();\r\n        _mint(recipient, newItemId);\r\n        _setTokenURI(newItemId, _tokenURI);\r\n        uint256 arrayLength = nftListByAddress[recipient].length;\r\n        TokenIndex[newItemId] = arrayLength;\r\n        nftListByAddress[recipient].push(newItemId);\r\n        userNumberNFT[recipient] += 1;\r\n        tokenURI[address(this)][newItemId] =_tokenURI;\r\n        signerListOfDoc[address(this)][newItemId] = signerList;\r\n\r\n        uint256 offerLength = docList.length;\r\n        docIndex[newItemId] = offerLength;\r\n        docList.push(newItemId);\r\n        \r\n        for (uint256 i = 0; i < signerList.length; i++) {\r\n            _signerList[address(this)][newItemId][signerList[i]] = 1;\r\n            uint256 len = userSignList[signerList[i]].length; \r\n            signListIdx[newItemId] = len;\r\n            userSignList[signerList[i]].push(newItemId);\r\n        }\r\n\r\n        emit NFTMinted(\r\n            msg.sender,\r\n            recipient,\r\n            newItemId,\r\n            userNumberNFT[recipient]\r\n        );\r\n        return newItemId;\r\n    }\r\n\r\n    function sign(address nft, uint256 tokenId)\r\n        public\r\n        onlySigner(nft, tokenId)\r\n        isNotSigned(nft, tokenId)\r\n    {\r\n        count[nft][tokenId] ++;\r\n        userSignedStatus[nft][tokenId][msg.sender] = 1; \r\n        userSignedTime[nft][tokenId][msg.sender] = block.timestamp;\r\n        uint256 index = signListIdx[tokenId];\r\n        uint256 len = userSignList[msg.sender].length; \r\n        if (len == 1) {\r\n            userSignList[msg.sender].pop();\r\n        } else {\r\n            uint256 pop = userSignList[msg.sender][len - 1];\r\n            userSignList[msg.sender][index] = pop;\r\n            userSignList[msg.sender].pop();\r\n            signListIdx[pop] = index;\r\n        }\r\n\r\n        uint256 length = userSignedList[msg.sender].length; \r\n        signedListIdx[tokenId] = length;\r\n        userSignedList[msg.sender].push(tokenId);\r\n    }\r\n\r\n    /* \r\n================================================================\r\n                        GET - SET FUNCTION\r\n================================================================\r\n*/\r\n    function getUserCollectionList()\r\n        public\r\n        view\r\n        returns (uint256[] memory)\r\n    {\r\n        address user = msg.sender;\r\n        return nftListByAddress[user];\r\n    }\r\n\r\n    function getDocList() public view returns (uint256[] memory) {\r\n        return docList;\r\n    }\r\n\r\n    function getUserNumberNFT(address user) public view returns (uint256) {\r\n        return userNumberNFT[user];\r\n    }\r\n\r\n    function getUserSignList() public view returns (uint256[] memory) {\r\n        address user = msg.sender;\r\n        return userSignList[user];\r\n    }\r\n\r\n    function getUserSignedList() public view returns (uint256[] memory) {\r\n        address user = msg.sender;\r\n        return userSignedList[user];\r\n    }\r\n\r\n    function startEvent() public onlyAdmin {\r\n        status = 1;\r\n        emit EventStarted(msg.sender, status);\r\n    }\r\n\r\n    function stopEvent() public onlyAdmin {\r\n        status = 0;\r\n        emit EventStopped(msg.sender, status);\r\n    }\r\n\r\n    /* \r\n================================================================\r\n                        TRANSFER\r\n================================================================\r\n*/\r\n    function checkTokenIndex(uint256 tokenId) public view returns (uint256) {\r\n        return TokenIndex[tokenId];\r\n    }\r\n\r\n    function _transfer(\r\n        address from,\r\n        address to,\r\n        uint256 tokenId\r\n    ) internal virtual override {\r\n        require(1 == 0, \"Can not transfer!\");\r\n    }\r\n\r\n\r\n    /* \r\n================================================================\r\n                        ADMIN LIST\r\n================================================================\r\n */\r\n    function addToAdminlist(address account) public onlyOwner {\r\n        adminlist[account] = 1;\r\n        emit AdminAdded(account);\r\n    }\r\n\r\n    function addBatchToAdminlist(address[] memory accounts) public onlyOwner {\r\n        for (uint256 i = 0; i < accounts.length; i++) {\r\n            adminlist[accounts[i]] = 1;\r\n        }\r\n        emit BatchAdminAdded(accounts);\r\n    }\r\n\r\n    function removeFromAdminlist(address account) public onlyOwner {\r\n        adminlist[account] = 0;\r\n        emit AdminRemoved(account);\r\n    }\r\n\r\n    /* \r\n================================================================\r\n                        BLACK LIST\r\n================================================================\r\n */\r\n\r\n    function addToBlacklist(address account) public onlyOwner {\r\n        blacklist[account] = 1;\r\n        emit BlacklistAdded(account);\r\n    }\r\n\r\n    function addBatchToBlacklist(address[] memory accounts) public onlyOwner {\r\n        for (uint256 i = 0; i < accounts.length; i++) {\r\n            blacklist[accounts[i]] = 1;\r\n        }\r\n        emit BatchBlacklistAdded(accounts);\r\n    }\r\n\r\n    function removeFromBlacklist(address account) public onlyOwner {\r\n        blacklist[account] = 0;\r\n        emit BlacklistRemoved(account);\r\n    }\r\n\r\n    /* \r\n================================================================\r\n                        SIGNER LIST\r\n================================================================\r\n */\r\n    function addToSignerlist(\r\n        address nft,\r\n        uint256 id,\r\n        address account\r\n    ) public onlyOwner {\r\n        _signerList[nft][id][account] = 1;\r\n        emit SignerAdded(account);\r\n    }\r\n\r\n    function addBatchToSignerlist(\r\n        address nft,\r\n        uint256 id,\r\n        address[] memory accounts\r\n    ) public onlyOwner {\r\n        for (uint256 i = 0; i < accounts.length; i++) {\r\n            _signerList[nft][id][accounts[i]] = 1;\r\n        }\r\n        emit BatchSignerAdded(accounts);\r\n    }\r\n\r\n    function removeFromSignerlist(\r\n        address nft,\r\n        uint256 id,\r\n        address account\r\n    ) public onlyOwner {\r\n        _signerList[nft][id][account] = 0;\r\n        emit SignerRemoved(account);\r\n    }\r\n\r\n    /* \r\n================================================================\r\n                            EVENT\r\n================================================================\r\n */\r\n    event BlacklistAdded(address account);\r\n    event BatchBlacklistAdded(address[] accounts);\r\n    event BlacklistRemoved(address account);\r\n\r\n    event AdminAdded(address account);\r\n    event BatchAdminAdded(address[] accounts);\r\n    event AdminRemoved(address account);\r\n\r\n    event SignerAdded(address account);\r\n    event BatchSignerAdded(address[] accounts);\r\n    event SignerRemoved(address account);\r\n\r\n    event OwnerNFTChanged(address from, address to, uint256 tokenID);\r\n    event EventStarted(address user, uint256 status);\r\n    event EventStopped(address user, uint256 status);\r\n    event WithDraw(uint256 amount);\r\n\r\n    event NFTMinted(\r\n        address user,\r\n        address wallet,\r\n        uint256 tokenID,\r\n        uint256 numNFTtri\r\n    );\r\n\r\n    function getDocInfo (uint256 tokenId) public view returns (string memory, address[] memory) {\r\n        string memory uri = tokenURI[address(this)][tokenId];\r\n        address[] memory list = signerListOfDoc[address(this)][tokenId];\r\n        return (uri, list);\r\n    }\r\n\r\n    function checkUserSignedStatus (uint256 tokenId, address user) public view returns (uint256) {\r\n        return userSignedStatus[address(this)][tokenId][user];\r\n    }\r\n\r\n    function checkUserSignedTime (uint256 tokenId, address user) public view returns (uint256) {\r\n        return userSignedTime[address(this)][tokenId][user];\r\n    }\r\n\r\n    function checkPublicStatus (uint256 tokenId) public view  returns (uint256) {\r\n        uint256 max_count = signerListOfDoc[address(this)][tokenId].length;\r\n        if (count[address(this)][tokenId] == max_count){\r\n            return 1;\r\n        } else {\r\n            return 0;\r\n        }\r\n    }\r\n\r\n    function getCurrentId () external view returns (uint256){\r\n        uint256 tokenIDNow = _tokenIds.current();\r\n        return tokenIDNow;\r\n    }\r\n}\r\n",
  "sourcePath": "C:\\Users\\ASROCK\\Desktop\\baoe-nft-marketplace\\src\\contracts\\DMSSign.sol",
  "compiler": {
    "name": "solc",
    "version": "0.8.16+commit.07a7930e.Emscripten.clang"
  },
  "schemaVersion": "3.4.7",
  "updatedAt": "2022-08-10T03:06:47.553Z",
  "networkType": "ethereum",
  "devdoc": {
    "kind": "dev",
    "methods": {
      "approve(address,uint256)": {
        "details": "See {IERC721-approve}."
      },
      "balanceOf(address)": {
        "details": "See {IERC721-balanceOf}."
      },
      "getApproved(uint256)": {
        "details": "See {IERC721-getApproved}."
      },
      "isApprovedForAll(address,address)": {
        "details": "See {IERC721-isApprovedForAll}."
      },
      "name()": {
        "details": "See {IERC721Metadata-name}."
      },
      "owner()": {
        "details": "Returns the address of the current owner."
      },
      "ownerOf(uint256)": {
        "details": "See {IERC721-ownerOf}."
      },
      "renounceOwnership()": {
        "details": "Leaves the contract without owner. It will not be possible to call `onlyOwner` functions anymore. Can only be called by the current owner. NOTE: Renouncing ownership will leave the contract without an owner, thereby removing any functionality that is only available to the owner."
      },
      "safeTransferFrom(address,address,uint256)": {
        "details": "See {IERC721-safeTransferFrom}."
      },
      "safeTransferFrom(address,address,uint256,bytes)": {
        "details": "See {IERC721-safeTransferFrom}."
      },
      "setApprovalForAll(address,bool)": {
        "details": "See {IERC721-setApprovalForAll}."
      },
      "supportsInterface(bytes4)": {
        "details": "See {IERC165-supportsInterface}."
      },
      "symbol()": {
        "details": "See {IERC721Metadata-symbol}."
      },
      "tokenURI(uint256)": {
        "details": "See {IERC721Metadata-tokenURI}."
      },
      "transferFrom(address,address,uint256)": {
        "details": "See {IERC721-transferFrom}."
      },
      "transferOwnership(address)": {
        "details": "Transfers ownership of the contract to a new account (`newOwner`). Can only be called by the current owner."
      }
    },
    "version": 1
  },
  "userdoc": {
    "kind": "user",
    "methods": {},
    "version": 1
  }
}