{
  "contractName": "MAoE",
  "abi": [
    {
      "inputs": [
        {
          "internalType": "address",
          "name": "_BUSD",
          "type": "address"
        },
        {
          "internalType": "address",
          "name": "_addressReceiver",
          "type": "address"
        },
        {
          "internalType": "address",
          "name": "_addressTreasury",
          "type": "address"
        },
        {
          "internalType": "address",
          "name": "_addressBurn",
          "type": "address"
        }
      ],
      "stateMutability": "nonpayable",
      "type": "constructor"
    },
    {
      "anonymous": false,
      "inputs": [
        {
          "indexed": false,
          "internalType": "uint256",
          "name": "status",
          "type": "uint256"
        }
      ],
      "name": "ActivateAntiBot",
      "type": "event"
    },
    {
      "anonymous": false,
      "inputs": [
        {
          "indexed": false,
          "internalType": "address",
          "name": "account",
          "type": "address"
        }
      ],
      "name": "AddedAdmin",
      "type": "event"
    },
    {
      "anonymous": false,
      "inputs": [
        {
          "indexed": false,
          "internalType": "address[]",
          "name": "accounts",
          "type": "address[]"
        }
      ],
      "name": "AddedBatchAdmin",
      "type": "event"
    },
    {
      "anonymous": false,
      "inputs": [
        {
          "indexed": true,
          "internalType": "address",
          "name": "owner",
          "type": "address"
        },
        {
          "indexed": true,
          "internalType": "address",
          "name": "spender",
          "type": "address"
        },
        {
          "indexed": false,
          "internalType": "uint256",
          "name": "value",
          "type": "uint256"
        }
      ],
      "name": "Approval",
      "type": "event"
    },
    {
      "anonymous": false,
      "inputs": [
        {
          "indexed": false,
          "internalType": "uint256",
          "name": "rate",
          "type": "uint256"
        }
      ],
      "name": "ChangeBurnRate",
      "type": "event"
    },
    {
      "anonymous": false,
      "inputs": [
        {
          "indexed": false,
          "internalType": "uint256",
          "name": "rate",
          "type": "uint256"
        }
      ],
      "name": "ChangeBuyFeeRate",
      "type": "event"
    },
    {
      "anonymous": false,
      "inputs": [
        {
          "indexed": false,
          "internalType": "uint256",
          "name": "rate",
          "type": "uint256"
        }
      ],
      "name": "ChangePercentAmountWhale",
      "type": "event"
    },
    {
      "anonymous": false,
      "inputs": [
        {
          "indexed": false,
          "internalType": "uint256",
          "name": "rate",
          "type": "uint256"
        }
      ],
      "name": "ChangeSellFeeRate",
      "type": "event"
    },
    {
      "anonymous": false,
      "inputs": [
        {
          "indexed": false,
          "internalType": "uint256",
          "name": "rate",
          "type": "uint256"
        }
      ],
      "name": "ChangeTransferRate",
      "type": "event"
    },
    {
      "anonymous": false,
      "inputs": [
        {
          "indexed": false,
          "internalType": "uint256",
          "name": "status",
          "type": "uint256"
        }
      ],
      "name": "DeactivateAntiBot",
      "type": "event"
    },
    {
      "anonymous": false,
      "inputs": [
        {
          "indexed": true,
          "internalType": "address",
          "name": "previousOwner",
          "type": "address"
        },
        {
          "indexed": true,
          "internalType": "address",
          "name": "newOwner",
          "type": "address"
        }
      ],
      "name": "OwnershipTransferred",
      "type": "event"
    },
    {
      "anonymous": false,
      "inputs": [
        {
          "indexed": false,
          "internalType": "address",
          "name": "account",
          "type": "address"
        }
      ],
      "name": "RemovedAdmin",
      "type": "event"
    },
    {
      "anonymous": false,
      "inputs": [
        {
          "indexed": true,
          "internalType": "address",
          "name": "from",
          "type": "address"
        },
        {
          "indexed": true,
          "internalType": "address",
          "name": "to",
          "type": "address"
        },
        {
          "indexed": false,
          "internalType": "uint256",
          "name": "value",
          "type": "uint256"
        }
      ],
      "name": "Transfer",
      "type": "event"
    },
    {
      "anonymous": false,
      "inputs": [
        {
          "indexed": false,
          "internalType": "address",
          "name": "sender",
          "type": "address"
        },
        {
          "indexed": false,
          "internalType": "address",
          "name": "recipient",
          "type": "address"
        },
        {
          "indexed": false,
          "internalType": "uint256",
          "name": "amount",
          "type": "uint256"
        }
      ],
      "name": "TransferStatus",
      "type": "event"
    },
    {
      "anonymous": false,
      "inputs": [
        {
          "indexed": false,
          "internalType": "uint256",
          "name": "amount",
          "type": "uint256"
        }
      ],
      "name": "WithDraw",
      "type": "event"
    },
    {
      "inputs": [
        {
          "internalType": "address",
          "name": "owner",
          "type": "address"
        },
        {
          "internalType": "address",
          "name": "spender",
          "type": "address"
        }
      ],
      "name": "allowance",
      "outputs": [
        {
          "internalType": "uint256",
          "name": "",
          "type": "uint256"
        }
      ],
      "stateMutability": "view",
      "type": "function",
      "constant": true
    },
    {
      "inputs": [],
      "name": "antiBot",
      "outputs": [
        {
          "internalType": "uint256",
          "name": "",
          "type": "uint256"
        }
      ],
      "stateMutability": "view",
      "type": "function",
      "constant": true
    },
    {
      "inputs": [
        {
          "internalType": "address",
          "name": "spender",
          "type": "address"
        },
        {
          "internalType": "uint256",
          "name": "amount",
          "type": "uint256"
        }
      ],
      "name": "approve",
      "outputs": [
        {
          "internalType": "bool",
          "name": "",
          "type": "bool"
        }
      ],
      "stateMutability": "nonpayable",
      "type": "function"
    },
    {
      "inputs": [
        {
          "internalType": "address",
          "name": "account",
          "type": "address"
        }
      ],
      "name": "balanceOf",
      "outputs": [
        {
          "internalType": "uint256",
          "name": "",
          "type": "uint256"
        }
      ],
      "stateMutability": "view",
      "type": "function",
      "constant": true
    },
    {
      "inputs": [],
      "name": "bpContract",
      "outputs": [
        {
          "internalType": "contract IBPContract",
          "name": "",
          "type": "address"
        }
      ],
      "stateMutability": "view",
      "type": "function",
      "constant": true
    },
    {
      "inputs": [],
      "name": "bpDisabledForever",
      "outputs": [
        {
          "internalType": "bool",
          "name": "",
          "type": "bool"
        }
      ],
      "stateMutability": "view",
      "type": "function",
      "constant": true
    },
    {
      "inputs": [],
      "name": "bpEnabled",
      "outputs": [
        {
          "internalType": "bool",
          "name": "",
          "type": "bool"
        }
      ],
      "stateMutability": "view",
      "type": "function",
      "constant": true
    },
    {
      "inputs": [],
      "name": "burnRate",
      "outputs": [
        {
          "internalType": "uint256",
          "name": "",
          "type": "uint256"
        }
      ],
      "stateMutability": "view",
      "type": "function",
      "constant": true
    },
    {
      "inputs": [],
      "name": "buyFeeRate",
      "outputs": [
        {
          "internalType": "uint256",
          "name": "",
          "type": "uint256"
        }
      ],
      "stateMutability": "view",
      "type": "function",
      "constant": true
    },
    {
      "inputs": [],
      "name": "decimals",
      "outputs": [
        {
          "internalType": "uint8",
          "name": "",
          "type": "uint8"
        }
      ],
      "stateMutability": "view",
      "type": "function",
      "constant": true
    },
    {
      "inputs": [
        {
          "internalType": "address",
          "name": "spender",
          "type": "address"
        },
        {
          "internalType": "uint256",
          "name": "subtractedValue",
          "type": "uint256"
        }
      ],
      "name": "decreaseAllowance",
      "outputs": [
        {
          "internalType": "bool",
          "name": "",
          "type": "bool"
        }
      ],
      "stateMutability": "nonpayable",
      "type": "function"
    },
    {
      "inputs": [
        {
          "internalType": "address",
          "name": "spender",
          "type": "address"
        },
        {
          "internalType": "uint256",
          "name": "addedValue",
          "type": "uint256"
        }
      ],
      "name": "increaseAllowance",
      "outputs": [
        {
          "internalType": "bool",
          "name": "",
          "type": "bool"
        }
      ],
      "stateMutability": "nonpayable",
      "type": "function"
    },
    {
      "inputs": [],
      "name": "name",
      "outputs": [
        {
          "internalType": "string",
          "name": "",
          "type": "string"
        }
      ],
      "stateMutability": "view",
      "type": "function",
      "constant": true
    },
    {
      "inputs": [],
      "name": "owner",
      "outputs": [
        {
          "internalType": "address",
          "name": "",
          "type": "address"
        }
      ],
      "stateMutability": "view",
      "type": "function",
      "constant": true
    },
    {
      "inputs": [],
      "name": "renounceOwnership",
      "outputs": [],
      "stateMutability": "nonpayable",
      "type": "function"
    },
    {
      "inputs": [],
      "name": "sellFeeRate",
      "outputs": [
        {
          "internalType": "uint256",
          "name": "",
          "type": "uint256"
        }
      ],
      "stateMutability": "view",
      "type": "function",
      "constant": true
    },
    {
      "inputs": [],
      "name": "symbol",
      "outputs": [
        {
          "internalType": "string",
          "name": "",
          "type": "string"
        }
      ],
      "stateMutability": "view",
      "type": "function",
      "constant": true
    },
    {
      "inputs": [],
      "name": "totalSupply",
      "outputs": [
        {
          "internalType": "uint256",
          "name": "",
          "type": "uint256"
        }
      ],
      "stateMutability": "view",
      "type": "function",
      "constant": true
    },
    {
      "inputs": [
        {
          "internalType": "address",
          "name": "recipient",
          "type": "address"
        },
        {
          "internalType": "uint256",
          "name": "amount",
          "type": "uint256"
        }
      ],
      "name": "transfer",
      "outputs": [
        {
          "internalType": "bool",
          "name": "",
          "type": "bool"
        }
      ],
      "stateMutability": "nonpayable",
      "type": "function"
    },
    {
      "inputs": [
        {
          "internalType": "address",
          "name": "sender",
          "type": "address"
        },
        {
          "internalType": "address",
          "name": "recipient",
          "type": "address"
        },
        {
          "internalType": "uint256",
          "name": "amount",
          "type": "uint256"
        }
      ],
      "name": "transferFrom",
      "outputs": [
        {
          "internalType": "bool",
          "name": "",
          "type": "bool"
        }
      ],
      "stateMutability": "nonpayable",
      "type": "function"
    },
    {
      "inputs": [
        {
          "internalType": "address",
          "name": "newOwner",
          "type": "address"
        }
      ],
      "name": "transferOwnership",
      "outputs": [],
      "stateMutability": "nonpayable",
      "type": "function"
    },
    {
      "inputs": [],
      "name": "transferRate",
      "outputs": [
        {
          "internalType": "uint256",
          "name": "",
          "type": "uint256"
        }
      ],
      "stateMutability": "view",
      "type": "function",
      "constant": true
    },
    {
      "inputs": [],
      "name": "treasuryRate",
      "outputs": [
        {
          "internalType": "uint256",
          "name": "",
          "type": "uint256"
        }
      ],
      "stateMutability": "view",
      "type": "function",
      "constant": true
    },
    {
      "inputs": [],
      "name": "uniswapV2Pair",
      "outputs": [
        {
          "internalType": "address",
          "name": "",
          "type": "address"
        }
      ],
      "stateMutability": "view",
      "type": "function",
      "constant": true
    },
    {
      "inputs": [
        {
          "internalType": "address",
          "name": "account",
          "type": "address"
        }
      ],
      "name": "checkAdmin",
      "outputs": [
        {
          "internalType": "bool",
          "name": "",
          "type": "bool"
        }
      ],
      "stateMutability": "view",
      "type": "function",
      "constant": true
    },
    {
      "inputs": [
        {
          "internalType": "address",
          "name": "account",
          "type": "address"
        }
      ],
      "name": "checkBlackList",
      "outputs": [
        {
          "internalType": "bool",
          "name": "",
          "type": "bool"
        }
      ],
      "stateMutability": "view",
      "type": "function",
      "constant": true
    },
    {
      "inputs": [],
      "name": "checkAntiBot",
      "outputs": [
        {
          "internalType": "bool",
          "name": "",
          "type": "bool"
        }
      ],
      "stateMutability": "view",
      "type": "function",
      "constant": true
    },
    {
      "inputs": [
        {
          "internalType": "address",
          "name": "addr",
          "type": "address"
        }
      ],
      "name": "setBPContract",
      "outputs": [],
      "stateMutability": "nonpayable",
      "type": "function"
    },
    {
      "inputs": [
        {
          "internalType": "bool",
          "name": "enabled",
          "type": "bool"
        }
      ],
      "name": "setBPEnabled",
      "outputs": [],
      "stateMutability": "nonpayable",
      "type": "function"
    },
    {
      "inputs": [],
      "name": "setBPDisableForever",
      "outputs": [],
      "stateMutability": "nonpayable",
      "type": "function"
    },
    {
      "inputs": [
        {
          "internalType": "uint256",
          "name": "amount",
          "type": "uint256"
        }
      ],
      "name": "withdrawTokenForOwner",
      "outputs": [],
      "stateMutability": "nonpayable",
      "type": "function"
    },
    {
      "inputs": [
        {
          "internalType": "address",
          "name": "token_address",
          "type": "address"
        },
        {
          "internalType": "uint256",
          "name": "amount",
          "type": "uint256"
        }
      ],
      "name": "withdrawBUSDForOwner",
      "outputs": [],
      "stateMutability": "nonpayable",
      "type": "function"
    },
    {
      "inputs": [
        {
          "internalType": "uint256",
          "name": "rate",
          "type": "uint256"
        }
      ],
      "name": "changeBuyFeeRate",
      "outputs": [],
      "stateMutability": "nonpayable",
      "type": "function"
    },
    {
      "inputs": [
        {
          "internalType": "uint256",
          "name": "rate",
          "type": "uint256"
        }
      ],
      "name": "changeBurnRate",
      "outputs": [],
      "stateMutability": "nonpayable",
      "type": "function"
    },
    {
      "inputs": [
        {
          "internalType": "uint256",
          "name": "rate",
          "type": "uint256"
        }
      ],
      "name": "changeSellFeeRate",
      "outputs": [],
      "stateMutability": "nonpayable",
      "type": "function"
    },
    {
      "inputs": [
        {
          "internalType": "uint256",
          "name": "rate",
          "type": "uint256"
        }
      ],
      "name": "changeTransferRate",
      "outputs": [],
      "stateMutability": "nonpayable",
      "type": "function"
    },
    {
      "inputs": [
        {
          "internalType": "uint256",
          "name": "rate",
          "type": "uint256"
        }
      ],
      "name": "changePercentAmountWhale",
      "outputs": [],
      "stateMutability": "nonpayable",
      "type": "function"
    },
    {
      "inputs": [],
      "name": "activateAntiBot",
      "outputs": [],
      "stateMutability": "nonpayable",
      "type": "function"
    },
    {
      "inputs": [],
      "name": "deactivateAntiBot",
      "outputs": [],
      "stateMutability": "nonpayable",
      "type": "function"
    },
    {
      "inputs": [
        {
          "internalType": "address",
          "name": "account",
          "type": "address"
        }
      ],
      "name": "addToAdminlist",
      "outputs": [],
      "stateMutability": "nonpayable",
      "type": "function"
    },
    {
      "inputs": [
        {
          "internalType": "address[]",
          "name": "accounts",
          "type": "address[]"
        }
      ],
      "name": "addBatchToAdminlist",
      "outputs": [],
      "stateMutability": "nonpayable",
      "type": "function"
    },
    {
      "inputs": [
        {
          "internalType": "address",
          "name": "account",
          "type": "address"
        }
      ],
      "name": "removeFromAdminlist",
      "outputs": [],
      "stateMutability": "nonpayable",
      "type": "function"
    },
    {
      "inputs": [
        {
          "internalType": "address",
          "name": "account",
          "type": "address"
        }
      ],
      "name": "addToBlacklist",
      "outputs": [],
      "stateMutability": "nonpayable",
      "type": "function"
    },
    {
      "inputs": [
        {
          "internalType": "address[]",
          "name": "accounts",
          "type": "address[]"
        }
      ],
      "name": "addBatchToBlacklist",
      "outputs": [],
      "stateMutability": "nonpayable",
      "type": "function"
    },
    {
      "inputs": [
        {
          "internalType": "address",
          "name": "account",
          "type": "address"
        }
      ],
      "name": "removeFromBlacklist",
      "outputs": [],
      "stateMutability": "nonpayable",
      "type": "function"
    }
  ],
  "bytecode": "0x60806040526000600d556000600e556000600f55600060105560646011556107d06012556113886013553480156200003657600080fd5b5060405162004bd138038062004bd183398181016040528101906200005c919062000789565b6040518060400160405280600a81526020017f4d416f4520546f6b656e000000000000000000000000000000000000000000008152506040518060400160405280600481526020017f4d416f45000000000000000000000000000000000000000000000000000000008152508160039081620000d9919062000a75565b508060049081620000eb919062000a75565b5050506200010e62000102620003ee60201b60201c565b620003f660201b60201c565b6200012b336acecb8f27f4200f3a000000620004bc60201b60201c565b6001600660003373ffffffffffffffffffffffffffffffffffffffff1673ffffffffffffffffffffffffffffffffffffffff1681526020019081526020016000208190555083600860006101000a81548173ffffffffffffffffffffffffffffffffffffffff021916908373ffffffffffffffffffffffffffffffffffffffff16021790555082600960006101000a81548173ffffffffffffffffffffffffffffffffffffffff021916908373ffffffffffffffffffffffffffffffffffffffff16021790555081600a60006101000a81548173ffffffffffffffffffffffffffffffffffffffff021916908373ffffffffffffffffffffffffffffffffffffffff16021790555080600b60006101000a81548173ffffffffffffffffffffffffffffffffffffffff021916908373ffffffffffffffffffffffffffffffffffffffff1602179055506000739ac64cc6e4415144c455bd8e4837fea55603e5c390508073ffffffffffffffffffffffffffffffffffffffff1663c45a01556040518163ffffffff1660e01b8152600401602060405180830381865afa158015620002d9573d6000803e3d6000fd5b505050506040513d601f19601f82011682018060405250810190620002ff919062000b5c565b73ffffffffffffffffffffffffffffffffffffffff1663c9c6539630600860009054906101000a900473ffffffffffffffffffffffffffffffffffffffff166040518363ffffffff1660e01b81526004016200035d92919062000b9f565b6020604051808303816000875af11580156200037d573d6000803e3d6000fd5b505050506040513d601f19601f82011682018060405250810190620003a3919062000b5c565b600c60006101000a81548173ffffffffffffffffffffffffffffffffffffffff021916908373ffffffffffffffffffffffffffffffffffffffff160217905550505050505062000d24565b600033905090565b6000600560009054906101000a900473ffffffffffffffffffffffffffffffffffffffff16905081600560006101000a81548173ffffffffffffffffffffffffffffffffffffffff021916908373ffffffffffffffffffffffffffffffffffffffff1602179055508173ffffffffffffffffffffffffffffffffffffffff168173ffffffffffffffffffffffffffffffffffffffff167f8be0079c531659141344cd1fd0a4f28419497f9722a3daafe3b4186f6b6457e060405160405180910390a35050565b600073ffffffffffffffffffffffffffffffffffffffff168273ffffffffffffffffffffffffffffffffffffffff16036200052e576040517f08c379a0000000000000000000000000000000000000000000000000000000008152600401620005259062000c2d565b60405180910390fd5b62000542600083836200063460201b60201c565b806002600082825462000556919062000c7e565b92505081905550806000808473ffffffffffffffffffffffffffffffffffffffff1673ffffffffffffffffffffffffffffffffffffffff1681526020019081526020016000206000828254620005ad919062000c7e565b925050819055508173ffffffffffffffffffffffffffffffffffffffff16600073ffffffffffffffffffffffffffffffffffffffff167fddf252ad1be2c89b69c2b068fc378daa952ba7f163c4a11628f55a4df523b3ef8360405162000614919062000cca565b60405180910390a362000630600083836200071560201b60201c565b5050565b60148054906101000a900460ff1680156200065c5750601460159054906101000a900460ff16155b15620006f857601460009054906101000a900473ffffffffffffffffffffffffffffffffffffffff1673ffffffffffffffffffffffffffffffffffffffff16637e2f3afd8484846040518463ffffffff1660e01b8152600401620006c39392919062000ce7565b600060405180830381600087803b158015620006de57600080fd5b505af1158015620006f3573d6000803e3d6000fd5b505050505b620007108383836200071a60201b620021311760201c565b505050565b505050565b505050565b600080fd5b600073ffffffffffffffffffffffffffffffffffffffff82169050919050565b6000620007518262000724565b9050919050565b620007638162000744565b81146200076f57600080fd5b50565b600081519050620007838162000758565b92915050565b60008060008060808587031215620007a657620007a56200071f565b5b6000620007b68782880162000772565b9450506020620007c98782880162000772565b9350506040620007dc8782880162000772565b9250506060620007ef8782880162000772565b91505092959194509250565b600081519050919050565b7f4e487b7100000000000000000000000000000000000000000000000000000000600052604160045260246000fd5b7f4e487b7100000000000000000000000000000000000000000000000000000000600052602260045260246000fd5b600060028204905060018216806200087d57607f821691505b60208210810362000893576200089262000835565b5b50919050565b60008190508160005260206000209050919050565b60006020601f8301049050919050565b600082821b905092915050565b600060088302620008fd7fffffffffffffffffffffffffffffffffffffffffffffffffffffffffffffffff82620008be565b620009098683620008be565b95508019841693508086168417925050509392505050565b6000819050919050565b6000819050919050565b600062000956620009506200094a8462000921565b6200092b565b62000921565b9050919050565b6000819050919050565b620009728362000935565b6200098a62000981826200095d565b848454620008cb565b825550505050565b600090565b620009a162000992565b620009ae81848462000967565b505050565b5b81811015620009d657620009ca60008262000997565b600181019050620009b4565b5050565b601f82111562000a2557620009ef8162000899565b620009fa84620008ae565b8101602085101562000a0a578190505b62000a2262000a1985620008ae565b830182620009b3565b50505b505050565b600082821c905092915050565b600062000a4a6000198460080262000a2a565b1980831691505092915050565b600062000a65838362000a37565b9150826002028217905092915050565b62000a8082620007fb565b67ffffffffffffffff81111562000a9c5762000a9b62000806565b5b62000aa8825462000864565b62000ab5828285620009da565b600060209050601f83116001811462000aed576000841562000ad8578287015190505b62000ae4858262000a57565b86555062000b54565b601f19841662000afd8662000899565b60005b8281101562000b275784890151825560018201915060208501945060208101905062000b00565b8683101562000b47578489015162000b43601f89168262000a37565b8355505b6001600288020188555050505b505050505050565b60006020828403121562000b755762000b746200071f565b5b600062000b858482850162000772565b91505092915050565b62000b998162000744565b82525050565b600060408201905062000bb6600083018562000b8e565b62000bc5602083018462000b8e565b9392505050565b600082825260208201905092915050565b7f45524332303a206d696e7420746f20746865207a65726f206164647265737300600082015250565b600062000c15601f8362000bcc565b915062000c228262000bdd565b602082019050919050565b6000602082019050818103600083015262000c488162000c06565b9050919050565b7f4e487b7100000000000000000000000000000000000000000000000000000000600052601160045260246000fd5b600062000c8b8262000921565b915062000c988362000921565b925082820190508082111562000cb35762000cb262000c4f565b5b92915050565b62000cc48162000921565b82525050565b600060208201905062000ce1600083018462000cb9565b92915050565b600060608201905062000cfe600083018662000b8e565b62000d0d602083018562000b8e565b62000d1c604083018462000cb9565b949350505050565b613e9d8062000d346000396000f3fe608060405234801561001057600080fd5b506004361061027f5760003560e01c806378f745601161015c578063af59d316116100ce578063dd62ed3e11610087578063dd62ed3e1461072a578063e4b725161461075a578063e4f282ad14610778578063f0b2a9b5146107a8578063f2fde38b146107c4578063f74be98a146107e05761027f565b8063af59d316146106a2578063b6c89215146106be578063bed99850146106dc578063c17d2a06146106fa578063c71a1b8314610704578063db6027371461070e5761027f565b80639026dee8116101205780639026dee8146105bc578063959f4bf1146105ec57806395d89b4114610608578063a457c2d714610626578063a9059cbb14610656578063af200252146106865761027f565b806378f745601461052a5780637cfb384d146105465780637dfcbe34146105625780638da5cb5b146105805780638e131e5d1461059e5761027f565b806349bd5a5e116101f55780635b149feb116101b95780635b149feb1461047c5780636b1b49871461049a57806370a08231146104b8578063715018a6146104e8578063736ddf90146104f2578063759e22c71461050e5761027f565b806349bd5a5e146103ea5780634aaee11214610408578063537df3b614610426578063568510601461044257806359c002271461045e5761027f565b806323b872dd1161024757806323b872dd1461031657806326898da914610346578063313ce56714610364578063395093511461038257806344337ea1146103b2578063471e9c2b146103ce5761027f565b806306fdde0314610284578063095ea7b3146102a257806318160ddd146102d2578063188ee423146102f057806322f44e1a146102fa575b600080fd5b61028c6107fc565b6040516102999190612ddb565b60405180910390f35b6102bc60048036038101906102b79190612ea5565b61088e565b6040516102c99190612f00565b60405180910390f35b6102da6108ac565b6040516102e79190612f2a565b60405180910390f35b6102f86108b6565b005b610314600480360381019061030f9190612f45565b610982565b005b610330600480360381019061032b9190612f72565b610a7d565b60405161033d9190612f00565b60405180910390f35b61034e610b75565b60405161035b9190612f00565b60405180910390f35b61036c610b86565b6040516103799190612fe1565b60405180910390f35b61039c60048036038101906103979190612ea5565b610b8f565b6040516103a99190612f00565b60405180910390f35b6103cc60048036038101906103c79190612f45565b610c3b565b005b6103e860048036038101906103e39190613144565b610d36565b005b6103f2610e6b565b6040516103ff919061319c565b60405180910390f35b610410610e91565b60405161041d9190612f00565b60405180910390f35b610440600480360381019061043b9190612f45565b610ea4565b005b61045c600480360381019061045791906131b7565b610f9f565b005b61046661106b565b6040516104739190613243565b60405180910390f35b610484611091565b6040516104919190612f2a565b60405180910390f35b6104a2611097565b6040516104af9190612f2a565b60405180910390f35b6104d260048036038101906104cd9190612f45565b61109d565b6040516104df9190612f2a565b60405180910390f35b6104f06110e5565b005b61050c60048036038101906105079190612ea5565b61116d565b005b610528600480360381019061052391906131b7565b61130d565b005b610544600480360381019061053f9190612f45565b6113d9565b005b610560600480360381019061055b9190613144565b611508565b005b61056a61163d565b6040516105779190612f2a565b60405180910390f35b610588611643565b604051610595919061319c565b60405180910390f35b6105a661166d565b6040516105b39190612f2a565b60405180910390f35b6105d660048036038101906105d19190612f45565b611673565b6040516105e39190612f00565b60405180910390f35b610606600480360381019061060191906131b7565b6116be565b005b61061061178a565b60405161061d9190612ddb565b60405180910390f35b610640600480360381019061063b9190612ea5565b61181c565b60405161064d9190612f00565b60405180910390f35b610670600480360381019061066b9190612ea5565b611907565b60405161067d9190612f00565b60405180910390f35b6106a0600480360381019061069b919061328a565b611925565b005b6106bc60048036038101906106b791906131b7565b6119bd565b005b6106c6611a89565b6040516106d39190612f00565b60405180910390f35b6106e4611aa4565b6040516106f19190612f2a565b60405180910390f35b610702611aaa565b005b61070c611b93565b005b610728600480360381019061072391906131b7565b611c5f565b005b610744600480360381019061073f91906132b7565b611d2b565b6040516107519190612f2a565b60405180910390f35b610762611db2565b60405161076f9190612f2a565b60405180910390f35b610792600480360381019061078d9190612f45565b611db8565b60405161079f9190612f00565b60405180910390f35b6107c260048036038101906107bd91906131b7565b611e03565b005b6107de60048036038101906107d99190612f45565b611f3f565b005b6107fa60048036038101906107f59190612f45565b612036565b005b60606003805461080b90613326565b80601f016020809104026020016040519081016040528092919081815260200182805461083790613326565b80156108845780601f1061085957610100808354040283529160200191610884565b820191906000526020600020905b81548152906001019060200180831161086757829003601f168201915b5050505050905090565b60006108a261089b612136565b848461213e565b6001905092915050565b6000600254905090565b6001600660006108c4612136565b73ffffffffffffffffffffffffffffffffffffffff1673ffffffffffffffffffffffffffffffffffffffff168152602001908152602001600020541461093f576040517f08c379a0000000000000000000000000000000000000000000000000000000008152600401610936906133a3565b60405180910390fd5b60016010819055507ff7f4561939596fa48951a89065acfc175245c43e1fda525d9ead07e35854a1316010546040516109789190612f2a565b60405180910390a1565b61098a612136565b73ffffffffffffffffffffffffffffffffffffffff166109a8611643565b73ffffffffffffffffffffffffffffffffffffffff16146109fe576040517f08c379a00000000000000000000000000000000000000000000000000000000081526004016109f59061340f565b60405180910390fd5b6000600660008373ffffffffffffffffffffffffffffffffffffffff1673ffffffffffffffffffffffffffffffffffffffff168152602001908152602001600020819055507f3137a7fedbfedb7895dfa5a6812a4566dae9ded68d00aeec13c6ed1fa84a1c8081604051610a72919061319c565b60405180910390a150565b6000610a8a848484612307565b6000600160008673ffffffffffffffffffffffffffffffffffffffff1673ffffffffffffffffffffffffffffffffffffffff1681526020019081526020016000206000610ad5612136565b73ffffffffffffffffffffffffffffffffffffffff1673ffffffffffffffffffffffffffffffffffffffff16815260200190815260200160002054905082811015610b55576040517f08c379a0000000000000000000000000000000000000000000000000000000008152600401610b4c906134a1565b60405180910390fd5b610b6985610b61612136565b85840361213e565b60019150509392505050565b60148054906101000a900460ff1681565b60006012905090565b6000610c31610b9c612136565b848460016000610baa612136565b73ffffffffffffffffffffffffffffffffffffffff1673ffffffffffffffffffffffffffffffffffffffff16815260200190815260200160002060008873ffffffffffffffffffffffffffffffffffffffff1673ffffffffffffffffffffffffffffffffffffffff16815260200190815260200160002054610c2c91906134f0565b61213e565b6001905092915050565b610c43612136565b73ffffffffffffffffffffffffffffffffffffffff16610c61611643565b73ffffffffffffffffffffffffffffffffffffffff1614610cb7576040517f08c379a0000000000000000000000000000000000000000000000000000000008152600401610cae9061340f565b60405180910390fd5b6001600760008373ffffffffffffffffffffffffffffffffffffffff1673ffffffffffffffffffffffffffffffffffffffff168152602001908152602001600020819055507f7849194239ab1d31b991b5436d81370256505cf25eaafbcccbc66acd1189691681604051610d2b919061319c565b60405180910390a150565b610d3e612136565b73ffffffffffffffffffffffffffffffffffffffff16610d5c611643565b73ffffffffffffffffffffffffffffffffffffffff1614610db2576040517f08c379a0000000000000000000000000000000000000000000000000000000008152600401610da99061340f565b60405180910390fd5b60005b8151811015610e3057600160066000848481518110610dd757610dd6613524565b5b602002602001015173ffffffffffffffffffffffffffffffffffffffff1673ffffffffffffffffffffffffffffffffffffffff168152602001908152602001600020819055508080610e2890613553565b915050610db5565b507f50ef3c98205d5e68c61bee2f0eefadef2323effb36e2d636eac9306418b3f1c981604051610e609190613659565b60405180910390a150565b600c60009054906101000a900473ffffffffffffffffffffffffffffffffffffffff1681565b601460159054906101000a900460ff1681565b610eac612136565b73ffffffffffffffffffffffffffffffffffffffff16610eca611643565b73ffffffffffffffffffffffffffffffffffffffff1614610f20576040517f08c379a0000000000000000000000000000000000000000000000000000000008152600401610f179061340f565b60405180910390fd5b6000600760008373ffffffffffffffffffffffffffffffffffffffff1673ffffffffffffffffffffffffffffffffffffffff168152602001908152602001600020819055507f3137a7fedbfedb7895dfa5a6812a4566dae9ded68d00aeec13c6ed1fa84a1c8081604051610f94919061319c565b60405180910390a150565b600160066000610fad612136565b73ffffffffffffffffffffffffffffffffffffffff1673ffffffffffffffffffffffffffffffffffffffff1681526020019081526020016000205414611028576040517f08c379a000000000000000000000000000000000000000000000000000000000815260040161101f906133a3565b60405180910390fd5b806012819055507f29554bf58a152518d365568f99f2e12e7df7156d1907e6c4fa39e6b437d8223b6012546040516110609190612f2a565b60405180910390a150565b601460009054906101000a900473ffffffffffffffffffffffffffffffffffffffff1681565b600d5481565b600e5481565b60008060008373ffffffffffffffffffffffffffffffffffffffff1673ffffffffffffffffffffffffffffffffffffffff168152602001908152602001600020549050919050565b6110ed612136565b73ffffffffffffffffffffffffffffffffffffffff1661110b611643565b73ffffffffffffffffffffffffffffffffffffffff1614611161576040517f08c379a00000000000000000000000000000000000000000000000000000000081526004016111589061340f565b60405180910390fd5b61116b6000612440565b565b611175612136565b73ffffffffffffffffffffffffffffffffffffffff16611193611643565b73ffffffffffffffffffffffffffffffffffffffff16146111e9576040517f08c379a00000000000000000000000000000000000000000000000000000000081526004016111e09061340f565b60405180910390fd5b81601560006101000a81548173ffffffffffffffffffffffffffffffffffffffff021916908373ffffffffffffffffffffffffffffffffffffffff160217905550601560009054906101000a900473ffffffffffffffffffffffffffffffffffffffff1673ffffffffffffffffffffffffffffffffffffffff1663a9059cbb611270611643565b836040518363ffffffff1660e01b815260040161128e92919061367b565b6020604051808303816000875af11580156112ad573d6000803e3d6000fd5b505050506040513d601f19601f820116820180604052508101906112d191906136b9565b507fcbe159bbfa02836af5ba6d951958879a5d0b207331524c51ef4a58c95421e312816040516113019190612f2a565b60405180910390a15050565b60016006600061131b612136565b73ffffffffffffffffffffffffffffffffffffffff1673ffffffffffffffffffffffffffffffffffffffff1681526020019081526020016000205414611396576040517f08c379a000000000000000000000000000000000000000000000000000000000815260040161138d906133a3565b60405180910390fd5b806011819055507f50693244f4217f6549414ccc174c8d357d3036d97975fe95daa5112fd8011705600d546040516113ce9190612f2a565b60405180910390a150565b6113e1612136565b73ffffffffffffffffffffffffffffffffffffffff166113ff611643565b73ffffffffffffffffffffffffffffffffffffffff1614611455576040517f08c379a000000000000000000000000000000000000000000000000000000000815260040161144c9061340f565b60405180910390fd5b600073ffffffffffffffffffffffffffffffffffffffff168173ffffffffffffffffffffffffffffffffffffffff16036114c4576040517f08c379a00000000000000000000000000000000000000000000000000000000081526004016114bb90613732565b60405180910390fd5b80601460006101000a81548173ffffffffffffffffffffffffffffffffffffffff021916908373ffffffffffffffffffffffffffffffffffffffff16021790555050565b611510612136565b73ffffffffffffffffffffffffffffffffffffffff1661152e611643565b73ffffffffffffffffffffffffffffffffffffffff1614611584576040517f08c379a000000000000000000000000000000000000000000000000000000000815260040161157b9061340f565b60405180910390fd5b60005b8151811015611602576001600760008484815181106115a9576115a8613524565b5b602002602001015173ffffffffffffffffffffffffffffffffffffffff1673ffffffffffffffffffffffffffffffffffffffff1681526020019081526020016000208190555080806115fa90613553565b915050611587565b507f50ef3c98205d5e68c61bee2f0eefadef2323effb36e2d636eac9306418b3f1c9816040516116329190613659565b60405180910390a150565b60105481565b6000600560009054906101000a900473ffffffffffffffffffffffffffffffffffffffff16905090565b600f5481565b600080600660008473ffffffffffffffffffffffffffffffffffffffff1673ffffffffffffffffffffffffffffffffffffffff16815260200190815260200160002054119050919050565b6001600660006116cc612136565b73ffffffffffffffffffffffffffffffffffffffff1673ffffffffffffffffffffffffffffffffffffffff1681526020019081526020016000205414611747576040517f08c379a000000000000000000000000000000000000000000000000000000000815260040161173e906133a3565b60405180910390fd5b80600e819055507f54372c181a3a88010bff7dda5b5c4321b93db10822dd0904ba67fbb4a833ccaa600e5460405161177f9190612f2a565b60405180910390a150565b60606004805461179990613326565b80601f01602080910402602001604051908101604052809291908181526020018280546117c590613326565b80156118125780601f106117e757610100808354040283529160200191611812565b820191906000526020600020905b8154815290600101906020018083116117f557829003601f168201915b5050505050905090565b6000806001600061182b612136565b73ffffffffffffffffffffffffffffffffffffffff1673ffffffffffffffffffffffffffffffffffffffff16815260200190815260200160002060008573ffffffffffffffffffffffffffffffffffffffff1673ffffffffffffffffffffffffffffffffffffffff168152602001908152602001600020549050828110156118e8576040517f08c379a00000000000000000000000000000000000000000000000000000000081526004016118df906137c4565b60405180910390fd5b6118fc6118f3612136565b8585840361213e565b600191505092915050565b600061191b611914612136565b8484612307565b6001905092915050565b61192d612136565b73ffffffffffffffffffffffffffffffffffffffff1661194b611643565b73ffffffffffffffffffffffffffffffffffffffff16146119a1576040517f08c379a00000000000000000000000000000000000000000000000000000000081526004016119989061340f565b60405180910390fd5b806014806101000a81548160ff02191690831515021790555050565b6001600660006119cb612136565b73ffffffffffffffffffffffffffffffffffffffff1673ffffffffffffffffffffffffffffffffffffffff1681526020019081526020016000205414611a46576040517f08c379a0000000000000000000000000000000000000000000000000000000008152600401611a3d906133a3565b60405180910390fd5b80600d819055507f0368b7baa0867da8213253d40ce4218354e4d4037ce85c1815723f2e1b36fba0600d54604051611a7e9190612f2a565b60405180910390a150565b6000600160105414611a9c576000611a9f565b60015b905090565b60125481565b611ab2612136565b73ffffffffffffffffffffffffffffffffffffffff16611ad0611643565b73ffffffffffffffffffffffffffffffffffffffff1614611b26576040517f08c379a0000000000000000000000000000000000000000000000000000000008152600401611b1d9061340f565b60405180910390fd5b601460159054906101000a900460ff1615611b76576040517f08c379a0000000000000000000000000000000000000000000000000000000008152600401611b6d90613830565b60405180910390fd5b6001601460156101000a81548160ff021916908315150217905550565b600160066000611ba1612136565b73ffffffffffffffffffffffffffffffffffffffff1673ffffffffffffffffffffffffffffffffffffffff1681526020019081526020016000205414611c1c576040517f08c379a0000000000000000000000000000000000000000000000000000000008152600401611c13906133a3565b60405180910390fd5b60006010819055507fe71b30b23686eacb0e6053d50015ae7730e0a5e49a4f84c10ccc32207569d0a3601054604051611c559190612f2a565b60405180910390a1565b600160066000611c6d612136565b73ffffffffffffffffffffffffffffffffffffffff1673ffffffffffffffffffffffffffffffffffffffff1681526020019081526020016000205414611ce8576040517f08c379a0000000000000000000000000000000000000000000000000000000008152600401611cdf906133a3565b60405180910390fd5b80600f819055507facca50f4d3c8eaac3c25af5823d0d87bb6fcb63f606ff427500ee53d15a3c867600f54604051611d209190612f2a565b60405180910390a150565b6000600160008473ffffffffffffffffffffffffffffffffffffffff1673ffffffffffffffffffffffffffffffffffffffff16815260200190815260200160002060008373ffffffffffffffffffffffffffffffffffffffff1673ffffffffffffffffffffffffffffffffffffffff16815260200190815260200160002054905092915050565b60135481565b600080600760008473ffffffffffffffffffffffffffffffffffffffff1673ffffffffffffffffffffffffffffffffffffffff16815260200190815260200160002054119050919050565b611e0b612136565b73ffffffffffffffffffffffffffffffffffffffff16611e29611643565b73ffffffffffffffffffffffffffffffffffffffff1614611e7f576040517f08c379a0000000000000000000000000000000000000000000000000000000008152600401611e769061340f565b60405180910390fd5b3073ffffffffffffffffffffffffffffffffffffffff1663a9059cbb611ea3611643565b836040518363ffffffff1660e01b8152600401611ec192919061367b565b6020604051808303816000875af1158015611ee0573d6000803e3d6000fd5b505050506040513d601f19601f82011682018060405250810190611f0491906136b9565b507fcbe159bbfa02836af5ba6d951958879a5d0b207331524c51ef4a58c95421e31281604051611f349190612f2a565b60405180910390a150565b611f47612136565b73ffffffffffffffffffffffffffffffffffffffff16611f65611643565b73ffffffffffffffffffffffffffffffffffffffff1614611fbb576040517f08c379a0000000000000000000000000000000000000000000000000000000008152600401611fb29061340f565b60405180910390fd5b600073ffffffffffffffffffffffffffffffffffffffff168173ffffffffffffffffffffffffffffffffffffffff160361202a576040517f08c379a0000000000000000000000000000000000000000000000000000000008152600401612021906138c2565b60405180910390fd5b61203381612440565b50565b61203e612136565b73ffffffffffffffffffffffffffffffffffffffff1661205c611643565b73ffffffffffffffffffffffffffffffffffffffff16146120b2576040517f08c379a00000000000000000000000000000000000000000000000000000000081526004016120a99061340f565b60405180910390fd5b6001600660008373ffffffffffffffffffffffffffffffffffffffff1673ffffffffffffffffffffffffffffffffffffffff168152602001908152602001600020819055507f7849194239ab1d31b991b5436d81370256505cf25eaafbcccbc66acd1189691681604051612126919061319c565b60405180910390a150565b505050565b600033905090565b600073ffffffffffffffffffffffffffffffffffffffff168373ffffffffffffffffffffffffffffffffffffffff16036121ad576040517f08c379a00000000000000000000000000000000000000000000000000000000081526004016121a490613954565b60405180910390fd5b600073ffffffffffffffffffffffffffffffffffffffff168273ffffffffffffffffffffffffffffffffffffffff160361221c576040517f08c379a0000000000000000000000000000000000000000000000000000000008152600401612213906139e6565b60405180910390fd5b80600160008573ffffffffffffffffffffffffffffffffffffffff1673ffffffffffffffffffffffffffffffffffffffff16815260200190815260200160002060008473ffffffffffffffffffffffffffffffffffffffff1673ffffffffffffffffffffffffffffffffffffffff168152602001908152602001600020819055508173ffffffffffffffffffffffffffffffffffffffff168373ffffffffffffffffffffffffffffffffffffffff167f8c5be1e5ebec7d5bd14f71427d1e84f3dd0314c0f7b2291e5b200ac8c7c3b925836040516122fa9190612f2a565b60405180910390a3505050565b6000612314848484612506565b9050600081111561242f57600061271082846123309190613a06565b61233a9190613a8f565b905060006127106012548361234f9190613a06565b6123599190613a8f565b905060006127106013548461236e9190613a06565b6123789190613a8f565b905060008183856123899190613ac0565b6123939190613ac0565b90506123c288600960009054906101000a900473ffffffffffffffffffffffffffffffffffffffff16836129f9565b6123ef88600a60009054906101000a900473ffffffffffffffffffffffffffffffffffffffff16846129f9565b61241c88600b60009054906101000a900473ffffffffffffffffffffffffffffffffffffffff16856129f9565b83866124289190613ac0565b9550505050505b61243a8484846129f9565b50505050565b6000600560009054906101000a900473ffffffffffffffffffffffffffffffffffffffff16905081600560006101000a81548173ffffffffffffffffffffffffffffffffffffffff021916908373ffffffffffffffffffffffffffffffffffffffff1602179055508173ffffffffffffffffffffffffffffffffffffffff168173ffffffffffffffffffffffffffffffffffffffff167f8be0079c531659141344cd1fd0a4f28419497f9722a3daafe3b4186f6b6457e060405160405180910390a35050565b60008361251281611db8565b15612552576040517f08c379a000000000000000000000000000000000000000000000000000000000815260040161254990613b40565b60405180910390fd5b8361255c81611db8565b1561259c576040517f08c379a000000000000000000000000000000000000000000000000000000000815260040161259390613b40565b60405180910390fd5b85600073ffffffffffffffffffffffffffffffffffffffff168173ffffffffffffffffffffffffffffffffffffffff160361260c576040517f08c379a000000000000000000000000000000000000000000000000000000000815260040161260390613bd2565b60405180910390fd5b85600073ffffffffffffffffffffffffffffffffffffffff168173ffffffffffffffffffffffffffffffffffffffff160361267c576040517f08c379a000000000000000000000000000000000000000000000000000000000815260040161267390613bd2565b60405180910390fd5b6000612686611a89565b156126ec5761269489611673565b806126a457506126a388611673565b5b6126e3576040517f08c379a00000000000000000000000000000000000000000000000000000000081526004016126da90613c3e565b60405180910390fd5b600090506129ea565b600c60009054906101000a900473ffffffffffffffffffffffffffffffffffffffff1673ffffffffffffffffffffffffffffffffffffffff168873ffffffffffffffffffffffffffffffffffffffff160361285b5761274a89611673565b156127585760009050612856565b6127106011543073ffffffffffffffffffffffffffffffffffffffff166370a08231600c60009054906101000a900473ffffffffffffffffffffffffffffffffffffffff166040518263ffffffff1660e01b81526004016127b9919061319c565b602060405180830381865afa1580156127d6573d6000803e3d6000fd5b505050506040513d601f19601f820116820180604052508101906127fa9190613c73565b6128049190613a06565b61280e9190613a8f565b871115612850576040517f08c379a000000000000000000000000000000000000000000000000000000000815260040161284790613cec565b60405180910390fd5b600d5490505b6129e9565b600c60009054906101000a900473ffffffffffffffffffffffffffffffffffffffff1673ffffffffffffffffffffffffffffffffffffffff168973ffffffffffffffffffffffffffffffffffffffff16036129ca576128b988611673565b156128c757600090506129c5565b6127106011543073ffffffffffffffffffffffffffffffffffffffff166370a08231600c60009054906101000a900473ffffffffffffffffffffffffffffffffffffffff166040518263ffffffff1660e01b8152600401612928919061319c565b602060405180830381865afa158015612945573d6000803e3d6000fd5b505050506040513d601f19601f820116820180604052508101906129699190613c73565b6129739190613a06565b61297d9190613a8f565b8711156129bf576040517f08c379a00000000000000000000000000000000000000000000000000000000081526004016129b690613cec565b60405180910390fd5b600e5490505b6129e8565b6129d389611673565b156129e157600090506129e7565b600f5490505b5b5b5b80955050505050509392505050565b600073ffffffffffffffffffffffffffffffffffffffff168373ffffffffffffffffffffffffffffffffffffffff1603612a68576040517f08c379a0000000000000000000000000000000000000000000000000000000008152600401612a5f90613bd2565b60405180910390fd5b600073ffffffffffffffffffffffffffffffffffffffff168273ffffffffffffffffffffffffffffffffffffffff1603612ad7576040517f08c379a0000000000000000000000000000000000000000000000000000000008152600401612ace90613d7e565b60405180910390fd5b612ae2838383612c78565b60008060008573ffffffffffffffffffffffffffffffffffffffff1673ffffffffffffffffffffffffffffffffffffffff16815260200190815260200160002054905081811015612b68576040517f08c379a0000000000000000000000000000000000000000000000000000000008152600401612b5f90613e10565b60405180910390fd5b8181036000808673ffffffffffffffffffffffffffffffffffffffff1673ffffffffffffffffffffffffffffffffffffffff16815260200190815260200160002081905550816000808573ffffffffffffffffffffffffffffffffffffffff1673ffffffffffffffffffffffffffffffffffffffff1681526020019081526020016000206000828254612bfb91906134f0565b925050819055508273ffffffffffffffffffffffffffffffffffffffff168473ffffffffffffffffffffffffffffffffffffffff167fddf252ad1be2c89b69c2b068fc378daa952ba7f163c4a11628f55a4df523b3ef84604051612c5f9190612f2a565b60405180910390a3612c72848484612d46565b50505050565b60148054906101000a900460ff168015612c9f5750601460159054906101000a900460ff16155b15612d3657601460009054906101000a900473ffffffffffffffffffffffffffffffffffffffff1673ffffffffffffffffffffffffffffffffffffffff16637e2f3afd8484846040518463ffffffff1660e01b8152600401612d0393929190613e30565b600060405180830381600087803b158015612d1d57600080fd5b505af1158015612d31573d6000803e3d6000fd5b505050505b612d41838383612131565b505050565b505050565b600081519050919050565b600082825260208201905092915050565b60005b83811015612d85578082015181840152602081019050612d6a565b60008484015250505050565b6000601f19601f8301169050919050565b6000612dad82612d4b565b612db78185612d56565b9350612dc7818560208601612d67565b612dd081612d91565b840191505092915050565b60006020820190508181036000830152612df58184612da2565b905092915050565b6000604051905090565b600080fd5b600080fd5b600073ffffffffffffffffffffffffffffffffffffffff82169050919050565b6000612e3c82612e11565b9050919050565b612e4c81612e31565b8114612e5757600080fd5b50565b600081359050612e6981612e43565b92915050565b6000819050919050565b612e8281612e6f565b8114612e8d57600080fd5b50565b600081359050612e9f81612e79565b92915050565b60008060408385031215612ebc57612ebb612e07565b5b6000612eca85828601612e5a565b9250506020612edb85828601612e90565b9150509250929050565b60008115159050919050565b612efa81612ee5565b82525050565b6000602082019050612f156000830184612ef1565b92915050565b612f2481612e6f565b82525050565b6000602082019050612f3f6000830184612f1b565b92915050565b600060208284031215612f5b57612f5a612e07565b5b6000612f6984828501612e5a565b91505092915050565b600080600060608486031215612f8b57612f8a612e07565b5b6000612f9986828701612e5a565b9350506020612faa86828701612e5a565b9250506040612fbb86828701612e90565b9150509250925092565b600060ff82169050919050565b612fdb81612fc5565b82525050565b6000602082019050612ff66000830184612fd2565b92915050565b600080fd5b7f4e487b7100000000000000000000000000000000000000000000000000000000600052604160045260246000fd5b61303982612d91565b810181811067ffffffffffffffff8211171561305857613057613001565b5b80604052505050565b600061306b612dfd565b90506130778282613030565b919050565b600067ffffffffffffffff82111561309757613096613001565b5b602082029050602081019050919050565b600080fd5b60006130c06130bb8461307c565b613061565b905080838252602082019050602084028301858111156130e3576130e26130a8565b5b835b8181101561310c57806130f88882612e5a565b8452602084019350506020810190506130e5565b5050509392505050565b600082601f83011261312b5761312a612ffc565b5b813561313b8482602086016130ad565b91505092915050565b60006020828403121561315a57613159612e07565b5b600082013567ffffffffffffffff81111561317857613177612e0c565b5b61318484828501613116565b91505092915050565b61319681612e31565b82525050565b60006020820190506131b1600083018461318d565b92915050565b6000602082840312156131cd576131cc612e07565b5b60006131db84828501612e90565b91505092915050565b6000819050919050565b60006132096132046131ff84612e11565b6131e4565b612e11565b9050919050565b600061321b826131ee565b9050919050565b600061322d82613210565b9050919050565b61323d81613222565b82525050565b60006020820190506132586000830184613234565b92915050565b61326781612ee5565b811461327257600080fd5b50565b6000813590506132848161325e565b92915050565b6000602082840312156132a05761329f612e07565b5b60006132ae84828501613275565b91505092915050565b600080604083850312156132ce576132cd612e07565b5b60006132dc85828601612e5a565b92505060206132ed85828601612e5a565b9150509250929050565b7f4e487b7100000000000000000000000000000000000000000000000000000000600052602260045260246000fd5b6000600282049050600182168061333e57607f821691505b602082108103613351576133506132f7565b5b50919050565b7f4f6e6c7941646d696e0000000000000000000000000000000000000000000000600082015250565b600061338d600983612d56565b915061339882613357565b602082019050919050565b600060208201905081810360008301526133bc81613380565b9050919050565b7f4f776e61626c653a2063616c6c6572206973206e6f7420746865206f776e6572600082015250565b60006133f9602083612d56565b9150613404826133c3565b602082019050919050565b60006020820190508181036000830152613428816133ec565b9050919050565b7f45524332303a207472616e7366657220616d6f756e742065786365656473206160008201527f6c6c6f77616e6365000000000000000000000000000000000000000000000000602082015250565b600061348b602883612d56565b91506134968261342f565b604082019050919050565b600060208201905081810360008301526134ba8161347e565b9050919050565b7f4e487b7100000000000000000000000000000000000000000000000000000000600052601160045260246000fd5b60006134fb82612e6f565b915061350683612e6f565b925082820190508082111561351e5761351d6134c1565b5b92915050565b7f4e487b7100000000000000000000000000000000000000000000000000000000600052603260045260246000fd5b600061355e82612e6f565b91507fffffffffffffffffffffffffffffffffffffffffffffffffffffffffffffffff82036135905761358f6134c1565b5b600182019050919050565b600081519050919050565b600082825260208201905092915050565b6000819050602082019050919050565b6135d081612e31565b82525050565b60006135e283836135c7565b60208301905092915050565b6000602082019050919050565b60006136068261359b565b61361081856135a6565b935061361b836135b7565b8060005b8381101561364c57815161363388826135d6565b975061363e836135ee565b92505060018101905061361f565b5085935050505092915050565b6000602082019050818103600083015261367381846135fb565b905092915050565b6000604082019050613690600083018561318d565b61369d6020830184612f1b565b9392505050565b6000815190506136b38161325e565b92915050565b6000602082840312156136cf576136ce612e07565b5b60006136dd848285016136a4565b91505092915050565b7f425020616464726573732063616e6e6f74206265203078300000000000000000600082015250565b600061371c601883612d56565b9150613727826136e6565b602082019050919050565b6000602082019050818103600083015261374b8161370f565b9050919050565b7f45524332303a2064656372656173656420616c6c6f77616e63652062656c6f7760008201527f207a65726f000000000000000000000000000000000000000000000000000000602082015250565b60006137ae602583612d56565b91506137b982613752565b604082019050919050565b600060208201905081810360008301526137dd816137a1565b9050919050565b7f426f742070726f74656374696f6e2064697361626c6564000000000000000000600082015250565b600061381a601783612d56565b9150613825826137e4565b602082019050919050565b600060208201905081810360008301526138498161380d565b9050919050565b7f4f776e61626c653a206e6577206f776e657220697320746865207a65726f206160008201527f6464726573730000000000000000000000000000000000000000000000000000602082015250565b60006138ac602683612d56565b91506138b782613850565b604082019050919050565b600060208201905081810360008301526138db8161389f565b9050919050565b7f45524332303a20617070726f76652066726f6d20746865207a65726f2061646460008201527f7265737300000000000000000000000000000000000000000000000000000000602082015250565b600061393e602483612d56565b9150613949826138e2565b604082019050919050565b6000602082019050818103600083015261396d81613931565b9050919050565b7f45524332303a20617070726f766520746f20746865207a65726f20616464726560008201527f7373000000000000000000000000000000000000000000000000000000000000602082015250565b60006139d0602283612d56565b91506139db82613974565b604082019050919050565b600060208201905081810360008301526139ff816139c3565b9050919050565b6000613a1182612e6f565b9150613a1c83612e6f565b9250817fffffffffffffffffffffffffffffffffffffffffffffffffffffffffffffffff0483118215151615613a5557613a546134c1565b5b828202905092915050565b7f4e487b7100000000000000000000000000000000000000000000000000000000600052601260045260246000fd5b6000613a9a82612e6f565b9150613aa583612e6f565b925082613ab557613ab4613a60565b5b828204905092915050565b6000613acb82612e6f565b9150613ad683612e6f565b9250828203905081811115613aee57613aed6134c1565b5b92915050565b7f52657665727420626c61636b6c69737400000000000000000000000000000000600082015250565b6000613b2a601083612d56565b9150613b3582613af4565b602082019050919050565b60006020820190508181036000830152613b5981613b1d565b9050919050565b7f45524332303a207472616e736665722066726f6d20746865207a65726f20616460008201527f6472657373000000000000000000000000000000000000000000000000000000602082015250565b6000613bbc602583612d56565b9150613bc782613b60565b604082019050919050565b60006020820190508181036000830152613beb81613baf565b9050919050565b7f416e746920426f74000000000000000000000000000000000000000000000000600082015250565b6000613c28600883612d56565b9150613c3382613bf2565b602082019050919050565b60006020820190508181036000830152613c5781613c1b565b9050919050565b600081519050613c6d81612e79565b92915050565b600060208284031215613c8957613c88612e07565b5b6000613c9784828501613c5e565b91505092915050565b7f526576657274207768616c65207472616e73616374696f6e0000000000000000600082015250565b6000613cd6601883612d56565b9150613ce182613ca0565b602082019050919050565b60006020820190508181036000830152613d0581613cc9565b9050919050565b7f45524332303a207472616e7366657220746f20746865207a65726f206164647260008201527f6573730000000000000000000000000000000000000000000000000000000000602082015250565b6000613d68602383612d56565b9150613d7382613d0c565b604082019050919050565b60006020820190508181036000830152613d9781613d5b565b9050919050565b7f45524332303a207472616e7366657220616d6f756e742065786365656473206260008201527f616c616e63650000000000000000000000000000000000000000000000000000602082015250565b6000613dfa602683612d56565b9150613e0582613d9e565b604082019050919050565b60006020820190508181036000830152613e2981613ded565b9050919050565b6000606082019050613e45600083018661318d565b613e52602083018561318d565b613e5f6040830184612f1b565b94935050505056fea2646970667358221220a2d88b563b794bc020ae15b4a2b78394215552cf6b9d0325ba6fdcd12055096564736f6c63430008100033",
  "immutableReferences": {},
  "source": "pragma solidity ^0.8.0;\r\nimport \"@openzeppelin/contracts/token/ERC20/ERC20.sol\";\r\nimport \"@openzeppelin/contracts/token/ERC20/IERC20.sol\";\r\nimport \"@openzeppelin/contracts/access/Ownable.sol\";\r\nimport \"@openzeppelin/contracts/utils/Context.sol\";\r\nimport \"./Uniswap.sol\";\r\n\r\ninterface IBPContract {\r\n\r\n    function protect(address sender, address receiver, uint256 amount) external;\r\n\r\n}\r\n\r\ncontract MAoE is Context, ERC20, Ownable {\r\n    mapping(address => uint256) private adminlist;\r\n    mapping(address => uint256) private blacklist;\r\n\r\n    address BUSD;\r\n    address addressReceiver;\r\n    address addressTreasury;\r\n    address addressBurn;\r\n\r\n    address public uniswapV2Pair;\r\n\r\n    uint256 public sellFeeRate = 0;\r\n    uint256 public buyFeeRate = 0;\r\n    uint256 public transferRate = 0;\r\n    uint256 public antiBot = 0;\r\n    uint256 percentAmountWhale = 100;\r\n    address private constant UNISWAP_V2_ROUTER =\r\n        0x9Ac64Cc6e4415144C455BD8E4837Fea55603e5c3;\r\n\r\n    uint256 public burnRate = 2000;\r\n    uint256 public treasuryRate = 5000;\r\n\r\n\r\n    IBPContract public bpContract;\r\n    bool public bpEnabled;\r\n    bool public bpDisabledForever;\r\n    MAoE MATK;\r\n\r\n    /* \r\n================================================================\r\n                        CONSTRUCTOR\r\n================================================================\r\n */\r\n\r\n    constructor(address _BUSD, address _addressReceiver, address _addressTreasury, address _addressBurn)\r\n        ERC20(\"MAoE Token\", \"MAoE\")\r\n    {\r\n        _mint(msg.sender, 250*10**6 * 10**18);\r\n        adminlist[msg.sender] = 1;\r\n\r\n        BUSD = _BUSD;\r\n        addressReceiver = _addressReceiver;\r\n        addressTreasury = _addressTreasury;\r\n        addressBurn = _addressBurn;\r\n\r\n        IUniswapV2Router02 _uniswapV2Router = IUniswapV2Router02(\r\n            0x9Ac64Cc6e4415144C455BD8E4837Fea55603e5c3\r\n        );\r\n        uniswapV2Pair = IUniswapV2Factory(_uniswapV2Router.factory())\r\n            .createPair(address(this), BUSD);\r\n    }\r\n\r\n    /*\r\n===================================================\r\n                    MODIFIER\r\n===================================================\r\n */\r\n    modifier onlyAdmin() {\r\n        require(adminlist[_msgSender()] == 1, \"OnlyAdmin\");\r\n        _;\r\n    }\r\n\r\n    modifier isNotInBlackList(address account) {\r\n        require(!checkBlackList(account), \"Revert blacklist\");\r\n        _;\r\n    }\r\n\r\n    modifier isNotAddressZero(address account) {\r\n        require(account != address(0), \"ERC20: transfer from the zero address\");\r\n        _;\r\n    }\r\n\r\n    /*\r\n===================================================\r\n                CHECK FUNCTION\r\n===================================================\r\n */\r\n    function checkAdmin(address account) public view returns (bool) {\r\n        return adminlist[account] > 0;\r\n    }\r\n\r\n    function checkBlackList(address account) public view returns (bool) {\r\n        return blacklist[account] > 0;\r\n    }\r\n\r\n    function checkAntiBot() public view returns (bool) {\r\n        return antiBot == 1 ? true : false;\r\n    }\r\n\r\n    /*\r\n===================================================\r\n                    BOT PREVENT\r\n===================================================\r\n */\r\n\r\n    function setBPContract(address addr)\r\n        public\r\n        onlyOwner\r\n    {\r\n        require(addr != address(0), \"BP address cannot be 0x0\");\r\n\r\n        bpContract = IBPContract(addr);\r\n    }\r\n\r\n    function setBPEnabled(bool enabled)\r\n        public\r\n        onlyOwner\r\n    {\r\n        bpEnabled = enabled;\r\n    }\r\n\r\n    function setBPDisableForever()\r\n        public\r\n        onlyOwner\r\n    {\r\n        require(!bpDisabledForever, \"Bot protection disabled\");\r\n\r\n        bpDisabledForever = true;\r\n    }\r\n\r\n    function _beforeTokenTransfer(address from, address to, uint256 amount)\r\n        internal\r\n        override\r\n    {\r\n        if (bpEnabled && !bpDisabledForever) {\r\n            bpContract.protect(from, to, amount);\r\n        }\r\n\r\n        super._beforeTokenTransfer(from, to, amount);\r\n\r\n    }\r\n\r\n /*\r\n===================================================\r\n                    SWAP FUNCTION\r\n===================================================\r\n */\r\n\r\n    // function swap(\r\n    //     address _tokenIn,\r\n    //     address _tokenOut,\r\n    //     uint256 _amountIn,\r\n    //     uint256 _amountOutMin,\r\n    //     address _to\r\n    // ) internal {\r\n    //     super.transferFrom(msg.sender, address(this), _amountIn);\r\n    //     super.approve(UNISWAP_V2_ROUTER, _amountIn);\r\n    //     address[] memory path;\r\n    //     if (_tokenIn == BUSD || _tokenOut == BUSD) {\r\n    //         path = new address[](2);\r\n    //         path[0] = _tokenIn;\r\n    //         path[1] = _tokenOut;\r\n    //     } else {\r\n    //         path = new address[](3);\r\n    //         path[0] = _tokenIn;\r\n    //         path[1] = BUSD;\r\n    //         path[2] = _tokenOut;\r\n    //     }\r\n    //     IUniswapV2Router02(UNISWAP_V2_ROUTER).swapExactTokensForTokens(\r\n    //         _amountIn,\r\n    //         _amountOutMin,\r\n    //         path,\r\n    //         _to,\r\n    //         block.timestamp\r\n    //     );\r\n    // }\r\n\r\n    // function getAmountOutMin(address _tokenIn, address _tokenOut, uint256 _amountIn) internal view returns (uint256) {\r\n    //     address[] memory path;\r\n    //     if (_tokenIn == BUSD || _tokenOut == BUSD) {\r\n    //         path = new address[](2);\r\n    //         path[0] = _tokenIn;\r\n    //         path[1] = _tokenOut;\r\n    //     } else {\r\n    //         path = new address[](3);\r\n    //         path[0] = _tokenIn;\r\n    //         path[1] = BUSD;\r\n    //         path[2] = _tokenOut;\r\n    //     }\r\n    //     uint256[] memory amountOutMins = IUniswapV2Router02(UNISWAP_V2_ROUTER).getAmountsOut(_amountIn, path);\r\n    //     return amountOutMins[path.length -1];  \r\n    // }  \r\n\r\n    /*\r\n===================================================\r\n            TRANSFER & FEE CALCULATION\r\n===================================================\r\n */\r\n    function _transfer(\r\n        address sender,\r\n        address recipient,\r\n        uint256 amount\r\n    ) internal virtual override {\r\n        uint256 feeRate = _feeCalculation(sender, recipient, amount);\r\n        if (feeRate > 0) {\r\n            uint256 _fee = (amount * feeRate) / 10000;\r\n            uint256 _burnAmount = _fee * burnRate / 10000;\r\n            uint256 _treasuryAmount = _fee * treasuryRate / 10000;\r\n            uint256 _profitAmount = _fee - _burnAmount - _treasuryAmount;\r\n\r\n            // uint256 _amountOutMin = getAmountOutMin(address(this), BUSD, _fee1);\r\n            // swap(address(this), BUSD, _fee1, _amountOutMin, addressReceiver);\r\n            super._transfer(sender, addressReceiver ,_profitAmount);\r\n            super._transfer(sender, addressTreasury ,_treasuryAmount);\r\n            super._transfer(sender, addressBurn ,_burnAmount);\r\n\r\n            amount = amount - _fee;\r\n        }\r\n        super._transfer(sender, recipient, amount);\r\n    }\r\n\r\n    function _feeCalculation(\r\n        address sender,\r\n        address recipient,\r\n        uint256 amount\r\n    )\r\n        internal view\r\n        isNotInBlackList(sender)\r\n        isNotInBlackList(recipient)\r\n        isNotAddressZero(sender)\r\n        isNotAddressZero(recipient)\r\n        returns (uint256)\r\n    {\r\n        uint256 feeRate = 0;\r\n\r\n        if (checkAntiBot()) {\r\n            require(checkAdmin(sender) || checkAdmin(recipient), \"Anti Bot\");\r\n            feeRate = 0;\r\n        } else {\r\n            if (recipient == uniswapV2Pair) {\r\n                if (checkAdmin(sender)) {\r\n                    feeRate = 0;\r\n                } else {\r\n                    require(\r\n                        amount <=\r\n                            (this.balanceOf(uniswapV2Pair) *\r\n                                percentAmountWhale) /\r\n                                10000,\r\n                        \"Revert whale transaction\"\r\n                    );\r\n                    feeRate = sellFeeRate;\r\n                }\r\n            } else if (sender == uniswapV2Pair) {\r\n                if (checkAdmin(recipient)) {\r\n                    feeRate = 0;\r\n                } else {\r\n                    require(\r\n                        amount <=\r\n                            (this.balanceOf(uniswapV2Pair) *\r\n                                percentAmountWhale) /\r\n                                10000,\r\n                        \"Revert whale transaction\"\r\n                    );\r\n                    feeRate = buyFeeRate;\r\n                }\r\n            } else {\r\n                if (checkAdmin(sender)) {\r\n                    feeRate = 0;\r\n                } else {\r\n                    feeRate = transferRate;\r\n                }\r\n            }\r\n        }\r\n        return feeRate;\r\n    }\r\n/*----------------------------------------------------------------\r\n                            WITHDRAW\r\n -----------------------------------------------------------------*/\r\n    function withdrawTokenForOwner(uint256 amount) public onlyOwner {\r\n        this.transfer(owner(), amount);\r\n        emit WithDraw(amount);\r\n    }\r\n\r\n    function withdrawBUSDForOwner(address token_address, uint256 amount)\r\n        public\r\n        onlyOwner\r\n    {\r\n        MATK = MAoE(token_address);\r\n        MATK.transfer(owner(), amount);\r\n        emit WithDraw(amount);\r\n    }\r\n/*\r\n===================================================\r\n                        EVENT\r\n===================================================\r\n */\r\n    event ChangeBuyFeeRate(uint256 rate);\r\n    event ChangeSellFeeRate(uint256 rate);\r\n    event ChangeBurnRate(uint256 rate);\r\n    event ChangeTransferRate(uint256 rate);\r\n    event ChangePercentAmountWhale(uint256 rate);\r\n    event ActivateAntiBot(uint256 status);\r\n    event DeactivateAntiBot(uint256 status);\r\n    event AddedAdmin(address account);\r\n    event AddedBatchAdmin(address[] accounts);\r\n    event RemovedAdmin(address account);\r\n    event TransferStatus(address sender, address recipient, uint256 amount);\r\n    event WithDraw(uint256 amount);\r\n    /*\r\n===================================================\r\n                UPDATE FUNCTION\r\n===================================================\r\n */\r\n    function changeBuyFeeRate(uint256 rate) external onlyAdmin {\r\n        buyFeeRate = rate;\r\n        emit ChangeBuyFeeRate(buyFeeRate);\r\n    }\r\n\r\n    function changeBurnRate(uint256 rate) external onlyAdmin {\r\n        burnRate = rate;\r\n        emit ChangeBurnRate(burnRate);\r\n    }\r\n\r\n    function changeSellFeeRate(uint256 rate) external onlyAdmin {\r\n        sellFeeRate = rate;\r\n        emit ChangeSellFeeRate(sellFeeRate);\r\n    }\r\n\r\n    function changeTransferRate(uint256 rate) external onlyAdmin {\r\n        transferRate = rate;\r\n        emit ChangeTransferRate(transferRate);\r\n    }\r\n\r\n    function changePercentAmountWhale(uint256 rate) external onlyAdmin {\r\n        percentAmountWhale = rate;\r\n        emit ChangePercentAmountWhale(sellFeeRate);\r\n    }\r\n\r\n    /*\r\n===================================================\r\n                CHANGE ANTIBOT STATUS\r\n===================================================\r\n */\r\n\r\n    function activateAntiBot() external onlyAdmin {\r\n        antiBot = 1;\r\n        emit ActivateAntiBot(antiBot);\r\n    }\r\n\r\n    function deactivateAntiBot() external onlyAdmin {\r\n        antiBot = 0;\r\n        emit DeactivateAntiBot(antiBot);\r\n    }\r\n\r\n    /*\r\n===================================================\r\n                    ADMINLIST\r\n===================================================\r\n */\r\n    function addToAdminlist(address account) external onlyOwner {\r\n        adminlist[account] = 1;\r\n        emit AddedAdmin(account);\r\n    }\r\n\r\n    function addBatchToAdminlist(address[] memory accounts) external onlyOwner {\r\n        for (uint256 i = 0; i < accounts.length; i++) {\r\n            adminlist[accounts[i]] = 1;\r\n        }\r\n        emit AddedBatchAdmin(accounts);\r\n    }\r\n\r\n    function removeFromAdminlist(address account) external onlyOwner {\r\n        adminlist[account] = 0;\r\n        emit RemovedAdmin(account);\r\n    }\r\n\r\n    /*\r\n===================================================\r\n                    BLACKLIST\r\n===================================================\r\n */\r\n\r\n    function addToBlacklist(address account) external onlyOwner {\r\n        blacklist[account] = 1;\r\n        emit AddedAdmin(account);\r\n    }\r\n\r\n    function addBatchToBlacklist(address[] memory accounts) external onlyOwner {\r\n        for (uint256 i = 0; i < accounts.length; i++) {\r\n            blacklist[accounts[i]] = 1;\r\n        }\r\n        emit AddedBatchAdmin(accounts);\r\n    }\r\n\r\n    function removeFromBlacklist(address account) external onlyOwner {\r\n        blacklist[account] = 0;\r\n        emit RemovedAdmin(account);\r\n    }\r\n}\r\n",
  "sourcePath": "C:\\Users\\ASROCK\\Desktop\\Audit\\privatesale\\src\\contracts\\Token.sol",
  "compiler": {
    "name": "solc",
    "version": "0.8.16+commit.07a7930e.Emscripten.clang"
  },
  "schemaVersion": "3.4.7",
  "updatedAt": "2022-08-22T07:29:31.986Z",
  "networkType": "ethereum",
  "devdoc": {
    "kind": "dev",
    "methods": {
      "allowance(address,address)": {
        "details": "See {IERC20-allowance}."
      },
      "approve(address,uint256)": {
        "details": "See {IERC20-approve}. Requirements: - `spender` cannot be the zero address."
      },
      "balanceOf(address)": {
        "details": "See {IERC20-balanceOf}."
      },
      "decimals()": {
        "details": "Returns the number of decimals used to get its user representation. For example, if `decimals` equals `2`, a balance of `505` tokens should be displayed to a user as `5.05` (`505 / 10 ** 2`). Tokens usually opt for a value of 18, imitating the relationship between Ether and Wei. This is the value {ERC20} uses, unless this function is overridden; NOTE: This information is only used for _display_ purposes: it in no way affects any of the arithmetic of the contract, including {IERC20-balanceOf} and {IERC20-transfer}."
      },
      "decreaseAllowance(address,uint256)": {
        "details": "Atomically decreases the allowance granted to `spender` by the caller. This is an alternative to {approve} that can be used as a mitigation for problems described in {IERC20-approve}. Emits an {Approval} event indicating the updated allowance. Requirements: - `spender` cannot be the zero address. - `spender` must have allowance for the caller of at least `subtractedValue`."
      },
      "increaseAllowance(address,uint256)": {
        "details": "Atomically increases the allowance granted to `spender` by the caller. This is an alternative to {approve} that can be used as a mitigation for problems described in {IERC20-approve}. Emits an {Approval} event indicating the updated allowance. Requirements: - `spender` cannot be the zero address."
      },
      "name()": {
        "details": "Returns the name of the token."
      },
      "owner()": {
        "details": "Returns the address of the current owner."
      },
      "renounceOwnership()": {
        "details": "Leaves the contract without owner. It will not be possible to call `onlyOwner` functions anymore. Can only be called by the current owner. NOTE: Renouncing ownership will leave the contract without an owner, thereby removing any functionality that is only available to the owner."
      },
      "symbol()": {
        "details": "Returns the symbol of the token, usually a shorter version of the name."
      },
      "totalSupply()": {
        "details": "See {IERC20-totalSupply}."
      },
      "transfer(address,uint256)": {
        "details": "See {IERC20-transfer}. Requirements: - `recipient` cannot be the zero address. - the caller must have a balance of at least `amount`."
      },
      "transferFrom(address,address,uint256)": {
        "details": "See {IERC20-transferFrom}. Emits an {Approval} event indicating the updated allowance. This is not required by the EIP. See the note at the beginning of {ERC20}. Requirements: - `sender` and `recipient` cannot be the zero address. - `sender` must have a balance of at least `amount`. - the caller must have allowance for ``sender``'s tokens of at least `amount`."
      },
      "transferOwnership(address)": {
        "details": "Transfers ownership of the contract to a new account (`newOwner`). Can only be called by the current owner."
      }
    },
    "version": 1
  },
  "userdoc": {
    "kind": "user",
    "methods": {},
    "version": 1
  }
}