{
  "contractName": "NFTAuction",
  "abi": [
    {
      "inputs": [
        {
          "internalType": "address",
          "name": "_token",
          "type": "address"
        },
        {
          "internalType": "address",
          "name": "_addressReceiver",
          "type": "address"
        },
        {
          "internalType": "uint256",
          "name": "_feeRate",
          "type": "uint256"
        }
      ],
      "stateMutability": "nonpayable",
      "type": "constructor"
    },
    {
      "inputs": [
        {
          "internalType": "address",
          "name": "",
          "type": "address"
        },
        {
          "internalType": "uint256",
          "name": "",
          "type": "uint256"
        }
      ],
      "name": "au",
      "outputs": [
        {
          "internalType": "uint256",
          "name": "startTime",
          "type": "uint256"
        },
        {
          "internalType": "uint32",
          "name": "bidPercentage",
          "type": "uint32"
        },
        {
          "internalType": "uint32",
          "name": "bidPeriod",
          "type": "uint32"
        },
        {
          "internalType": "uint64",
          "name": "aucEnd",
          "type": "uint64"
        },
        {
          "internalType": "uint128",
          "name": "minPrice",
          "type": "uint128"
        },
        {
          "internalType": "uint128",
          "name": "buyPrice",
          "type": "uint128"
        },
        {
          "internalType": "uint128",
          "name": "highestBid",
          "type": "uint128"
        },
        {
          "internalType": "address",
          "name": "highestBidder",
          "type": "address"
        },
        {
          "internalType": "address",
          "name": "seller",
          "type": "address"
        },
        {
          "internalType": "address",
          "name": "whitelist",
          "type": "address"
        },
        {
          "internalType": "address",
          "name": "recipient",
          "type": "address"
        }
      ],
      "stateMutability": "view",
      "type": "function",
      "constant": true
    },
    {
      "inputs": [
        {
          "internalType": "address",
          "name": "",
          "type": "address"
        },
        {
          "internalType": "uint256",
          "name": "",
          "type": "uint256"
        }
      ],
      "name": "auc_index",
      "outputs": [
        {
          "internalType": "uint256",
          "name": "",
          "type": "uint256"
        }
      ],
      "stateMutability": "view",
      "type": "function",
      "constant": true
    },
    {
      "inputs": [
        {
          "internalType": "address",
          "name": "",
          "type": "address"
        },
        {
          "internalType": "uint256",
          "name": "",
          "type": "uint256"
        },
        {
          "internalType": "uint256",
          "name": "",
          "type": "uint256"
        }
      ],
      "name": "bidHistory",
      "outputs": [
        {
          "internalType": "address",
          "name": "user",
          "type": "address"
        },
        {
          "internalType": "uint128",
          "name": "amount",
          "type": "uint128"
        },
        {
          "internalType": "uint256",
          "name": "time",
          "type": "uint256"
        }
      ],
      "stateMutability": "view",
      "type": "function",
      "constant": true
    },
    {
      "inputs": [],
      "name": "defaultBidPercentage",
      "outputs": [
        {
          "internalType": "uint32",
          "name": "",
          "type": "uint32"
        }
      ],
      "stateMutability": "view",
      "type": "function",
      "constant": true
    },
    {
      "inputs": [],
      "name": "defaultBidPeriod",
      "outputs": [
        {
          "internalType": "uint32",
          "name": "",
          "type": "uint32"
        }
      ],
      "stateMutability": "view",
      "type": "function",
      "constant": true
    },
    {
      "inputs": [],
      "name": "maxMinPricePercentage",
      "outputs": [
        {
          "internalType": "uint32",
          "name": "",
          "type": "uint32"
        }
      ],
      "stateMutability": "view",
      "type": "function",
      "constant": true
    },
    {
      "inputs": [],
      "name": "minPercentage",
      "outputs": [
        {
          "internalType": "uint32",
          "name": "",
          "type": "uint32"
        }
      ],
      "stateMutability": "view",
      "type": "function",
      "constant": true
    },
    {
      "inputs": [
        {
          "internalType": "address",
          "name": "ad",
          "type": "address"
        },
        {
          "internalType": "uint256",
          "name": "id",
          "type": "uint256"
        }
      ],
      "name": "_isASale",
      "outputs": [
        {
          "internalType": "bool",
          "name": "",
          "type": "bool"
        }
      ],
      "stateMutability": "view",
      "type": "function",
      "constant": true
    },
    {
      "inputs": [
        {
          "internalType": "address",
          "name": "ad",
          "type": "address"
        },
        {
          "internalType": "uint256",
          "name": "id",
          "type": "uint256"
        }
      ],
      "name": "_isWhitelistedSale",
      "outputs": [
        {
          "internalType": "bool",
          "name": "",
          "type": "bool"
        }
      ],
      "stateMutability": "view",
      "type": "function",
      "constant": true
    },
    {
      "inputs": [
        {
          "internalType": "address",
          "name": "ad",
          "type": "address"
        },
        {
          "internalType": "uint256",
          "name": "id",
          "type": "uint256"
        }
      ],
      "name": "_isHighestBidderAllowedToPurchaseNFT",
      "outputs": [
        {
          "internalType": "bool",
          "name": "",
          "type": "bool"
        }
      ],
      "stateMutability": "view",
      "type": "function",
      "constant": true
    },
    {
      "inputs": [
        {
          "internalType": "address",
          "name": "ad",
          "type": "address"
        },
        {
          "internalType": "uint256",
          "name": "id",
          "type": "uint256"
        }
      ],
      "name": "_isHighestBidderWhitelisted",
      "outputs": [
        {
          "internalType": "bool",
          "name": "",
          "type": "bool"
        }
      ],
      "stateMutability": "view",
      "type": "function",
      "constant": true
    },
    {
      "inputs": [
        {
          "internalType": "uint256",
          "name": "_totalBid",
          "type": "uint256"
        },
        {
          "internalType": "uint256",
          "name": "_percentage",
          "type": "uint256"
        }
      ],
      "name": "_getPortionOfBid",
      "outputs": [
        {
          "internalType": "uint256",
          "name": "",
          "type": "uint256"
        }
      ],
      "stateMutability": "pure",
      "type": "function",
      "constant": true
    },
    {
      "inputs": [
        {
          "internalType": "address",
          "name": "ad",
          "type": "address"
        },
        {
          "internalType": "uint256",
          "name": "id",
          "type": "uint256"
        }
      ],
      "name": "_getBidIncreasePercentage",
      "outputs": [
        {
          "internalType": "uint32",
          "name": "",
          "type": "uint32"
        }
      ],
      "stateMutability": "view",
      "type": "function",
      "constant": true
    },
    {
      "inputs": [
        {
          "internalType": "address",
          "name": "ad",
          "type": "address"
        },
        {
          "internalType": "uint256",
          "name": "id",
          "type": "uint256"
        }
      ],
      "name": "_getNftSeller",
      "outputs": [
        {
          "internalType": "address",
          "name": "",
          "type": "address"
        }
      ],
      "stateMutability": "view",
      "type": "function",
      "constant": true
    },
    {
      "inputs": [
        {
          "internalType": "address",
          "name": "ad",
          "type": "address"
        },
        {
          "internalType": "uint256",
          "name": "id",
          "type": "uint256"
        }
      ],
      "name": "_getAuctionEnd",
      "outputs": [
        {
          "internalType": "uint64",
          "name": "",
          "type": "uint64"
        }
      ],
      "stateMutability": "view",
      "type": "function",
      "constant": true
    },
    {
      "inputs": [
        {
          "internalType": "address",
          "name": "ad",
          "type": "address"
        },
        {
          "internalType": "uint256",
          "name": "id",
          "type": "uint256"
        }
      ],
      "name": "_getStartTime",
      "outputs": [
        {
          "internalType": "uint256",
          "name": "",
          "type": "uint256"
        }
      ],
      "stateMutability": "view",
      "type": "function",
      "constant": true
    },
    {
      "inputs": [
        {
          "internalType": "address",
          "name": "ad",
          "type": "address"
        },
        {
          "internalType": "uint256",
          "name": "id",
          "type": "uint256"
        }
      ],
      "name": "_getMinPrice",
      "outputs": [
        {
          "internalType": "uint128",
          "name": "",
          "type": "uint128"
        }
      ],
      "stateMutability": "view",
      "type": "function",
      "constant": true
    },
    {
      "inputs": [],
      "name": "_getAuctionList",
      "outputs": [
        {
          "components": [
            {
              "internalType": "address",
              "name": "ad",
              "type": "address"
            },
            {
              "internalType": "uint256",
              "name": "id",
              "type": "uint256"
            },
            {
              "internalType": "uint32",
              "name": "bidPercentage",
              "type": "uint32"
            },
            {
              "internalType": "uint32",
              "name": "bidPeriod",
              "type": "uint32"
            },
            {
              "internalType": "uint128",
              "name": "minPrice",
              "type": "uint128"
            },
            {
              "internalType": "uint128",
              "name": "buyPrice",
              "type": "uint128"
            },
            {
              "internalType": "address",
              "name": "seller",
              "type": "address"
            }
          ],
          "internalType": "struct NFTAuction.AuctionList[]",
          "name": "",
          "type": "tuple[]"
        }
      ],
      "stateMutability": "view",
      "type": "function",
      "constant": true
    },
    {
      "inputs": [
        {
          "internalType": "address",
          "name": "ad",
          "type": "address"
        },
        {
          "internalType": "uint256",
          "name": "id",
          "type": "uint256"
        }
      ],
      "name": "_getBidHistory",
      "outputs": [
        {
          "components": [
            {
              "internalType": "address",
              "name": "user",
              "type": "address"
            },
            {
              "internalType": "uint128",
              "name": "amount",
              "type": "uint128"
            },
            {
              "internalType": "uint256",
              "name": "time",
              "type": "uint256"
            }
          ],
          "internalType": "struct NFTAuction.Bid[]",
          "name": "",
          "type": "tuple[]"
        }
      ],
      "stateMutability": "view",
      "type": "function",
      "constant": true
    },
    {
      "inputs": [
        {
          "internalType": "address",
          "name": "ad",
          "type": "address"
        },
        {
          "internalType": "uint256",
          "name": "id",
          "type": "uint256"
        }
      ],
      "name": "_getBuyPrice",
      "outputs": [
        {
          "internalType": "uint128",
          "name": "",
          "type": "uint128"
        }
      ],
      "stateMutability": "view",
      "type": "function",
      "constant": true
    },
    {
      "inputs": [
        {
          "internalType": "address",
          "name": "ad",
          "type": "address"
        },
        {
          "internalType": "uint256",
          "name": "id",
          "type": "uint256"
        }
      ],
      "name": "_getAuctionBidPeriod",
      "outputs": [
        {
          "internalType": "uint32",
          "name": "",
          "type": "uint32"
        }
      ],
      "stateMutability": "view",
      "type": "function",
      "constant": true
    },
    {
      "inputs": [
        {
          "internalType": "address",
          "name": "ad",
          "type": "address"
        },
        {
          "internalType": "uint256",
          "name": "id",
          "type": "uint256"
        }
      ],
      "name": "_getNftRecipient",
      "outputs": [
        {
          "internalType": "address",
          "name": "",
          "type": "address"
        }
      ],
      "stateMutability": "view",
      "type": "function",
      "constant": true
    },
    {
      "inputs": [
        {
          "internalType": "address",
          "name": "ad",
          "type": "address"
        },
        {
          "internalType": "uint256",
          "name": "id",
          "type": "uint256"
        },
        {
          "internalType": "uint128",
          "name": "_minPrice",
          "type": "uint128"
        },
        {
          "internalType": "uint128",
          "name": "_buyPrice",
          "type": "uint128"
        },
        {
          "internalType": "uint64",
          "name": "_aucEnd",
          "type": "uint64"
        }
      ],
      "name": "createDefaultNftAuction",
      "outputs": [],
      "stateMutability": "nonpayable",
      "type": "function"
    },
    {
      "inputs": [
        {
          "internalType": "address",
          "name": "ad",
          "type": "address"
        },
        {
          "internalType": "uint256",
          "name": "id",
          "type": "uint256"
        },
        {
          "internalType": "uint128",
          "name": "_minPrice",
          "type": "uint128"
        },
        {
          "internalType": "uint128",
          "name": "_buyPrice",
          "type": "uint128"
        },
        {
          "internalType": "uint64",
          "name": "_aucEnd",
          "type": "uint64"
        },
        {
          "internalType": "uint32",
          "name": "_bidPeriod",
          "type": "uint32"
        },
        {
          "internalType": "uint32",
          "name": "_bidIncreasePercentage",
          "type": "uint32"
        }
      ],
      "name": "createNewNftAuction",
      "outputs": [],
      "stateMutability": "nonpayable",
      "type": "function"
    },
    {
      "inputs": [
        {
          "internalType": "address",
          "name": "ad",
          "type": "address"
        },
        {
          "internalType": "uint256",
          "name": "id",
          "type": "uint256"
        },
        {
          "internalType": "uint128",
          "name": "_amount",
          "type": "uint128"
        }
      ],
      "name": "makeBid",
      "outputs": [],
      "stateMutability": "nonpayable",
      "type": "function"
    },
    {
      "inputs": [
        {
          "internalType": "address",
          "name": "ad",
          "type": "address"
        },
        {
          "internalType": "uint256",
          "name": "id",
          "type": "uint256"
        }
      ],
      "name": "settleAuction",
      "outputs": [],
      "stateMutability": "nonpayable",
      "type": "function"
    },
    {
      "inputs": [
        {
          "internalType": "address",
          "name": "ad",
          "type": "address"
        },
        {
          "internalType": "uint256",
          "name": "id",
          "type": "uint256"
        }
      ],
      "name": "withdrawAuction",
      "outputs": [],
      "stateMutability": "nonpayable",
      "type": "function"
    }
  ],
  "bytecode": "0x60806040523480156200001157600080fd5b506040516200550e3803806200550e8339818101604052810190620000379190620001f9565b6064600760006101000a81548163ffffffff021916908363ffffffff160217905550620151806007600c6101000a81548163ffffffff021916908363ffffffff1602179055506064600760046101000a81548163ffffffff021916908363ffffffff160217905550611f40600760086101000a81548163ffffffff021916908363ffffffff16021790555082600460006101000a81548173ffffffffffffffffffffffffffffffffffffffff021916908373ffffffffffffffffffffffffffffffffffffffff16021790555081600860006101000a81548173ffffffffffffffffffffffffffffffffffffffff021916908373ffffffffffffffffffffffffffffffffffffffff1602179055508060098190555050505062000255565b600080fd5b600073ffffffffffffffffffffffffffffffffffffffff82169050919050565b6000620001868262000159565b9050919050565b620001988162000179565b8114620001a457600080fd5b50565b600081519050620001b8816200018d565b92915050565b6000819050919050565b620001d381620001be565b8114620001df57600080fd5b50565b600081519050620001f381620001c8565b92915050565b60008060006060848603121562000215576200021462000154565b5b60006200022586828701620001a7565b93505060206200023886828701620001a7565b92505060406200024b86828701620001e2565b9150509250925092565b6152a980620002656000396000f3fe608060405234801561001057600080fd5b50600436106101a95760003560e01c806388059514116100f9578063b6e9c71011610097578063d20709ce11610071578063d20709ce14610560578063d6165ec814610590578063e66a39da146105c0578063ebea6025146105f0576101a9565b8063b6e9c710146104ce578063c6c97066146104fe578063ced4600914610530576101a9565b80639cd0070f116100d35780639cd0070f1461040e578063a3030aef1461043e578063a459b0e91461046e578063a94ee2041461049e576101a9565b806388059514146103a25780638996b420146103d257806391ba42ba146103f0576101a9565b8063337808e9116101665780637be366a2116101405780637be366a2146103105780637cac28451461032e578063848e0d2814610368578063866afd6d14610384576101a9565b8063337808e9146102945780635138b08c146102c45780636412513e146102e0576101a9565b806302664fdf146101ae5780630266782e146101de57806306a30655146101fc5780630e262edc1461022c57806312cbcf3314610248578063319e023014610278575b600080fd5b6101c860048036038101906101c391906141d8565b61060c565b6040516101d59190614233565b60405180910390f35b6101e6610725565b6040516101f3919061426d565b60405180910390f35b610216600480360381019061021191906141d8565b61073b565b6040516102239190614297565b60405180910390f35b6102466004803603810190610241919061433a565b6107b8565b005b610262600480360381019061025d91906141d8565b610d43565b60405161026f9190614233565b60405180910390f35b610292600480360381019061028d91906143e1565b610d69565b005b6102ae60048036038101906102a991906141d8565b611417565b6040516102bb919061426d565b60405180910390f35b6102de60048036038101906102d991906141d8565b6114b0565b005b6102fa60048036038101906102f59190614483565b61150c565b60405161030791906144d2565b60405180910390f35b61031861152f565b6040516103259190614666565b60405180910390f35b610348600480360381019061034391906141d8565b611724565b60405161035f9b9a999897969594939291906146a6565b60405180910390f35b610382600480360381019061037d9190614751565b611893565b005b61038c611a3e565b604051610399919061426d565b60405180910390f35b6103bc60048036038101906103b791906141d8565b611a54565b6040516103c991906147a4565b60405180910390f35b6103da611ac5565b6040516103e7919061426d565b60405180910390f35b6103f8611adb565b604051610405919061426d565b60405180910390f35b610428600480360381019061042391906141d8565b611af1565b6040516104359190614297565b60405180910390f35b610458600480360381019061045391906141d8565b611c20565b60405161046591906144d2565b60405180910390f35b610488600480360381019061048391906141d8565b611c7d565b60405161049591906148b0565b60405180910390f35b6104b860048036038101906104b391906141d8565b611dd7565b6040516104c591906144d2565b60405180910390f35b6104e860048036038101906104e391906141d8565b611dfc565b6040516104f59190614233565b60405180910390f35b610518600480360381019061051391906148d2565b611ea8565b60405161052793929190614925565b60405180910390f35b61054a600480360381019061054591906141d8565b611f38565b604051610557919061426d565b60405180910390f35b61057a600480360381019061057591906141d8565b61202d565b604051610587919061495c565b60405180910390f35b6105aa60048036038101906105a591906141d8565b6120a6565b6040516105b79190614233565b60405180910390f35b6105da60048036038101906105d591906141d8565b6121c3565b6040516105e7919061495c565b60405180910390f35b61060a600480360381019061060591906141d8565b61223c565b005b6000806000808573ffffffffffffffffffffffffffffffffffffffff1673ffffffffffffffffffffffffffffffffffffffff168152602001908152602001600020600084815260200190815260200160002060020160009054906101000a90046fffffffffffffffffffffffffffffffff166fffffffffffffffffffffffffffffffff1611801561071d575060008060008573ffffffffffffffffffffffffffffffffffffffff1673ffffffffffffffffffffffffffffffffffffffff168152602001908152602001600020600084815260200190815260200160002060010160109054906101000a90046fffffffffffffffffffffffffffffffff166fffffffffffffffffffffffffffffffff16145b905092915050565b600760049054906101000a900463ffffffff1681565b60008060008473ffffffffffffffffffffffffffffffffffffffff1673ffffffffffffffffffffffffffffffffffffffff168152602001908152602001600020600083815260200190815260200160002060040160009054906101000a900473ffffffffffffffffffffffffffffffffffffffff16905092915050565b84843373ffffffffffffffffffffffffffffffffffffffff166000808473ffffffffffffffffffffffffffffffffffffffff1673ffffffffffffffffffffffffffffffffffffffff168152602001908152602001600020600083815260200190815260200160002060040160009054906101000a900473ffffffffffffffffffffffffffffffffffffffff1673ffffffffffffffffffffffffffffffffffffffff160361089a576040517f08c379a0000000000000000000000000000000000000000000000000000000008152600401610891906149d4565b60405180910390fd5b600073ffffffffffffffffffffffffffffffffffffffff166000808473ffffffffffffffffffffffffffffffffffffffff1673ffffffffffffffffffffffffffffffffffffffff168152602001908152602001600020600083815260200190815260200160002060040160009054906101000a900473ffffffffffffffffffffffffffffffffffffffff1673ffffffffffffffffffffffffffffffffffffffff1614610a32578173ffffffffffffffffffffffffffffffffffffffff16636352211e826040518263ffffffff1660e01b815260040161097991906144d2565b602060405180830381865afa158015610996573d6000803e3d6000fd5b505050506040513d601f19601f820116820180604052508101906109ba9190614a09565b73ffffffffffffffffffffffffffffffffffffffff163373ffffffffffffffffffffffffffffffffffffffff1614610a27576040517f08c379a0000000000000000000000000000000000000000000000000000000008152600401610a1e90614a82565b60405180910390fd5b610a318282612331565b5b846fffffffffffffffffffffffffffffffff1660008111610a88576040517f08c379a0000000000000000000000000000000000000000000000000000000008152600401610a7f90614aee565b60405180910390fd5b610a958888888888612723565b6000600580549050905080600160008b73ffffffffffffffffffffffffffffffffffffffff1673ffffffffffffffffffffffffffffffffffffffff16815260200190815260200160002060008a81526020019081526020016000208190555060056040518060e001604052808b73ffffffffffffffffffffffffffffffffffffffff1681526020018a8152602001600760009054906101000a900463ffffffff1663ffffffff1681526020016007600c9054906101000a900463ffffffff1663ffffffff168152602001896fffffffffffffffffffffffffffffffff168152602001886fffffffffffffffffffffffffffffffff1681526020013373ffffffffffffffffffffffffffffffffffffffff16815250908060018154018082558091505060019003906000526020600020906005020160009091909190915060008201518160000160006101000a81548173ffffffffffffffffffffffffffffffffffffffff021916908373ffffffffffffffffffffffffffffffffffffffff1602179055506020820151816001015560408201518160020160006101000a81548163ffffffff021916908363ffffffff16021790555060608201518160020160046101000a81548163ffffffff021916908363ffffffff16021790555060808201518160020160086101000a8154816fffffffffffffffffffffffffffffffff02191690836fffffffffffffffffffffffffffffffff16021790555060a08201518160030160006101000a8154816fffffffffffffffffffffffffffffffff02191690836fffffffffffffffffffffffffffffffff16021790555060c08201518160040160006101000a81548173ffffffffffffffffffffffffffffffffffffffff021916908373ffffffffffffffffffffffffffffffffffffffff1602179055505050505050505050505050565b6000610d4f8383611dfc565b1580610d615750610d6083836120a6565b5b905092915050565b86863373ffffffffffffffffffffffffffffffffffffffff166000808473ffffffffffffffffffffffffffffffffffffffff1673ffffffffffffffffffffffffffffffffffffffff168152602001908152602001600020600083815260200190815260200160002060040160009054906101000a900473ffffffffffffffffffffffffffffffffffffffff1673ffffffffffffffffffffffffffffffffffffffff1603610e4b576040517f08c379a0000000000000000000000000000000000000000000000000000000008152600401610e42906149d4565b60405180910390fd5b600073ffffffffffffffffffffffffffffffffffffffff166000808473ffffffffffffffffffffffffffffffffffffffff1673ffffffffffffffffffffffffffffffffffffffff168152602001908152602001600020600083815260200190815260200160002060040160009054906101000a900473ffffffffffffffffffffffffffffffffffffffff1673ffffffffffffffffffffffffffffffffffffffff1614610fe3578173ffffffffffffffffffffffffffffffffffffffff16636352211e826040518263ffffffff1660e01b8152600401610f2a91906144d2565b602060405180830381865afa158015610f47573d6000803e3d6000fd5b505050506040513d601f19601f82011682018060405250810190610f6b9190614a09565b73ffffffffffffffffffffffffffffffffffffffff163373ffffffffffffffffffffffffffffffffffffffff1614610fd8576040517f08c379a0000000000000000000000000000000000000000000000000000000008152600401610fcf90614a82565b60405180910390fd5b610fe28282612331565b5b866fffffffffffffffffffffffffffffffff1660008111611039576040517f08c379a000000000000000000000000000000000000000000000000000000000815260040161103090614aee565b60405180910390fd5b83600760049054906101000a900463ffffffff1663ffffffff168163ffffffff16101561109b576040517f08c379a000000000000000000000000000000000000000000000000000000000815260040161109290614b5a565b60405180910390fd5b856000808d73ffffffffffffffffffffffffffffffffffffffff1673ffffffffffffffffffffffffffffffffffffffff16815260200190815260200160002060008c815260200190815260200160002060010160046101000a81548163ffffffff021916908363ffffffff160217905550846000808d73ffffffffffffffffffffffffffffffffffffffff1673ffffffffffffffffffffffffffffffffffffffff16815260200190815260200160002060008c815260200190815260200160002060010160006101000a81548163ffffffff021916908363ffffffff16021790555061118a8b8b8b8b8b612723565b6000600580549050905080600160008e73ffffffffffffffffffffffffffffffffffffffff1673ffffffffffffffffffffffffffffffffffffffff16815260200190815260200160002060008d81526020019081526020016000208190555060056040518060e001604052808e73ffffffffffffffffffffffffffffffffffffffff1681526020018d81526020018863ffffffff1681526020018963ffffffff1681526020018c6fffffffffffffffffffffffffffffffff1681526020018b6fffffffffffffffffffffffffffffffff1681526020013373ffffffffffffffffffffffffffffffffffffffff16815250908060018154018082558091505060019003906000526020600020906005020160009091909190915060008201518160000160006101000a81548173ffffffffffffffffffffffffffffffffffffffff021916908373ffffffffffffffffffffffffffffffffffffffff1602179055506020820151816001015560408201518160020160006101000a81548163ffffffff021916908363ffffffff16021790555060608201518160020160046101000a81548163ffffffff021916908363ffffffff16021790555060808201518160020160086101000a8154816fffffffffffffffffffffffffffffffff02191690836fffffffffffffffffffffffffffffffff16021790555060a08201518160030160006101000a8154816fffffffffffffffffffffffffffffffff02191690836fffffffffffffffffffffffffffffffff16021790555060c08201518160040160006101000a81548173ffffffffffffffffffffffffffffffffffffffff021916908373ffffffffffffffffffffffffffffffffffffffff1602179055505050505050505050505050505050565b6000806000808573ffffffffffffffffffffffffffffffffffffffff1673ffffffffffffffffffffffffffffffffffffffff168152602001908152602001600020600084815260200190815260200160002060010160009054906101000a900463ffffffff16905060008163ffffffff161461149357806114a7565b600760009054906101000a900463ffffffff165b91505092915050565b81816114bc8282612a50565b156114fc576040517f08c379a00000000000000000000000000000000000000000000000000000000081526004016114f390614bc6565b60405180910390fd5b6115068484612ae7565b50505050565b6000612710828461151d9190614c15565b6115279190614c9e565b905092915050565b60606005805480602002602001604051908101604052809291908181526020016000905b8282101561171b57838290600052602060002090600502016040518060e00160405290816000820160009054906101000a900473ffffffffffffffffffffffffffffffffffffffff1673ffffffffffffffffffffffffffffffffffffffff1673ffffffffffffffffffffffffffffffffffffffff168152602001600182015481526020016002820160009054906101000a900463ffffffff1663ffffffff1663ffffffff1681526020016002820160049054906101000a900463ffffffff1663ffffffff1663ffffffff1681526020016002820160089054906101000a90046fffffffffffffffffffffffffffffffff166fffffffffffffffffffffffffffffffff166fffffffffffffffffffffffffffffffff1681526020016003820160009054906101000a90046fffffffffffffffffffffffffffffffff166fffffffffffffffffffffffffffffffff166fffffffffffffffffffffffffffffffff1681526020016004820160009054906101000a900473ffffffffffffffffffffffffffffffffffffffff1673ffffffffffffffffffffffffffffffffffffffff1673ffffffffffffffffffffffffffffffffffffffff168152505081526020019060010190611553565b50505050905090565b6000602052816000526040600020602052806000526040600020600091509150508060000154908060010160009054906101000a900463ffffffff16908060010160049054906101000a900463ffffffff16908060010160089054906101000a900467ffffffffffffffff16908060010160109054906101000a90046fffffffffffffffffffffffffffffffff16908060020160009054906101000a90046fffffffffffffffffffffffffffffffff16908060020160109054906101000a90046fffffffffffffffffffffffffffffffff16908060030160009054906101000a900473ffffffffffffffffffffffffffffffffffffffff16908060040160009054906101000a900473ffffffffffffffffffffffffffffffffffffffff16908060050160009054906101000a900473ffffffffffffffffffffffffffffffffffffffff16908060060160009054906101000a900473ffffffffffffffffffffffffffffffffffffffff1690508b565b828261189f8282612a50565b6118de576040517f08c379a00000000000000000000000000000000000000000000000000000000081526004016118d590614d1b565b60405180910390fd5b6118e98585856131e4565b600260008673ffffffffffffffffffffffffffffffffffffffff1673ffffffffffffffffffffffffffffffffffffffff168152602001908152602001600020600085815260200190815260200160002060405180606001604052803373ffffffffffffffffffffffffffffffffffffffff168152602001856fffffffffffffffffffffffffffffffff16815260200142815250908060018154018082558091505060019003906000526020600020906003020160009091909190915060008201518160000160006101000a81548173ffffffffffffffffffffffffffffffffffffffff021916908373ffffffffffffffffffffffffffffffffffffffff16021790555060208201518160010160006101000a8154816fffffffffffffffffffffffffffffffff02191690836fffffffffffffffffffffffffffffffff1602179055506040820151816002015550505050505050565b600760089054906101000a900463ffffffff1681565b60008060008473ffffffffffffffffffffffffffffffffffffffff1673ffffffffffffffffffffffffffffffffffffffff168152602001908152602001600020600083815260200190815260200160002060010160089054906101000a900467ffffffffffffffff16905092915050565b6007600c9054906101000a900463ffffffff1681565b600760009054906101000a900463ffffffff1681565b6000806000808573ffffffffffffffffffffffffffffffffffffffff1673ffffffffffffffffffffffffffffffffffffffff168152602001908152602001600020600084815260200190815260200160002060060160009054906101000a900473ffffffffffffffffffffffffffffffffffffffff169050600073ffffffffffffffffffffffffffffffffffffffff168173ffffffffffffffffffffffffffffffffffffffff1614611ba35780611c17565b6000808573ffffffffffffffffffffffffffffffffffffffff1673ffffffffffffffffffffffffffffffffffffffff168152602001908152602001600020600084815260200190815260200160002060030160009054906101000a900473ffffffffffffffffffffffffffffffffffffffff165b91505092915050565b60008060008473ffffffffffffffffffffffffffffffffffffffff1673ffffffffffffffffffffffffffffffffffffffff168152602001908152602001600020600083815260200190815260200160002060000154905092915050565b6060600260008473ffffffffffffffffffffffffffffffffffffffff1673ffffffffffffffffffffffffffffffffffffffff1681526020019081526020016000206000838152602001908152602001600020805480602002602001604051908101604052809291908181526020016000905b82821015611dcb57838290600052602060002090600302016040518060600160405290816000820160009054906101000a900473ffffffffffffffffffffffffffffffffffffffff1673ffffffffffffffffffffffffffffffffffffffff1673ffffffffffffffffffffffffffffffffffffffff1681526020016001820160009054906101000a90046fffffffffffffffffffffffffffffffff166fffffffffffffffffffffffffffffffff166fffffffffffffffffffffffffffffffff16815260200160028201548152505081526020019060010190611cef565b50505050905092915050565b6001602052816000526040600020602052806000526040600020600091509150505481565b60008073ffffffffffffffffffffffffffffffffffffffff166000808573ffffffffffffffffffffffffffffffffffffffff1673ffffffffffffffffffffffffffffffffffffffff168152602001908152602001600020600084815260200190815260200160002060050160009054906101000a900473ffffffffffffffffffffffffffffffffffffffff1673ffffffffffffffffffffffffffffffffffffffff161415905092915050565b60026020528260005260406000206020528160005260406000208181548110611ed057600080fd5b906000526020600020906003020160009250925050508060000160009054906101000a900473ffffffffffffffffffffffffffffffffffffffff16908060010160009054906101000a90046fffffffffffffffffffffffffffffffff16908060020154905083565b6000806000808573ffffffffffffffffffffffffffffffffffffffff1673ffffffffffffffffffffffffffffffffffffffff168152602001908152602001600020600084815260200190815260200160002060010160049054906101000a900463ffffffff1663ffffffff1614612011576000808473ffffffffffffffffffffffffffffffffffffffff1673ffffffffffffffffffffffffffffffffffffffff168152602001908152602001600020600083815260200190815260200160002060010160049054906101000a900463ffffffff16612025565b6007600c9054906101000a900463ffffffff165b905092915050565b60008060008473ffffffffffffffffffffffffffffffffffffffff1673ffffffffffffffffffffffffffffffffffffffff168152602001908152602001600020600083815260200190815260200160002060020160009054906101000a90046fffffffffffffffffffffffffffffffff16905092915050565b60008060008473ffffffffffffffffffffffffffffffffffffffff1673ffffffffffffffffffffffffffffffffffffffff168152602001908152602001600020600083815260200190815260200160002060050160009054906101000a900473ffffffffffffffffffffffffffffffffffffffff1673ffffffffffffffffffffffffffffffffffffffff166000808573ffffffffffffffffffffffffffffffffffffffff1673ffffffffffffffffffffffffffffffffffffffff168152602001908152602001600020600084815260200190815260200160002060030160009054906101000a900473ffffffffffffffffffffffffffffffffffffffff1673ffffffffffffffffffffffffffffffffffffffff1614905092915050565b60008060008473ffffffffffffffffffffffffffffffffffffffff1673ffffffffffffffffffffffffffffffffffffffff168152602001908152602001600020600083815260200190815260200160002060010160109054906101000a90046fffffffffffffffffffffffffffffffff16905092915050565b3373ffffffffffffffffffffffffffffffffffffffff168273ffffffffffffffffffffffffffffffffffffffff16636352211e836040518263ffffffff1660e01b815260040161228c91906144d2565b602060405180830381865afa1580156122a9573d6000803e3d6000fd5b505050506040513d601f19601f820116820180604052508101906122cd9190614a09565b73ffffffffffffffffffffffffffffffffffffffff1614612323576040517f08c379a000000000000000000000000000000000000000000000000000000000815260040161231a90614d87565b60405180910390fd5b61232d8282612331565b5050565b60008060008473ffffffffffffffffffffffffffffffffffffffff1673ffffffffffffffffffffffffffffffffffffffff168152602001908152602001600020600083815260200190815260200160002060010160106101000a8154816fffffffffffffffffffffffffffffffff02191690836fffffffffffffffffffffffffffffffff16021790555060008060008473ffffffffffffffffffffffffffffffffffffffff1673ffffffffffffffffffffffffffffffffffffffff168152602001908152602001600020600083815260200190815260200160002060020160006101000a8154816fffffffffffffffffffffffffffffffff02191690836fffffffffffffffffffffffffffffffff16021790555060008060008473ffffffffffffffffffffffffffffffffffffffff1673ffffffffffffffffffffffffffffffffffffffff168152602001908152602001600020600083815260200190815260200160002060010160086101000a81548167ffffffffffffffff021916908367ffffffffffffffff16021790555060008060008473ffffffffffffffffffffffffffffffffffffffff1673ffffffffffffffffffffffffffffffffffffffff168152602001908152602001600020600083815260200190815260200160002060010160046101000a81548163ffffffff021916908363ffffffff16021790555060008060008473ffffffffffffffffffffffffffffffffffffffff1673ffffffffffffffffffffffffffffffffffffffff168152602001908152602001600020600083815260200190815260200160002060010160006101000a81548163ffffffff021916908363ffffffff16021790555060008060008473ffffffffffffffffffffffffffffffffffffffff1673ffffffffffffffffffffffffffffffffffffffff168152602001908152602001600020600083815260200190815260200160002060040160006101000a81548173ffffffffffffffffffffffffffffffffffffffff021916908373ffffffffffffffffffffffffffffffffffffffff16021790555060008060008473ffffffffffffffffffffffffffffffffffffffff1673ffffffffffffffffffffffffffffffffffffffff168152602001908152602001600020600083815260200190815260200160002060050160006101000a81548173ffffffffffffffffffffffffffffffffffffffff021916908373ffffffffffffffffffffffffffffffffffffffff16021790555060008060008473ffffffffffffffffffffffffffffffffffffffff1673ffffffffffffffffffffffffffffffffffffffff1681526020019081526020016000206000838152602001908152602001600020600001819055505050565b81836000826fffffffffffffffffffffffffffffffff16148061278b5750806fffffffffffffffffffffffffffffffff16612788836fffffffffffffffffffffffffffffffff16600760089054906101000a900463ffffffff1663ffffffff1661150c565b10155b6127ca576040517f08c379a00000000000000000000000000000000000000000000000000000000081526004016127c190614df3565b60405180910390fd5b836000808973ffffffffffffffffffffffffffffffffffffffff1673ffffffffffffffffffffffffffffffffffffffff168152602001908152602001600020600088815260200190815260200160002060020160006101000a8154816fffffffffffffffffffffffffffffffff02191690836fffffffffffffffffffffffffffffffff160217905550846000808973ffffffffffffffffffffffffffffffffffffffff1673ffffffffffffffffffffffffffffffffffffffff168152602001908152602001600020600088815260200190815260200160002060010160106101000a8154816fffffffffffffffffffffffffffffffff02191690836fffffffffffffffffffffffffffffffff160217905550336000808973ffffffffffffffffffffffffffffffffffffffff1673ffffffffffffffffffffffffffffffffffffffff168152602001908152602001600020600088815260200190815260200160002060040160006101000a81548173ffffffffffffffffffffffffffffffffffffffff021916908373ffffffffffffffffffffffffffffffffffffffff160217905550426000808973ffffffffffffffffffffffffffffffffffffffff1673ffffffffffffffffffffffffffffffffffffffff168152602001908152602001600020600088815260200190815260200160002060000181905550826000808973ffffffffffffffffffffffffffffffffffffffff1673ffffffffffffffffffffffffffffffffffffffff168152602001908152602001600020600088815260200190815260200160002060010160086101000a81548167ffffffffffffffff021916908367ffffffffffffffff160217905550612a478787613332565b50505050505050565b6000806000808573ffffffffffffffffffffffffffffffffffffffff1673ffffffffffffffffffffffffffffffffffffffff168152602001908152602001600020600084815260200190815260200160002060010160089054906101000a900467ffffffffffffffff16905060008167ffffffffffffffff161480612ade57508067ffffffffffffffff1642105b91505092915050565b60008060008473ffffffffffffffffffffffffffffffffffffffff1673ffffffffffffffffffffffffffffffffffffffff168152602001908152602001600020600083815260200190815260200160002060040160009054906101000a900473ffffffffffffffffffffffffffffffffffffffff1690506000612b6a8484611af1565b905060008060008673ffffffffffffffffffffffffffffffffffffffff1673ffffffffffffffffffffffffffffffffffffffff168152602001908152602001600020600085815260200190815260200160002060020160109054906101000a90046fffffffffffffffffffffffffffffffff169050612be98585613379565b612c07858585846fffffffffffffffffffffffffffffffff1661352b565b8473ffffffffffffffffffffffffffffffffffffffff166323b872dd3084876040518463ffffffff1660e01b8152600401612c4493929190614e13565b600060405180830381600087803b158015612c5e57600080fd5b505af1158015612c72573d6000803e3d6000fd5b50505050612c808585612331565b6000600160008773ffffffffffffffffffffffffffffffffffffffff1673ffffffffffffffffffffffffffffffffffffffff16815260200190815260200160002060008681526020019081526020016000205490506000600580549050905060018103612de1576005805480612cf957612cf8614e4a565b5b6001900381819060005260206000209060050201600080820160006101000a81549073ffffffffffffffffffffffffffffffffffffffff021916905560018201600090556002820160006101000a81549063ffffffff02191690556002820160046101000a81549063ffffffff02191690556002820160086101000a8154906fffffffffffffffffffffffffffffffff02191690556003820160006101000a8154906fffffffffffffffffffffffffffffffff02191690556004820160006101000a81549073ffffffffffffffffffffffffffffffffffffffff0219169055505090556131db565b60006005600183612df29190614e79565b81548110612e0357612e02614ead565b5b9060005260206000209060050201905082600160008360000160009054906101000a900473ffffffffffffffffffffffffffffffffffffffff1673ffffffffffffffffffffffffffffffffffffffff1673ffffffffffffffffffffffffffffffffffffffff1681526020019081526020016000206000836001015481526020019081526020016000208190555060056001600580549050612ea49190614e79565b81548110612eb557612eb4614ead565b5b906000526020600020906005020160058481548110612ed757612ed6614ead565b5b90600052602060002090600502016000820160009054906101000a900473ffffffffffffffffffffffffffffffffffffffff168160000160006101000a81548173ffffffffffffffffffffffffffffffffffffffff021916908373ffffffffffffffffffffffffffffffffffffffff160217905550600182015481600101556002820160009054906101000a900463ffffffff168160020160006101000a81548163ffffffff021916908363ffffffff1602179055506002820160049054906101000a900463ffffffff168160020160046101000a81548163ffffffff021916908363ffffffff1602179055506002820160089054906101000a90046fffffffffffffffffffffffffffffffff168160020160086101000a8154816fffffffffffffffffffffffffffffffff02191690836fffffffffffffffffffffffffffffffff1602179055506003820160009054906101000a90046fffffffffffffffffffffffffffffffff168160030160006101000a8154816fffffffffffffffffffffffffffffffff02191690836fffffffffffffffffffffffffffffffff1602179055506004820160009054906101000a900473ffffffffffffffffffffffffffffffffffffffff168160040160006101000a81548173ffffffffffffffffffffffffffffffffffffffff021916908373ffffffffffffffffffffffffffffffffffffffff16021790555090505060058054806130f6576130f5614e4a565b5b6001900381819060005260206000209060050201600080820160006101000a81549073ffffffffffffffffffffffffffffffffffffffff021916905560018201600090556002820160006101000a81549063ffffffff02191690556002820160046101000a81549063ffffffff02191690556002820160086101000a8154906fffffffffffffffffffffffffffffffff02191690556003820160006101000a8154906fffffffffffffffffffffffffffffffff02191690556004820160006101000a81549073ffffffffffffffffffffffffffffffffffffffff021916905550509055505b50505050505050565b82826000808373ffffffffffffffffffffffffffffffffffffffff1673ffffffffffffffffffffffffffffffffffffffff168152602001908152602001600020600082815260200190815260200160002060040160009054906101000a900473ffffffffffffffffffffffffffffffffffffffff1673ffffffffffffffffffffffffffffffffffffffff163373ffffffffffffffffffffffffffffffffffffffff16036132c6576040517f08c379a00000000000000000000000000000000000000000000000000000000081526004016132bd90614f28565b60405180910390fd5b8484846132d4838383613583565b613313576040517f08c379a000000000000000000000000000000000000000000000000000000000815260040161330a90614f94565b60405180910390fd5b61331e888888613727565b6133288888613332565b5050505050505050565b61333c8282613874565b156133505761334b8282612ae7565b613375565b61335a82826139a5565b15613374576133698282613ad6565b6133738282613e41565b5b5b5050565b60008060008473ffffffffffffffffffffffffffffffffffffffff1673ffffffffffffffffffffffffffffffffffffffff168152602001908152602001600020600083815260200190815260200160002060030160006101000a81548173ffffffffffffffffffffffffffffffffffffffff021916908373ffffffffffffffffffffffffffffffffffffffff16021790555060008060008473ffffffffffffffffffffffffffffffffffffffff1673ffffffffffffffffffffffffffffffffffffffff168152602001908152602001600020600083815260200190815260200160002060020160106101000a8154816fffffffffffffffffffffffffffffffff02191690836fffffffffffffffffffffffffffffffff16021790555060008060008473ffffffffffffffffffffffffffffffffffffffff1673ffffffffffffffffffffffffffffffffffffffff168152602001908152602001600020600083815260200190815260200160002060060160006101000a81548173ffffffffffffffffffffffffffffffffffffffff021916908373ffffffffffffffffffffffffffffffffffffffff1602179055505050565b60006135398260095461150c565b9050613567600860009054906101000a900473ffffffffffffffffffffffffffffffffffffffff1682613ed8565b61357c8382846135779190614e79565b613ed8565b5050505050565b6000806000808673ffffffffffffffffffffffffffffffffffffffff1673ffffffffffffffffffffffffffffffffffffffff168152602001908152602001600020600085815260200190815260200160002060020160009054906101000a90046fffffffffffffffffffffffffffffffff1690506000816fffffffffffffffffffffffffffffffff1611801561363d5750806fffffffffffffffffffffffffffffffff16836fffffffffffffffffffffffffffffffff1610155b1561364c576001915050613720565b600061271061365b8787611417565b6127106136689190614fb4565b63ffffffff166000808973ffffffffffffffffffffffffffffffffffffffff1673ffffffffffffffffffffffffffffffffffffffff168152602001908152602001600020600088815260200190815260200160002060020160109054906101000a90046fffffffffffffffffffffffffffffffff166136e79190614fee565b6136f19190615038565b6fffffffffffffffffffffffffffffffff16905080846fffffffffffffffffffffffffffffffff161015925050505b9392505050565b60008060008573ffffffffffffffffffffffffffffffffffffffff1673ffffffffffffffffffffffffffffffffffffffff168152602001908152602001600020600084815260200190815260200160002060030160009054906101000a900473ffffffffffffffffffffffffffffffffffffffff16905060008060008673ffffffffffffffffffffffffffffffffffffffff1673ffffffffffffffffffffffffffffffffffffffff168152602001908152602001600020600085815260200190815260200160002060020160109054906101000a90046fffffffffffffffffffffffffffffffff166fffffffffffffffffffffffffffffffff16905061382e858585613f7d565b600073ffffffffffffffffffffffffffffffffffffffff168273ffffffffffffffffffffffffffffffffffffffff161461386d5761386c8282613ed8565b5b5050505050565b6000806000808573ffffffffffffffffffffffffffffffffffffffff1673ffffffffffffffffffffffffffffffffffffffff168152602001908152602001600020600084815260200190815260200160002060020160009054906101000a90046fffffffffffffffffffffffffffffffff1690506000816fffffffffffffffffffffffffffffffff1611801561399c5750806fffffffffffffffffffffffffffffffff166000808673ffffffffffffffffffffffffffffffffffffffff1673ffffffffffffffffffffffffffffffffffffffff168152602001908152602001600020600085815260200190815260200160002060020160109054906101000a90046fffffffffffffffffffffffffffffffff166fffffffffffffffffffffffffffffffff1610155b91505092915050565b6000806000808573ffffffffffffffffffffffffffffffffffffffff1673ffffffffffffffffffffffffffffffffffffffff168152602001908152602001600020600084815260200190815260200160002060010160109054906101000a90046fffffffffffffffffffffffffffffffff1690506000816fffffffffffffffffffffffffffffffff16118015613acd5750806fffffffffffffffffffffffffffffffff166000808673ffffffffffffffffffffffffffffffffffffffff1673ffffffffffffffffffffffffffffffffffffffff168152602001908152602001600020600085815260200190815260200160002060020160109054906101000a90046fffffffffffffffffffffffffffffffff166fffffffffffffffffffffffffffffffff1610155b91505092915050565b60008060008473ffffffffffffffffffffffffffffffffffffffff1673ffffffffffffffffffffffffffffffffffffffff168152602001908152602001600020600083815260200190815260200160002060040160009054906101000a900473ffffffffffffffffffffffffffffffffffffffff1690508073ffffffffffffffffffffffffffffffffffffffff168373ffffffffffffffffffffffffffffffffffffffff16636352211e846040518263ffffffff1660e01b8152600401613b9d91906144d2565b602060405180830381865afa158015613bba573d6000803e3d6000fd5b505050506040513d601f19601f82011682018060405250810190613bde9190614a09565b73ffffffffffffffffffffffffffffffffffffffff1603613d54578273ffffffffffffffffffffffffffffffffffffffff166323b872dd8230856040518463ffffffff1660e01b8152600401613c3693929190614e13565b600060405180830381600087803b158015613c5057600080fd5b505af1158015613c64573d6000803e3d6000fd5b505050503073ffffffffffffffffffffffffffffffffffffffff168373ffffffffffffffffffffffffffffffffffffffff16636352211e846040518263ffffffff1660e01b8152600401613cb891906144d2565b602060405180830381865afa158015613cd5573d6000803e3d6000fd5b505050506040513d601f19601f82011682018060405250810190613cf99190614a09565b73ffffffffffffffffffffffffffffffffffffffff1614613d4f576040517f08c379a0000000000000000000000000000000000000000000000000000000008152600401613d46906150b5565b60405180910390fd5b613e3c565b3073ffffffffffffffffffffffffffffffffffffffff168373ffffffffffffffffffffffffffffffffffffffff16636352211e846040518263ffffffff1660e01b8152600401613da491906144d2565b602060405180830381865afa158015613dc1573d6000803e3d6000fd5b505050506040513d601f19601f82011682018060405250810190613de59190614a09565b73ffffffffffffffffffffffffffffffffffffffff1614613e3b576040517f08c379a0000000000000000000000000000000000000000000000000000000008152600401613e3290615121565b60405180910390fd5b5b505050565b42613e4c8383611f38565b63ffffffff16613e5c9190615141565b6000808473ffffffffffffffffffffffffffffffffffffffff1673ffffffffffffffffffffffffffffffffffffffff168152602001908152602001600020600083815260200190815260200160002060010160086101000a81548167ffffffffffffffff021916908367ffffffffffffffff1602179055505050565b600460009054906101000a900473ffffffffffffffffffffffffffffffffffffffff1673ffffffffffffffffffffffffffffffffffffffff1663a9059cbb83836040518363ffffffff1660e01b8152600401613f3592919061517f565b6020604051808303816000875af1158015613f54573d6000803e3d6000fd5b505050506040513d601f19601f82011682018060405250810190613f7891906151d4565b505050565b600460009054906101000a900473ffffffffffffffffffffffffffffffffffffffff1673ffffffffffffffffffffffffffffffffffffffff166323b872dd3330846040518463ffffffff1660e01b8152600401613fdc9392919061523c565b6020604051808303816000875af1158015613ffb573d6000803e3d6000fd5b505050506040513d601f19601f8201168201806040525081019061401f91906151d4565b50806000808573ffffffffffffffffffffffffffffffffffffffff1673ffffffffffffffffffffffffffffffffffffffff168152602001908152602001600020600084815260200190815260200160002060020160106101000a8154816fffffffffffffffffffffffffffffffff02191690836fffffffffffffffffffffffffffffffff160217905550336000808573ffffffffffffffffffffffffffffffffffffffff1673ffffffffffffffffffffffffffffffffffffffff168152602001908152602001600020600084815260200190815260200160002060030160006101000a81548173ffffffffffffffffffffffffffffffffffffffff021916908373ffffffffffffffffffffffffffffffffffffffff160217905550505050565b600080fd5b600073ffffffffffffffffffffffffffffffffffffffff82169050919050565b600061416f82614144565b9050919050565b61417f81614164565b811461418a57600080fd5b50565b60008135905061419c81614176565b92915050565b6000819050919050565b6141b5816141a2565b81146141c057600080fd5b50565b6000813590506141d2816141ac565b92915050565b600080604083850312156141ef576141ee61413f565b5b60006141fd8582860161418d565b925050602061420e858286016141c3565b9150509250929050565b60008115159050919050565b61422d81614218565b82525050565b60006020820190506142486000830184614224565b92915050565b600063ffffffff82169050919050565b6142678161424e565b82525050565b6000602082019050614282600083018461425e565b92915050565b61429181614164565b82525050565b60006020820190506142ac6000830184614288565b92915050565b60006fffffffffffffffffffffffffffffffff82169050919050565b6142d7816142b2565b81146142e257600080fd5b50565b6000813590506142f4816142ce565b92915050565b600067ffffffffffffffff82169050919050565b614317816142fa565b811461432257600080fd5b50565b6000813590506143348161430e565b92915050565b600080600080600060a086880312156143565761435561413f565b5b60006143648882890161418d565b9550506020614375888289016141c3565b9450506040614386888289016142e5565b9350506060614397888289016142e5565b92505060806143a888828901614325565b9150509295509295909350565b6143be8161424e565b81146143c957600080fd5b50565b6000813590506143db816143b5565b92915050565b600080600080600080600060e0888a031215614400576143ff61413f565b5b600061440e8a828b0161418d565b975050602061441f8a828b016141c3565b96505060406144308a828b016142e5565b95505060606144418a828b016142e5565b94505060806144528a828b01614325565b93505060a06144638a828b016143cc565b92505060c06144748a828b016143cc565b91505092959891949750929550565b6000806040838503121561449a5761449961413f565b5b60006144a8858286016141c3565b92505060206144b9858286016141c3565b9150509250929050565b6144cc816141a2565b82525050565b60006020820190506144e760008301846144c3565b92915050565b600081519050919050565b600082825260208201905092915050565b6000819050602082019050919050565b61452281614164565b82525050565b614531816141a2565b82525050565b6145408161424e565b82525050565b61454f816142b2565b82525050565b60e08201600082015161456b6000850182614519565b50602082015161457e6020850182614528565b5060408201516145916040850182614537565b5060608201516145a46060850182614537565b5060808201516145b76080850182614546565b5060a08201516145ca60a0850182614546565b5060c08201516145dd60c0850182614519565b50505050565b60006145ef8383614555565b60e08301905092915050565b6000602082019050919050565b6000614613826144ed565b61461d81856144f8565b935061462883614509565b8060005b8381101561465957815161464088826145e3565b975061464b836145fb565b92505060018101905061462c565b5085935050505092915050565b600060208201905081810360008301526146808184614608565b905092915050565b614691816142fa565b82525050565b6146a0816142b2565b82525050565b6000610160820190506146bc600083018e6144c3565b6146c9602083018d61425e565b6146d6604083018c61425e565b6146e3606083018b614688565b6146f0608083018a614697565b6146fd60a0830189614697565b61470a60c0830188614697565b61471760e0830187614288565b614725610100830186614288565b614733610120830185614288565b614741610140830184614288565b9c9b505050505050505050505050565b60008060006060848603121561476a5761476961413f565b5b60006147788682870161418d565b9350506020614789868287016141c3565b925050604061479a868287016142e5565b9150509250925092565b60006020820190506147b96000830184614688565b92915050565b600081519050919050565b600082825260208201905092915050565b6000819050602082019050919050565b6060820160008201516148016000850182614519565b5060208201516148146020850182614546565b5060408201516148276040850182614528565b50505050565b600061483983836147eb565b60608301905092915050565b6000602082019050919050565b600061485d826147bf565b61486781856147ca565b9350614872836147db565b8060005b838110156148a357815161488a888261482d565b975061489583614845565b925050600181019050614876565b5085935050505092915050565b600060208201905081810360008301526148ca8184614852565b905092915050565b6000806000606084860312156148eb576148ea61413f565b5b60006148f98682870161418d565b935050602061490a868287016141c3565b925050604061491b868287016141c3565b9150509250925092565b600060608201905061493a6000830186614288565b6149476020830185614697565b61495460408301846144c3565b949350505050565b60006020820190506149716000830184614697565b92915050565b600082825260208201905092915050565b7f41756374696f6e20616c72656164792073746172746564206279206f776e6572600082015250565b60006149be602083614977565b91506149c982614988565b602082019050919050565b600060208201905081810360008301526149ed816149b1565b9050919050565b600081519050614a0381614176565b92915050565b600060208284031215614a1f57614a1e61413f565b5b6000614a2d848285016149f4565b91505092915050565b7f53656e64657220646f65736e2774206f776e204e465400000000000000000000600082015250565b6000614a6c601683614977565b9150614a7782614a36565b602082019050919050565b60006020820190508181036000830152614a9b81614a5f565b9050919050565b7f50726963652063616e6e6f742062652030000000000000000000000000000000600082015250565b6000614ad8601183614977565b9150614ae382614aa2565b602082019050919050565b60006020820190508181036000830152614b0781614acb565b9050919050565b7f42696420696e6372656173652070657263656e7461676520746f6f206c6f7700600082015250565b6000614b44601f83614977565b9150614b4f82614b0e565b602082019050919050565b60006020820190508181036000830152614b7381614b37565b9050919050565b7f41756374696f6e206973206e6f7420796574206f766572000000000000000000600082015250565b6000614bb0601783614977565b9150614bbb82614b7a565b602082019050919050565b60006020820190508181036000830152614bdf81614ba3565b9050919050565b7f4e487b7100000000000000000000000000000000000000000000000000000000600052601160045260246000fd5b6000614c20826141a2565b9150614c2b836141a2565b9250817fffffffffffffffffffffffffffffffffffffffffffffffffffffffffffffffff0483118215151615614c6457614c63614be6565b5b828202905092915050565b7f4e487b7100000000000000000000000000000000000000000000000000000000600052601260045260246000fd5b6000614ca9826141a2565b9150614cb4836141a2565b925082614cc457614cc3614c6f565b5b828204905092915050565b7f41756374696f6e2068617320656e646564000000000000000000000000000000600082015250565b6000614d05601183614977565b9150614d1082614ccf565b602082019050919050565b60006020820190508181036000830152614d3481614cf8565b9050919050565b7f4e6f74204e4654206f776e657200000000000000000000000000000000000000600082015250565b6000614d71600d83614977565b9150614d7c82614d3b565b602082019050919050565b60006020820190508181036000830152614da081614d64565b9050919050565b7f4d696e5072696365203c3d20383025206f662062757950726963650000000000600082015250565b6000614ddd601b83614977565b9150614de882614da7565b602082019050919050565b60006020820190508181036000830152614e0c81614dd0565b9050919050565b6000606082019050614e286000830186614288565b614e356020830185614288565b614e4260408301846144c3565b949350505050565b7f4e487b7100000000000000000000000000000000000000000000000000000000600052603160045260246000fd5b6000614e84826141a2565b9150614e8f836141a2565b925082821015614ea257614ea1614be6565b5b828203905092915050565b7f4e487b7100000000000000000000000000000000000000000000000000000000600052603260045260246000fd5b7f4f776e65722063616e6e6f7420626964206f6e206f776e204e46540000000000600082015250565b6000614f12601b83614977565b9150614f1d82614edc565b602082019050919050565b60006020820190508181036000830152614f4181614f05565b9050919050565b7f4e6f7420656e6f7567682066756e647320746f20626964206f6e204e46540000600082015250565b6000614f7e601e83614977565b9150614f8982614f48565b602082019050919050565b60006020820190508181036000830152614fad81614f71565b9050919050565b6000614fbf8261424e565b9150614fca8361424e565b92508263ffffffff03821115614fe357614fe2614be6565b5b828201905092915050565b6000614ff9826142b2565b9150615004836142b2565b9250816fffffffffffffffffffffffffffffffff048311821515161561502d5761502c614be6565b5b828202905092915050565b6000615043826142b2565b915061504e836142b2565b92508261505e5761505d614c6f565b5b828204905092915050565b7f5472616e73666572206661696c65642100000000000000000000000000000000600082015250565b600061509f601083614977565b91506150aa82615069565b602082019050919050565b600060208201905081810360008301526150ce81615092565b9050919050565b7f53656c6c657220646f65736e2774206f776e204e465400000000000000000000600082015250565b600061510b601683614977565b9150615116826150d5565b602082019050919050565b6000602082019050818103600083015261513a816150fe565b9050919050565b600061514c826142fa565b9150615157836142fa565b92508267ffffffffffffffff0382111561517457615173614be6565b5b828201905092915050565b60006040820190506151946000830185614288565b6151a160208301846144c3565b9392505050565b6151b181614218565b81146151bc57600080fd5b50565b6000815190506151ce816151a8565b92915050565b6000602082840312156151ea576151e961413f565b5b60006151f8848285016151bf565b91505092915050565b6000819050919050565b600061522661522161521c846142b2565b615201565b6141a2565b9050919050565b6152368161520b565b82525050565b60006060820190506152516000830186614288565b61525e6020830185614288565b61526b604083018461522d565b94935050505056fea264697066735822122081357c9110895ca54bfc286435c602ba96adc94b3403434d273e8032726f8c6464736f6c634300080f0033",
  "immutableReferences": {},
  "source": "pragma solidity ^0.8.0;\r\nimport \"@openzeppelin/contracts/token/ERC721/ERC721.sol\";\r\nimport \"./Token.sol\";\r\ncontract NFTAuction {\r\n    mapping(address => mapping(uint256 => Auction)) public au;\r\n    mapping(address => mapping(uint256 => uint256)) public auc_index;\r\n    mapping(address => mapping(uint256 => Bid[])) public bidHistory;\r\n    mapping(address => uint256) failedTransferCredits;\r\n    MAoE MATK;\r\n    struct AuctionList {\r\n        address ad; \r\n        uint256 id;\r\n        uint32 bidPercentage;\r\n        uint32 bidPeriod;\r\n        uint128 minPrice;\r\n        uint128 buyPrice;\r\n        address seller;\r\n    }\r\n    struct Auction {\r\n        uint256 startTime;\r\n        uint32 bidPercentage;\r\n        uint32 bidPeriod;\r\n        uint64 aucEnd;\r\n        uint128 minPrice;\r\n        uint128 buyPrice;\r\n        uint128 highestBid;\r\n        address highestBidder;\r\n        address seller;\r\n        address whitelist;\r\n        address recipient;\r\n    }\r\n    struct Bid {\r\n        address user;\r\n        uint128 amount;\r\n        uint256 time;\r\n    }\r\n    AuctionList [] aucList;\r\n    AuctionList [] aucList_temp;\r\n    uint32 public defaultBidPercentage;\r\n    uint32 public minPercentage;\r\n    uint32 public maxMinPricePercentage;\r\n    uint32 public defaultBidPeriod;\r\n\r\n    address private addressReceiver;\r\n    uint256 private feeRate;\r\n\r\n    modifier notStartedByOwner(address ad, uint256 id) {\r\n        require(au[ad][id].seller != msg.sender,\"Auction already started by owner\");\r\n        if (au[ad][id].seller != address(0)) {\r\n            require(msg.sender == IERC721(ad).ownerOf(id),\"Sender doesn't own NFT\");\r\n            _resetAuction(ad, id);\r\n        }\r\n        _;\r\n    }\r\n    modifier auctionOngoing(address ad, uint256 id) {\r\n        require(_isAuctionOngoing(ad, id), \"Auction has ended\");\r\n        _;\r\n    }\r\n    modifier priceGreaterThanZero(uint256 _price) {\r\n        require(_price > 0, \"Price cannot be 0\");\r\n        _;\r\n    }\r\n    modifier notExceedLimit(uint128 _buyPrice,uint128 _minPrice) {\r\n        require(_buyPrice == 0 ||_getPortionOfBid(_buyPrice, maxMinPricePercentage) >=_minPrice,\"MinPrice <= 80% of buyPrice\");\r\n        _;\r\n    }\r\n    modifier notNftSeller(address ad, uint256 id) {\r\n        require(msg.sender != au[ad][id].seller,\"Owner cannot bid on own NFT\");\r\n        _;\r\n    }\r\n    modifier onlyNftSeller(address ad, uint256 id) {\r\n        require(msg.sender == au[ad][id].seller,\"Only nft seller\");\r\n        _;\r\n    }\r\n    modifier bidAmountSatified(address ad,uint256 id,uint128 _amount) {\r\n        require(checkBidRequirement(ad, id, _amount),\"Not enough funds to bid on NFT\");\r\n        _;\r\n    }\r\n    modifier minBidNotMade(address ad, uint256 id) {\r\n        require(!_isMinBidMade(ad, id),\"The au has a valid bid made\");\r\n        _;\r\n    }\r\n    modifier isAuctionOver(address ad, uint256 id) {\r\n        require(!_isAuctionOngoing(ad, id),\"Auction is not yet over\");\r\n        _;\r\n    }\r\n    modifier increasePercentageAboveMin(uint32 _bidIncreasePercentage) {\r\n        require(_bidIncreasePercentage >= minPercentage,\"Bid increase percentage too low\");\r\n        _;\r\n    }\r\n    modifier isNotASale(address ad, uint256 id) {\r\n        require(!_isASale(ad, id), \"Not applicable for a sale\");\r\n        _;\r\n    }\r\n    constructor(address _token, address _addressReceiver, uint256 _feeRate) {\r\n        defaultBidPercentage = 100;\r\n        defaultBidPeriod = 86400;\r\n        minPercentage = 100;\r\n        maxMinPricePercentage = 8000;\r\n        MATK = MAoE(_token);\r\n        addressReceiver = _addressReceiver;\r\n        feeRate = _feeRate;\r\n    }\r\n    function _isAuctionOngoing(address ad, uint256 id)internal view returns (bool){\r\n        uint64 auctionEndTimestamp = au[ad][id].aucEnd;\r\n        return (auctionEndTimestamp == 0 ||block.timestamp < auctionEndTimestamp);\r\n    }\r\n    function _isABidMade(address ad, uint256 id)internal view returns (bool)\r\n    {\r\n        return (au[ad][id].highestBid > 0);\r\n    }\r\n    function _isMinBidMade(address ad, uint256 id) internal view returns (bool)\r\n    {\r\n        uint128 minPrice = au[ad][id].minPrice;\r\n        return minPrice > 0 &&(au[ad][id].highestBid >= minPrice);\r\n    }\r\n    function _isBuyPriceMet(address ad, uint256 id)internal view returns (bool)\r\n    {\r\n        uint128 buyPrice = au[ad][id].buyPrice;\r\n        return buyPrice > 0 && au[ad][id].highestBid >= buyPrice;\r\n    }\r\n    function checkBidRequirement(address ad,uint256 id,uint128 _amount) internal view returns (bool) {\r\n        uint128 buyPrice = au[ad][id].buyPrice;\r\n        if (buyPrice > 0 &&( _amount >= buyPrice)) {\r\n            return true;\r\n        }\r\n        uint256 bidIncreaseAmount = (au[ad][id].highestBid *(10000 + _getBidIncreasePercentage(ad, id))) / 10000;\r\n        return (_amount >= bidIncreaseAmount);\r\n    }\r\n    function _isASale(address ad, uint256 id)public view returns (bool)\r\n    {\r\n        return (au[ad][id].buyPrice > 0 && au[ad][id].minPrice == 0);\r\n    }\r\n    function _isWhitelistedSale(address ad, uint256 id)public view returns (bool)\r\n    {\r\n        return (au[ad][id].whitelist !=address(0));\r\n    }\r\n    function _isHighestBidderAllowedToPurchaseNFT(address ad,uint256 id) public view returns (bool) {\r\n        return(!_isWhitelistedSale(ad, id)) ||_isHighestBidderWhitelisted(ad, id);\r\n    }\r\n    function _isHighestBidderWhitelisted(address ad, uint256 id)public view returns (bool)\r\n    {\r\n        return (au[ad][id].highestBidder ==au[ad][id].whitelist);\r\n    }\r\n    function _getPortionOfBid(uint256 _totalBid, uint256 _percentage)public pure returns (uint256)\r\n    {\r\n        return (_totalBid * (_percentage)) / 10000;\r\n    }\r\n    function _getBidIncreasePercentage(address ad, uint256 id) public view returns (uint32)\r\n    {\r\n        uint32 bidPercentage = au[ad][id].bidPercentage;\r\n        return bidPercentage ==0 ? defaultBidPercentage : bidPercentage;\r\n    }\r\n    function _getNftSeller(address ad, uint256 id) public view  returns (address)\r\n    {\r\n        return au[ad][id].seller;\r\n    }\r\n    function _getAuctionEnd(address ad, uint256 id) public view  returns (uint64)\r\n    {\r\n        return au[ad][id].aucEnd;\r\n    }\r\n    function _getStartTime(address ad, uint256 id) public view  returns (uint256)\r\n    {\r\n        return au[ad][id].startTime;\r\n    }\r\n    function _getMinPrice(address ad, uint256 id) public view returns (uint128)\r\n    {\r\n        return au[ad][id].minPrice;\r\n    }\r\n    function _getAuctionList() public view returns (AuctionList[] memory)\r\n    {\r\n        return aucList;\r\n    }\r\n    function _getBidHistory(address ad, uint256 id) public view returns ( Bid[] memory)\r\n    {\r\n        return bidHistory[ad][id];\r\n    }\r\n    function _getBuyPrice(address ad, uint256 id)\r\n        public\r\n        view\r\n        returns (uint128)\r\n    {\r\n        return au[ad][id].buyPrice;\r\n    }\r\n    function _getAuctionBidPeriod(address ad, uint256 id)\r\n        public\r\n        view\r\n        returns (uint32)\r\n    {\r\n        return au[ad][id].bidPeriod == 0? defaultBidPeriod : au[ad][id].bidPeriod;\r\n    }\r\n    function _getNftRecipient(address ad, uint256 id)\r\n        public\r\n        view\r\n        returns (address)\r\n    {\r\n        address recipient = au[ad][id].recipient;\r\n        return recipient == address(0) ? au[ad][id].highestBidder :recipient;\r\n    }\r\n    function _transferNftToAuctionContract(\r\n        address ad,\r\n        uint256 id\r\n    ) internal {\r\n        address _seller = au[ad][id].seller;\r\n        if (IERC721(ad).ownerOf(id) == _seller) {\r\n            IERC721(ad).transferFrom(\r\n                _seller,\r\n                address(this),\r\n                id\r\n            );\r\n            require(\r\n                IERC721(ad).ownerOf(id) == address(this),\r\n                \"Transfer failed!\"\r\n            );\r\n        } else {\r\n            require(\r\n                IERC721(ad).ownerOf(id) == address(this),\r\n                \"Seller doesn't own NFT\"\r\n            );\r\n        }\r\n    }\r\n    function _createNewNftAuction(\r\n        address ad, \r\n        uint256 id,\r\n        uint128 _minPrice,\r\n        uint128 _buyPrice,\r\n        uint64 _aucEnd\r\n    )\r\n        internal\r\n        notExceedLimit(_buyPrice, _minPrice)\r\n    {\r\n        au[ad][id].buyPrice = _buyPrice;\r\n        au[ad][id].minPrice = _minPrice;\r\n        au[ad][id].seller = msg.sender;\r\n        au[ad][id].startTime = block.timestamp;\r\n        au[ad][id].aucEnd = _aucEnd;\r\n        _updateOngoingAuction(ad, id);\r\n    }\r\n    function createDefaultNftAuction(\r\n        address ad,\r\n        uint256 id,\r\n        uint128 _minPrice,\r\n        uint128 _buyPrice,\r\n        uint64 _aucEnd\r\n    )\r\n        external\r\n        notStartedByOwner(ad, id)\r\n        priceGreaterThanZero(_minPrice)\r\n    {\r\n        _createNewNftAuction(\r\n            ad,\r\n            id,\r\n            _minPrice,\r\n            _buyPrice,\r\n            _aucEnd\r\n        );\r\n        uint256 len = aucList.length;\r\n        auc_index[ad][id] = len;\r\n        aucList.push(AuctionList(ad, id, defaultBidPercentage, defaultBidPeriod, _minPrice, _buyPrice, msg.sender));\r\n    }\r\n    function createNewNftAuction(\r\n        address ad,\r\n        uint256 id,\r\n        uint128 _minPrice,\r\n        uint128 _buyPrice,\r\n        uint64 _aucEnd,\r\n        uint32 _bidPeriod,\r\n        uint32 _bidIncreasePercentage\r\n    )\r\n        external\r\n        notStartedByOwner(ad, id)\r\n        priceGreaterThanZero(_minPrice)\r\n        increasePercentageAboveMin(_bidIncreasePercentage)\r\n    {\r\n        au[ad][id].bidPeriod = _bidPeriod;\r\n        au[ad][id]\r\n            .bidPercentage = _bidIncreasePercentage;\r\n        _createNewNftAuction(\r\n            ad,\r\n            id,\r\n            _minPrice,\r\n            _buyPrice,\r\n            _aucEnd\r\n        );\r\n        uint256 len = aucList.length;\r\n        auc_index[ad][id] = len;\r\n        aucList.push(AuctionList(ad, id,_bidIncreasePercentage, _bidPeriod, _minPrice, _buyPrice, msg.sender ));\r\n    }\r\n    function _makeBid(\r\n        address ad,\r\n        uint256 id,\r\n        uint128 _amount\r\n    )\r\n        internal\r\n        notNftSeller(ad, id)\r\n        bidAmountSatified(ad, id, _amount)\r\n    {\r\n        _reversePreviousBidAndUpdateHighestBid(\r\n            ad,\r\n            id,\r\n            _amount\r\n        );\r\n        _updateOngoingAuction(ad, id);\r\n    }\r\n    function makeBid(\r\n        address ad,\r\n        uint256 id,\r\n        uint128 _amount\r\n    )\r\n        external\r\n        auctionOngoing(ad, id)\r\n    {\r\n        _makeBid(ad, id, _amount);\r\n        bidHistory[ad][id].push(Bid(msg.sender, _amount, block.timestamp));\r\n    }\r\n    function _updateOngoingAuction(address ad, uint256 id)\r\n        internal\r\n    {\r\n        if (_isBuyPriceMet(ad, id)) {\r\n             (ad, id);\r\n            _transferNftAndPaySeller(ad, id);\r\n            return;\r\n        }\r\n        if (_isMinBidMade(ad, id)) {\r\n            _transferNftToAuctionContract(ad, id);\r\n            _updateAuctionEnd(ad, id);\r\n        }\r\n    }\r\n    function _updateAuctionEnd(address ad, uint256 id) internal {\r\n        au[ad][id].aucEnd =\r\n            _getAuctionBidPeriod(ad, id) +\r\n            uint64(block.timestamp);\r\n    }\r\n    function _resetAuction(address ad, uint256 id) internal {\r\n        au[ad][id].minPrice = 0;\r\n        au[ad][id].buyPrice = 0;\r\n        au[ad][id].aucEnd = 0;\r\n        au[ad][id].bidPeriod = 0;\r\n        au[ad][id].bidPercentage = 0;\r\n        au[ad][id].seller = address(0);\r\n        au[ad][id].whitelist = address(0);\r\n        au[ad][id].startTime = 0;\r\n    }\r\n    function _resetBids(address ad, uint256 id) internal {\r\n        au[ad][id].highestBidder = address(0);\r\n        au[ad][id].highestBid = 0;\r\n        au[ad][id].recipient = address(0);\r\n    }\r\n    function _updateHighestBid(\r\n        address ad,\r\n        uint256 id,\r\n        uint128 _amount\r\n    ) internal {\r\n        MATK.transferFrom(msg.sender, address(this), _amount);\r\n        au[ad][id].highestBid = _amount;\r\n        au[ad][id].highestBidder = msg.sender;\r\n    }\r\n    function _reverseAndResetPreviousBid(address ad, uint256 id)\r\n        internal\r\n    {\r\n        address highestBidder = au[ad][id]\r\n            .highestBidder;\r\n        uint128 highestBid = au[ad][id].highestBid;\r\n        _resetBids(ad, id);\r\n        _payout( highestBidder, highestBid);\r\n    }\r\n    function _reversePreviousBidAndUpdateHighestBid(\r\n        address ad,\r\n        uint256 id,\r\n        uint128 _amount\r\n    ) internal {\r\n        address prevNftHighestBidder = au[ad][id].highestBidder;\r\n        uint256 prevNftHighestBid = au[ad][id].highestBid;\r\n        _updateHighestBid(ad, id, _amount);\r\n        if (prevNftHighestBidder != address(0)) {_payout(prevNftHighestBidder,prevNftHighestBid);}\r\n    }\r\n    function _transferNftAndPaySeller(address ad, uint256 id)internal\r\n    {\r\n        address _seller = au[ad][id].seller;\r\n        address _nftRecipient = _getNftRecipient(ad, id);\r\n        uint128 _highestBid = au[ad][id].highestBid;\r\n        _resetBids(ad, id);\r\n        _payFeesAndSeller(ad, id, _seller, _highestBid);\r\n        IERC721(ad).transferFrom(address(this),_nftRecipient,id);\r\n        _resetAuction(ad, id);\r\n        uint256 aucIndx = auc_index[ad][id];\r\n        uint256 len = aucList.length;\r\n        if (len == 1) {\r\n            aucList.pop();\r\n        } else {\r\n            AuctionList storage auc_pop = aucList[len - 1];\r\n            auc_index[auc_pop.ad][auc_pop.id] = aucIndx;\r\n            aucList[aucIndx] = aucList[aucList.length - 1];\r\n            aucList.pop();\r\n        }\r\n    }\r\n    function _payFeesAndSeller(address ad,uint256 id,address _seller,uint256 _highestBid) internal { \r\n        uint256 fee = _getPortionOfBid(_highestBid,feeRate);\r\n        _payout(addressReceiver,fee);\r\n        _payout( _seller, (_highestBid - fee));\r\n    }\r\n    function _payout(address _recipient, uint256 _amount) internal {\r\n        MATK.transfer(_recipient, _amount);\r\n    }\r\n    function settleAuction(address ad, uint256 id)\r\n        external\r\n        isAuctionOver(ad, id)\r\n    {\r\n        _transferNftAndPaySeller(ad, id);\r\n    }\r\n    function withdrawAuction(address ad, uint256 id) external {\r\n        require(IERC721(ad).ownerOf(id) == msg.sender,\"Not NFT owner\");\r\n        _resetAuction(ad, id);\r\n    }\r\n}",
  "sourcePath": "C:\\Users\\ASROCK\\Desktop\\baoe-nft-marketplace\\src\\contracts\\NFTAuction.sol",
  "compiler": {
    "name": "solc",
    "version": "0.8.15+commit.e14f2714.Emscripten.clang"
  },
  "schemaVersion": "3.4.7",
  "updatedAt": "2022-06-27T07:27:33.554Z",
  "networkType": "ethereum",
  "devdoc": {
    "kind": "dev",
    "methods": {},
    "version": 1
  },
  "userdoc": {
    "kind": "user",
    "methods": {},
    "version": 1
  }
}